{
	"src/Loopso.sol": {
		"Loopso": {
			"abi": [
				{
					"inputs": [],
					"stateMutability": "nonpayable",
					"type": "constructor"
				},
				{
					"inputs": [],
					"name": "AccessControlBadConfirmation",
					"type": "error"
				},
				{
					"inputs": [
						{
							"internalType": "address",
							"name": "account",
							"type": "address"
						},
						{
							"internalType": "bytes32",
							"name": "neededRole",
							"type": "bytes32"
						}
					],
					"name": "AccessControlUnauthorizedAccount",
					"type": "error"
				},
				{
					"anonymous": false,
					"inputs": [
						{
							"indexed": true,
							"internalType": "bytes32",
							"name": "role",
							"type": "bytes32"
						},
						{
							"indexed": true,
							"internalType": "bytes32",
							"name": "previousAdminRole",
							"type": "bytes32"
						},
						{
							"indexed": true,
							"internalType": "bytes32",
							"name": "newAdminRole",
							"type": "bytes32"
						}
					],
					"name": "RoleAdminChanged",
					"type": "event"
				},
				{
					"anonymous": false,
					"inputs": [
						{
							"indexed": true,
							"internalType": "bytes32",
							"name": "role",
							"type": "bytes32"
						},
						{
							"indexed": true,
							"internalType": "address",
							"name": "account",
							"type": "address"
						},
						{
							"indexed": true,
							"internalType": "address",
							"name": "sender",
							"type": "address"
						}
					],
					"name": "RoleGranted",
					"type": "event"
				},
				{
					"anonymous": false,
					"inputs": [
						{
							"indexed": true,
							"internalType": "bytes32",
							"name": "role",
							"type": "bytes32"
						},
						{
							"indexed": true,
							"internalType": "address",
							"name": "account",
							"type": "address"
						},
						{
							"indexed": true,
							"internalType": "address",
							"name": "sender",
							"type": "address"
						}
					],
					"name": "RoleRevoked",
					"type": "event"
				},
				{
					"anonymous": false,
					"inputs": [
						{
							"indexed": true,
							"internalType": "bytes32",
							"name": "tokenID",
							"type": "bytes32"
						}
					],
					"name": "TokenAttested",
					"type": "event"
				},
				{
					"anonymous": false,
					"inputs": [
						{
							"indexed": true,
							"internalType": "bytes32",
							"name": "transferID",
							"type": "bytes32"
						}
					],
					"name": "TokensBridged",
					"type": "event"
				},
				{
					"anonymous": false,
					"inputs": [
						{
							"indexed": true,
							"internalType": "uint256",
							"name": "amount",
							"type": "uint256"
						},
						{
							"indexed": true,
							"internalType": "address",
							"name": "to",
							"type": "address"
						},
						{
							"indexed": true,
							"internalType": "bytes32",
							"name": "tokenID",
							"type": "bytes32"
						}
					],
					"name": "TokensBridgedBack",
					"type": "event"
				},
				{
					"anonymous": false,
					"inputs": [
						{
							"indexed": true,
							"internalType": "uint256",
							"name": "amount",
							"type": "uint256"
						},
						{
							"indexed": true,
							"internalType": "address",
							"name": "to",
							"type": "address"
						},
						{
							"indexed": true,
							"internalType": "address",
							"name": "token",
							"type": "address"
						}
					],
					"name": "TokensReleased",
					"type": "event"
				},
				{
					"anonymous": false,
					"inputs": [
						{
							"indexed": true,
							"internalType": "uint256",
							"name": "amount",
							"type": "uint256"
						},
						{
							"indexed": true,
							"internalType": "address",
							"name": "to",
							"type": "address"
						},
						{
							"indexed": true,
							"internalType": "bytes32",
							"name": "tokenID",
							"type": "bytes32"
						}
					],
					"name": "WrappedTokensReleased",
					"type": "event"
				},
				{
					"inputs": [],
					"name": "DEFAULT_ADMIN_ROLE",
					"outputs": [
						{
							"internalType": "bytes32",
							"name": "",
							"type": "bytes32"
						}
					],
					"stateMutability": "view",
					"type": "function"
				},
				{
					"inputs": [],
					"name": "RELAYER_ROLE",
					"outputs": [
						{
							"internalType": "bytes32",
							"name": "",
							"type": "bytes32"
						}
					],
					"stateMutability": "view",
					"type": "function"
				},
				{
					"inputs": [
						{
							"components": [
								{
									"internalType": "address",
									"name": "tokenAddress",
									"type": "address"
								},
								{
									"internalType": "uint256",
									"name": "tokenChain",
									"type": "uint256"
								},
								{
									"internalType": "enum ILoopso.TokenType",
									"name": "tokenType",
									"type": "uint8"
								},
								{
									"internalType": "uint8",
									"name": "decimals",
									"type": "uint8"
								},
								{
									"internalType": "string",
									"name": "symbol",
									"type": "string"
								},
								{
									"internalType": "string",
									"name": "name",
									"type": "string"
								},
								{
									"internalType": "address",
									"name": "wrappedTokenAddress",
									"type": "address"
								}
							],
							"internalType": "struct ILoopso.TokenAttestation",
							"name": "attestation",
							"type": "tuple"
						}
					],
					"name": "attestToken",
					"outputs": [],
					"stateMutability": "nonpayable",
					"type": "function"
				},
				{
					"inputs": [
						{
							"internalType": "bytes32",
							"name": "",
							"type": "bytes32"
						}
					],
					"name": "attestedTokens",
					"outputs": [
						{
							"internalType": "address",
							"name": "tokenAddress",
							"type": "address"
						},
						{
							"internalType": "uint256",
							"name": "tokenChain",
							"type": "uint256"
						},
						{
							"internalType": "enum ILoopso.TokenType",
							"name": "tokenType",
							"type": "uint8"
						},
						{
							"internalType": "uint8",
							"name": "decimals",
							"type": "uint8"
						},
						{
							"internalType": "string",
							"name": "symbol",
							"type": "string"
						},
						{
							"internalType": "string",
							"name": "name",
							"type": "string"
						},
						{
							"internalType": "address",
							"name": "wrappedTokenAddress",
							"type": "address"
						}
					],
					"stateMutability": "view",
					"type": "function"
				},
				{
					"inputs": [
						{
							"internalType": "address",
							"name": "_token",
							"type": "address"
						},
						{
							"internalType": "uint256",
							"name": "_tokenID",
							"type": "uint256"
						},
						{
							"internalType": "uint256",
							"name": "_dstChain",
							"type": "uint256"
						},
						{
							"internalType": "address",
							"name": "_dstAddress",
							"type": "address"
						}
					],
					"name": "bridgeNonFungibleTokens",
					"outputs": [],
					"stateMutability": "nonpayable",
					"type": "function"
				},
				{
					"inputs": [],
					"name": "bridgeNonFungibleTokensBack",
					"outputs": [],
					"stateMutability": "nonpayable",
					"type": "function"
				},
				{
					"inputs": [
						{
							"internalType": "address",
							"name": "_token",
							"type": "address"
						},
						{
							"internalType": "uint256",
							"name": "_amount",
							"type": "uint256"
						},
						{
							"internalType": "uint256",
							"name": "_dstChain",
							"type": "uint256"
						},
						{
							"internalType": "address",
							"name": "_dstAddress",
							"type": "address"
						}
					],
					"name": "bridgeTokens",
					"outputs": [],
					"stateMutability": "nonpayable",
					"type": "function"
				},
				{
					"inputs": [
						{
							"internalType": "uint256",
							"name": "_amount",
							"type": "uint256"
						},
						{
							"internalType": "address",
							"name": "_to",
							"type": "address"
						},
						{
							"internalType": "bytes32",
							"name": "_tokenID",
							"type": "bytes32"
						}
					],
					"name": "bridgeTokensBack",
					"outputs": [],
					"stateMutability": "nonpayable",
					"type": "function"
				},
				{
					"inputs": [
						{
							"internalType": "bytes32",
							"name": "role",
							"type": "bytes32"
						}
					],
					"name": "getRoleAdmin",
					"outputs": [
						{
							"internalType": "bytes32",
							"name": "",
							"type": "bytes32"
						}
					],
					"stateMutability": "view",
					"type": "function"
				},
				{
					"inputs": [
						{
							"internalType": "bytes32",
							"name": "role",
							"type": "bytes32"
						},
						{
							"internalType": "address",
							"name": "account",
							"type": "address"
						}
					],
					"name": "grantRole",
					"outputs": [],
					"stateMutability": "nonpayable",
					"type": "function"
				},
				{
					"inputs": [
						{
							"internalType": "bytes32",
							"name": "role",
							"type": "bytes32"
						},
						{
							"internalType": "address",
							"name": "account",
							"type": "address"
						}
					],
					"name": "hasRole",
					"outputs": [
						{
							"internalType": "bool",
							"name": "",
							"type": "bool"
						}
					],
					"stateMutability": "view",
					"type": "function"
				},
				{
					"inputs": [],
					"name": "releaseNonFungibleTokens",
					"outputs": [],
					"stateMutability": "nonpayable",
					"type": "function"
				},
				{
					"inputs": [
						{
							"internalType": "uint256",
							"name": "_amount",
							"type": "uint256"
						},
						{
							"internalType": "address",
							"name": "_to",
							"type": "address"
						},
						{
							"internalType": "address",
							"name": "_token",
							"type": "address"
						}
					],
					"name": "releaseTokens",
					"outputs": [],
					"stateMutability": "nonpayable",
					"type": "function"
				},
				{
					"inputs": [],
					"name": "releaseWrappedNonFungibleTokens",
					"outputs": [],
					"stateMutability": "nonpayable",
					"type": "function"
				},
				{
					"inputs": [
						{
							"internalType": "uint256",
							"name": "_amount",
							"type": "uint256"
						},
						{
							"internalType": "address",
							"name": "_to",
							"type": "address"
						},
						{
							"internalType": "bytes32",
							"name": "_tokenID",
							"type": "bytes32"
						}
					],
					"name": "releaseWrappedTokens",
					"outputs": [],
					"stateMutability": "nonpayable",
					"type": "function"
				},
				{
					"inputs": [
						{
							"internalType": "bytes32",
							"name": "role",
							"type": "bytes32"
						},
						{
							"internalType": "address",
							"name": "callerConfirmation",
							"type": "address"
						}
					],
					"name": "renounceRole",
					"outputs": [],
					"stateMutability": "nonpayable",
					"type": "function"
				},
				{
					"inputs": [
						{
							"internalType": "bytes32",
							"name": "role",
							"type": "bytes32"
						},
						{
							"internalType": "address",
							"name": "account",
							"type": "address"
						}
					],
					"name": "revokeRole",
					"outputs": [],
					"stateMutability": "nonpayable",
					"type": "function"
				},
				{
					"inputs": [
						{
							"internalType": "contract ITokenFactory",
							"name": "_tokenFactory",
							"type": "address"
						}
					],
					"name": "setTokenFactory",
					"outputs": [],
					"stateMutability": "nonpayable",
					"type": "function"
				},
				{
					"inputs": [
						{
							"internalType": "bytes4",
							"name": "interfaceId",
							"type": "bytes4"
						}
					],
					"name": "supportsInterface",
					"outputs": [
						{
							"internalType": "bool",
							"name": "",
							"type": "bool"
						}
					],
					"stateMutability": "view",
					"type": "function"
				},
				{
					"inputs": [],
					"name": "tokenFactory",
					"outputs": [
						{
							"internalType": "contract ITokenFactory",
							"name": "",
							"type": "address"
						}
					],
					"stateMutability": "view",
					"type": "function"
				},
				{
					"inputs": [
						{
							"internalType": "bytes32",
							"name": "",
							"type": "bytes32"
						}
					],
					"name": "tokenTransfers",
					"outputs": [
						{
							"components": [
								{
									"internalType": "uint256",
									"name": "timestamp",
									"type": "uint256"
								},
								{
									"internalType": "uint256",
									"name": "srcChain",
									"type": "uint256"
								},
								{
									"internalType": "address",
									"name": "srcAddress",
									"type": "address"
								},
								{
									"internalType": "uint256",
									"name": "dstChain",
									"type": "uint256"
								},
								{
									"internalType": "address",
									"name": "dstAddress",
									"type": "address"
								},
								{
									"internalType": "address",
									"name": "tokenAddress",
									"type": "address"
								}
							],
							"internalType": "struct ILoopso.TokenTransferBase",
							"name": "tokenTransfer",
							"type": "tuple"
						},
						{
							"internalType": "uint256",
							"name": "amount",
							"type": "uint256"
						}
					],
					"stateMutability": "view",
					"type": "function"
				}
			],
			"devdoc": {
				"errors": {
					"AccessControlBadConfirmation()": [
						{
							"details": "The caller of a function is not the expected one. NOTE: Don't confuse with {AccessControlUnauthorizedAccount}."
						}
					],
					"AccessControlUnauthorizedAccount(address,bytes32)": [
						{
							"details": "The `account` is missing a role."
						}
					]
				},
				"events": {
					"RoleAdminChanged(bytes32,bytes32,bytes32)": {
						"details": "Emitted when `newAdminRole` is set as ``role``'s admin role, replacing `previousAdminRole` `DEFAULT_ADMIN_ROLE` is the starting admin for all roles, despite {RoleAdminChanged} not being emitted signaling this."
					},
					"RoleGranted(bytes32,address,address)": {
						"details": "Emitted when `account` is granted `role`. `sender` is the account that originated the contract call, an admin role bearer except when using {AccessControl-_setupRole}."
					},
					"RoleRevoked(bytes32,address,address)": {
						"details": "Emitted when `account` is revoked `role`. `sender` is the account that originated the contract call:   - if using `revokeRole`, it is the admin role bearer   - if using `renounceRole`, it is the role bearer (i.e. `account`)"
					},
					"TokenAttested(bytes32)": {
						"details": "Emitted by attestToken. Means a new token is supported by the bridge. "
					},
					"TokensBridged(bytes32)": {
						"details": "Emitted by bridgeTokens. transferID is used by the relayer as it helps locate the transfer details. "
					},
					"TokensBridgedBack(uint256,address,bytes32)": {
						"details": "Emitted by bridgeTokensBack. Relayer should use indexed params to release the tokens on the other chain. "
					},
					"TokensReleased(uint256,address,address)": {
						"details": "Emitted by releaseTokens. This means briding back wrapped tokens to the source chain was successful. "
					},
					"WrappedTokensReleased(uint256,address,bytes32)": {
						"details": "Emitted by releaseWrappedTokens. This briding tokens was succesful. "
					}
				},
				"kind": "dev",
				"methods": {
					"attestToken((address,uint256,uint8,uint8,string,string,address))": {
						"details": "Called by bridge admin on the destination chain to attest a token. Only attested tokens can be bridged.",
						"params": {
							"attestation": "Contains details that are used to identify a token from chain A on chain B."
						}
					},
					"bridgeTokens(address,uint256,uint256,address)": {
						"details": "Called by users to bridge tokens from source chain to destination chain.",
						"params": {
							"_amount": "The amount of tokens to bridge.",
							"_dstAddress": "Address the wrapped tokens will be released to on the destination chain. ",
							"_dstChain": "Chain ID where we are bridging to.",
							"_token": "The address of the token to bridge."
						}
					},
					"bridgeTokensBack(uint256,address,bytes32)": {
						"details": "Burns _amount of locked tokens on the destination chain, emits an event that relayer picks up.",
						"params": {
							"_amount": "Amount of tokens to bridge back.",
							"_to": "Address the original tokens will be released to.",
							"_tokenID": "ID of the TokenAttestation struct we use to identify a chain A token on chain B."
						}
					},
					"getRoleAdmin(bytes32)": {
						"details": "Returns the admin role that controls `role`. See {grantRole} and {revokeRole}. To change a role's admin, use {_setRoleAdmin}."
					},
					"grantRole(bytes32,address)": {
						"details": "Grants `role` to `account`. If `account` had not been already granted `role`, emits a {RoleGranted} event. Requirements: - the caller must have ``role``'s admin role. May emit a {RoleGranted} event."
					},
					"hasRole(bytes32,address)": {
						"details": "Returns `true` if `account` has been granted `role`."
					},
					"releaseTokens(uint256,address,address)": {
						"details": "Called by the relayer after it picks up a TokensBridgedBackEvent. It releases the bridged back tokens to the user.",
						"params": {
							"_amount": "The amount of tokens to release.",
							"_to": "The address to release the tokens to.",
							"_token": "The address of the token to release."
						}
					},
					"releaseWrappedTokens(uint256,address,bytes32)": {
						"details": "Called by the relayer after it picks up a bridge event from the source chain. It mints wrapped tokens equivalent to the tokens locked up on the source chain.",
						"params": {
							"_amount": "Amount of wrapped tokens to mint.",
							"_to": "The address the wrapped tokens will be minted to.",
							"_tokenID": "The ID we use to identify a chain A token on chain B."
						}
					},
					"renounceRole(bytes32,address)": {
						"details": "Revokes `role` from the calling account. Roles are often managed via {grantRole} and {revokeRole}: this function's purpose is to provide a mechanism for accounts to lose their privileges if they are compromised (such as when a trusted device is misplaced). If the calling account had been revoked `role`, emits a {RoleRevoked} event. Requirements: - the caller must be `callerConfirmation`. May emit a {RoleRevoked} event."
					},
					"revokeRole(bytes32,address)": {
						"details": "Revokes `role` from `account`. If `account` had been granted `role`, emits a {RoleRevoked} event. Requirements: - the caller must have ``role``'s admin role. May emit a {RoleRevoked} event."
					},
					"supportsInterface(bytes4)": {
						"details": "See {IERC165-supportsInterface}."
					}
				},
				"version": 1
			},
			"evm": {
				"assembly": "    /* \"src/Loopso.sol\":350:4722  contract Loopso is AccessControl, ILoopso {... */\n  mstore(0x40, 0x80)\n    /* \"src/Loopso.sol\":775:905  constructor() {... */\n  callvalue\n  dup1\n  iszero\n  tag_1\n  jumpi\n  0x00\n  dup1\n  revert\ntag_1:\n  pop\n    /* \"src/Loopso.sol\":799:841  _grantRole(DEFAULT_ADMIN_ROLE, msg.sender) */\n  tag_4\n    /* \"lib/openzeppelin-contracts/contracts/access/AccessControl.sol\":2232:2236  0x00 */\n  0x00\n    /* \"src/Loopso.sol\":830:840  msg.sender */\n  caller\n    /* \"src/Loopso.sol\":799:809  _grantRole */\n  tag_5\n    /* \"src/Loopso.sol\":799:841  _grantRole(DEFAULT_ADMIN_ROLE, msg.sender) */\n  jump\t// in\ntag_4:\n  pop\n    /* \"src/Loopso.sol\":851:898  _setRoleAdmin(RELAYER_ROLE, DEFAULT_ADMIN_ROLE) */\n  tag_6\n    /* \"src/Loopso.sol\":437:462  keccak256(\"RELAYER_ROLE\") */\n  0xe2b7fb3b832174769106daebcfd6d1970523240dda11281102db9363b83b0dc4\n    /* \"lib/openzeppelin-contracts/contracts/access/AccessControl.sol\":2232:2236  0x00 */\n  0x00\n    /* \"src/Loopso.sol\":851:864  _setRoleAdmin */\n  tag_7\n    /* \"src/Loopso.sol\":851:898  _setRoleAdmin(RELAYER_ROLE, DEFAULT_ADMIN_ROLE) */\n  jump\t// in\ntag_6:\n    /* \"src/Loopso.sol\":350:4722  contract Loopso is AccessControl, ILoopso {... */\n  jump(tag_8)\n    /* \"lib/openzeppelin-contracts/contracts/access/AccessControl.sol\":6179:6495  function _grantRole(bytes32 role, address account) internal virtual returns (bool) {... */\ntag_5:\n    /* \"lib/openzeppelin-contracts/contracts/access/AccessControl.sol\":6256:6260  bool */\n  0x00\n    /* \"lib/openzeppelin-contracts/contracts/access/AccessControl.sol\":2954:2966  _roles[role] */\n  dup3\n  dup2\n  mstore\n  0x20\n  dup2\n  dup2\n  mstore\n  0x40\n  dup1\n  dup4\n  keccak256\n  sub(shl(0xa0, 0x01), 0x01)\n    /* \"lib/openzeppelin-contracts/contracts/access/AccessControl.sol\":2954:2983  _roles[role].hasRole[account] */\n  dup6\n  and\n  dup5\n  mstore\n  swap1\n  swap2\n  mstore\n  dup2\n  keccak256\n  sload\n  0xff\n  and\n    /* \"lib/openzeppelin-contracts/contracts/access/AccessControl.sol\":6272:6489  if (!hasRole(role, account)) {... */\n  tag_12\n  jumpi\n    /* \"lib/openzeppelin-contracts/contracts/access/AccessControl.sol\":6315:6321  _roles */\n  0x00\n    /* \"lib/openzeppelin-contracts/contracts/access/AccessControl.sol\":6315:6327  _roles[role] */\n  dup4\n  dup2\n  mstore\n  0x20\n  dup2\n  dup2\n  mstore\n  0x40\n  dup1\n  dup4\n  keccak256\n  sub(shl(0xa0, 0x01), 0x01)\n    /* \"lib/openzeppelin-contracts/contracts/access/AccessControl.sol\":6315:6344  _roles[role].hasRole[account] */\n  dup7\n  and\n  dup5\n  mstore\n  swap1\n  swap2\n  mstore\n  swap1\n  keccak256\n    /* \"lib/openzeppelin-contracts/contracts/access/AccessControl.sol\":6315:6351  _roles[role].hasRole[account] = true */\n  dup1\n  sload\n  not(0xff)\n  and\n    /* \"lib/openzeppelin-contracts/contracts/access/AccessControl.sol\":6347:6351  true */\n  0x01\n    /* \"lib/openzeppelin-contracts/contracts/access/AccessControl.sol\":6315:6351  _roles[role].hasRole[account] = true */\n  or\n  swap1\n  sstore\n    /* \"lib/openzeppelin-contracts/contracts/access/AccessControl.sol\":6397:6409  _msgSender() */\n  tag_13\n    /* \"lib/openzeppelin-contracts/contracts/utils/Context.sol\":735:745  msg.sender */\n  caller\n  swap1\n    /* \"lib/openzeppelin-contracts/contracts/utils/Context.sol\":656:752  function _msgSender() internal view virtual returns (address) {... */\n  jump\n    /* \"lib/openzeppelin-contracts/contracts/access/AccessControl.sol\":6397:6409  _msgSender() */\ntag_13:\n  sub(shl(0xa0, 0x01), 0x01)\n    /* \"lib/openzeppelin-contracts/contracts/access/AccessControl.sol\":6370:6410  RoleGranted(role, account, _msgSender()) */\n  and\n    /* \"lib/openzeppelin-contracts/contracts/access/AccessControl.sol\":6388:6395  account */\n  dup3\n  sub(shl(0xa0, 0x01), 0x01)\n    /* \"lib/openzeppelin-contracts/contracts/access/AccessControl.sol\":6370:6410  RoleGranted(role, account, _msgSender()) */\n  and\n    /* \"lib/openzeppelin-contracts/contracts/access/AccessControl.sol\":6382:6386  role */\n  dup5\n    /* \"lib/openzeppelin-contracts/contracts/access/AccessControl.sol\":6370:6410  RoleGranted(role, account, _msgSender()) */\n  0x2f8788117e7eff1d82e926ec794901d17c78024a50270940304540a733656f0d\n  mload(0x40)\n  mload(0x40)\n  dup1\n  swap2\n  sub\n  swap1\n  log4\n  pop\n    /* \"lib/openzeppelin-contracts/contracts/access/AccessControl.sol\":6431:6435  true */\n  0x01\n    /* \"lib/openzeppelin-contracts/contracts/access/AccessControl.sol\":6424:6435  return true */\n  jump(tag_15)\n    /* \"lib/openzeppelin-contracts/contracts/access/AccessControl.sol\":6272:6489  if (!hasRole(role, account)) {... */\ntag_12:\n  pop\n    /* \"lib/openzeppelin-contracts/contracts/access/AccessControl.sol\":6473:6478  false */\n  0x00\n    /* \"lib/openzeppelin-contracts/contracts/access/AccessControl.sol\":6272:6489  if (!hasRole(role, account)) {... */\ntag_15:\n    /* \"lib/openzeppelin-contracts/contracts/access/AccessControl.sol\":6179:6495  function _grantRole(bytes32 role, address account) internal virtual returns (bool) {... */\n  swap3\n  swap2\n  pop\n  pop\n  jump\t// out\n    /* \"lib/openzeppelin-contracts/contracts/access/AccessControl.sol\":5698:5945  function _setRoleAdmin(bytes32 role, bytes32 adminRole) internal virtual {... */\ntag_7:\n    /* \"lib/openzeppelin-contracts/contracts/access/AccessControl.sol\":5781:5806  bytes32 previousAdminRole */\n  0x00\n    /* \"lib/openzeppelin-contracts/contracts/access/AccessControl.sol\":3901:3913  _roles[role] */\n  dup3\n  dup2\n  mstore\n  0x20\n  dup2\n  swap1\n  mstore\n  0x40\n  dup1\n  dup3\n  keccak256\n    /* \"lib/openzeppelin-contracts/contracts/access/AccessControl.sol\":3901:3923  _roles[role].adminRole */\n  0x01\n  add\n  dup1\n  sload\n    /* \"lib/openzeppelin-contracts/contracts/access/AccessControl.sol\":5837:5871  _roles[role].adminRole = adminRole */\n  swap1\n  dup5\n  swap1\n  sstore\n    /* \"lib/openzeppelin-contracts/contracts/access/AccessControl.sol\":5886:5938  RoleAdminChanged(role, previousAdminRole, adminRole) */\n  swap1\n  mload\n    /* \"lib/openzeppelin-contracts/contracts/access/AccessControl.sol\":3901:3923  _roles[role].adminRole */\n  swap1\n  swap2\n    /* \"lib/openzeppelin-contracts/contracts/access/AccessControl.sol\":5837:5871  _roles[role].adminRole = adminRole */\n  dup4\n  swap2\n    /* \"lib/openzeppelin-contracts/contracts/access/AccessControl.sol\":3901:3923  _roles[role].adminRole */\n  dup4\n  swap2\n    /* \"lib/openzeppelin-contracts/contracts/access/AccessControl.sol\":3901:3913  _roles[role] */\n  dup7\n  swap2\n    /* \"lib/openzeppelin-contracts/contracts/access/AccessControl.sol\":5886:5938  RoleAdminChanged(role, previousAdminRole, adminRole) */\n  0xbd79b86ffe0ab8e8776151514217cd7cacd52c909f66475c3af44e129f0b00ff\n  swap2\n    /* \"lib/openzeppelin-contracts/contracts/access/AccessControl.sol\":5781:5806  bytes32 previousAdminRole */\n  swap1\n    /* \"lib/openzeppelin-contracts/contracts/access/AccessControl.sol\":5886:5938  RoleAdminChanged(role, previousAdminRole, adminRole) */\n  log4\n    /* \"lib/openzeppelin-contracts/contracts/access/AccessControl.sol\":5771:5945  {... */\n  pop\n    /* \"lib/openzeppelin-contracts/contracts/access/AccessControl.sol\":5698:5945  function _setRoleAdmin(bytes32 role, bytes32 adminRole) internal virtual {... */\n  pop\n  pop\n  jump\t// out\n    /* \"src/Loopso.sol\":350:4722  contract Loopso is AccessControl, ILoopso {... */\ntag_8:\n  dataSize(sub_0)\n  dup1\n  dataOffset(sub_0)\n  0x00\n  codecopy\n  0x00\n  return\nstop\n\nsub_0: assembly {\n        /* \"src/Loopso.sol\":350:4722  contract Loopso is AccessControl, ILoopso {... */\n      mstore(0x40, 0x80)\n      callvalue\n      dup1\n      iszero\n      tag_1\n      jumpi\n      0x00\n      dup1\n      revert\n    tag_1:\n      pop\n      jumpi(tag_2, lt(calldatasize, 0x04))\n      shr(0xe0, calldataload(0x00))\n      dup1\n      0x62a00971\n      gt\n      tag_24\n      jumpi\n      dup1\n      0x9a67e7f9\n      gt\n      tag_25\n      jumpi\n      dup1\n      0x9a67e7f9\n      eq\n      tag_18\n      jumpi\n      dup1\n      0xa217fddf\n      eq\n      tag_19\n      jumpi\n      dup1\n      0xd547741f\n      eq\n      tag_20\n      jumpi\n      dup1\n      0xe77772fe\n      eq\n      tag_21\n      jumpi\n      dup1\n      0xeac213ce\n      eq\n      tag_44\n      jumpi\n      dup1\n      0xf86da945\n      eq\n      tag_44\n      jumpi\n      0x00\n      dup1\n      revert\n    tag_25:\n      dup1\n      0x62a00971\n      eq\n      tag_13\n      jumpi\n      dup1\n      0x63a4e95f\n      eq\n      tag_14\n      jumpi\n      dup1\n      0x7f7b0109\n      eq\n      tag_15\n      jumpi\n      dup1\n      0x91d14854\n      eq\n      tag_16\n      jumpi\n      dup1\n      0x926d7d7f\n      eq\n      tag_17\n      jumpi\n      0x00\n      dup1\n      revert\n    tag_24:\n      dup1\n      0x31ba1648\n      gt\n      tag_26\n      jumpi\n      dup1\n      0x31ba1648\n      eq\n      tag_8\n      jumpi\n      dup1\n      0x33b15aad\n      eq\n      tag_9\n      jumpi\n      dup1\n      0x36568abe\n      eq\n      tag_10\n      jumpi\n      dup1\n      0x39578521\n      eq\n      tag_11\n      jumpi\n      dup1\n      0x4c597f8a\n      eq\n      tag_44\n      jumpi\n      0x00\n      dup1\n      revert\n    tag_26:\n      dup1\n      0x01ffc9a7\n      eq\n      tag_3\n      jumpi\n      dup1\n      0x1385c670\n      eq\n      tag_4\n      jumpi\n      dup1\n      0x248a9ca3\n      eq\n      tag_5\n      jumpi\n      dup1\n      0x2f2ff15d\n      eq\n      tag_6\n      jumpi\n      dup1\n      0x2f73a9f8\n      eq\n      tag_7\n      jumpi\n    tag_2:\n      0x00\n      dup1\n      revert\n        /* \"lib/openzeppelin-contracts/contracts/access/AccessControl.sol\":2565:2767  function supportsInterface(bytes4 interfaceId) public view virtual override returns (bool) {... */\n    tag_3:\n      tag_27\n      tag_28\n      calldatasize\n      0x04\n      tag_29\n      jump\t// in\n    tag_28:\n      tag_30\n      jump\t// in\n    tag_27:\n      mload(0x40)\n        /* \"#utility.yul\":470:484   */\n      swap1\n      iszero\n        /* \"#utility.yul\":463:485   */\n      iszero\n        /* \"#utility.yul\":445:486   */\n      dup2\n      mstore\n        /* \"#utility.yul\":433:435   */\n      0x20\n        /* \"#utility.yul\":418:436   */\n      add\n        /* \"lib/openzeppelin-contracts/contracts/access/AccessControl.sol\":2565:2767  function supportsInterface(bytes4 interfaceId) public view virtual override returns (bool) {... */\n    tag_31:\n      mload(0x40)\n      dup1\n      swap2\n      sub\n      swap1\n      return\n        /* \"src/Loopso.sol\":624:680  mapping(bytes32  => TokenTransfer) public tokenTransfers */\n    tag_4:\n      tag_33\n      tag_34\n      calldatasize\n      0x04\n      tag_35\n      jump\t// in\n    tag_34:\n      0x02\n      0x20\n      dup2\n      dup2\n      mstore\n      0x00\n      swap3\n      dup4\n      mstore\n      0x40\n      swap3\n      dup4\n      swap1\n      keccak256\n      dup4\n      mload\n      0xc0\n      dup2\n      add\n      dup6\n      mstore\n      dup2\n      sload\n      dup2\n      mstore\n      0x01\n      dup3\n      add\n      sload\n      swap3\n      dup2\n      add\n      swap3\n      swap1\n      swap3\n      mstore\n      swap2\n      dup3\n      add\n      sload\n      sub(shl(0xa0, 0x01), 0x01)\n      swap1\n      dup2\n      and\n      swap4\n      dup3\n      add\n      swap4\n      swap1\n      swap4\n      mstore\n      0x03\n      dup3\n      add\n      sload\n      0x60\n      dup3\n      add\n      mstore\n      0x04\n      dup3\n      add\n      sload\n      dup4\n      and\n      0x80\n      dup3\n      add\n      mstore\n      0x05\n      dup3\n      add\n      sload\n      swap1\n      swap3\n      and\n      0xa0\n      dup4\n      add\n      mstore\n      0x06\n      add\n      sload\n      dup3\n      jump\n    tag_33:\n      0x40\n      dup1\n      mload\n        /* \"#utility.yul\":945:958   */\n      dup4\n      mload\n        /* \"#utility.yul\":927:959   */\n      dup2\n      mstore\n        /* \"#utility.yul\":1015:1019   */\n      0x20\n        /* \"#utility.yul\":1003:1020   */\n      dup1\n      dup6\n      add\n        /* \"#utility.yul\":997:1021   */\n      mload\n        /* \"#utility.yul\":975:995   */\n      swap1\n      dup3\n      add\n        /* \"#utility.yul\":968:1022   */\n      mstore\n        /* \"#utility.yul\":1057:1074   */\n      dup4\n      dup3\n      add\n        /* \"#utility.yul\":1051:1075   */\n      mload\n      sub(shl(0xa0, 0x01), 0x01)\n        /* \"#utility.yul\":1151:1172   */\n      swap1\n      dup2\n      and\n        /* \"#utility.yul\":1129:1149   */\n      swap3\n      dup3\n      add\n        /* \"#utility.yul\":1122:1173   */\n      swap3\n      swap1\n      swap3\n      mstore\n        /* \"#utility.yul\":1229:1233   */\n      0x60\n        /* \"#utility.yul\":1217:1234   */\n      dup1\n      dup6\n      add\n        /* \"#utility.yul\":1211:1235   */\n      mload\n        /* \"#utility.yul\":1189:1209   */\n      swap1\n      dup3\n      add\n        /* \"#utility.yul\":1182:1236   */\n      mstore\n        /* \"#utility.yul\":1296:1300   */\n      0x80\n        /* \"#utility.yul\":1284:1301   */\n      dup1\n      dup6\n      add\n        /* \"#utility.yul\":1278:1302   */\n      mload\n        /* \"#utility.yul\":1274:1307   */\n      dup4\n      and\n        /* \"#utility.yul\":1252:1272   */\n      swap1\n      dup3\n      add\n        /* \"#utility.yul\":1245:1308   */\n      mstore\n        /* \"#utility.yul\":1102:1105   */\n      0xa0\n        /* \"#utility.yul\":1356:1373   */\n      swap4\n      dup5\n      add\n        /* \"#utility.yul\":1350:1374   */\n      mload\n        /* \"#utility.yul\":1346:1379   */\n      swap1\n      swap2\n      and\n        /* \"#utility.yul\":1324:1344   */\n      swap3\n      dup2\n      add\n        /* \"#utility.yul\":1317:1380   */\n      swap3\n      swap1\n      swap3\n      mstore\n        /* \"#utility.yul\":1411:1414   */\n      0xc0\n        /* \"#utility.yul\":1396:1415   */\n      dup3\n      add\n        /* \"#utility.yul\":1389:1424   */\n      mstore\n        /* \"#utility.yul\":914:917   */\n      0xe0\n        /* \"#utility.yul\":899:918   */\n      add\n        /* \"src/Loopso.sol\":624:680  mapping(bytes32  => TokenTransfer) public tokenTransfers */\n      tag_31\n        /* \"#utility.yul\":682:1430   */\n      jump\n        /* \"lib/openzeppelin-contracts/contracts/access/AccessControl.sol\":3810:3930  function getRoleAdmin(bytes32 role) public view virtual returns (bytes32) {... */\n    tag_5:\n      tag_39\n      tag_40\n      calldatasize\n      0x04\n      tag_35\n      jump\t// in\n    tag_40:\n        /* \"lib/openzeppelin-contracts/contracts/access/AccessControl.sol\":3875:3882  bytes32 */\n      0x00\n        /* \"lib/openzeppelin-contracts/contracts/access/AccessControl.sol\":3901:3913  _roles[role] */\n      swap1\n      dup2\n      mstore\n      0x20\n      dup2\n      swap1\n      mstore\n      0x40\n      swap1\n      keccak256\n        /* \"lib/openzeppelin-contracts/contracts/access/AccessControl.sol\":3901:3923  _roles[role].adminRole */\n      0x01\n      add\n      sload\n      swap1\n        /* \"lib/openzeppelin-contracts/contracts/access/AccessControl.sol\":3810:3930  function getRoleAdmin(bytes32 role) public view virtual returns (bytes32) {... */\n      jump\n    tag_39:\n      mload(0x40)\n        /* \"#utility.yul\":1581:1606   */\n      swap1\n      dup2\n      mstore\n        /* \"#utility.yul\":1569:1571   */\n      0x20\n        /* \"#utility.yul\":1554:1572   */\n      add\n        /* \"lib/openzeppelin-contracts/contracts/access/AccessControl.sol\":3810:3930  function getRoleAdmin(bytes32 role) public view virtual returns (bytes32) {... */\n      tag_31\n        /* \"#utility.yul\":1435:1612   */\n      jump\n        /* \"lib/openzeppelin-contracts/contracts/access/AccessControl.sol\":4226:4362  function grantRole(bytes32 role, address account) public virtual onlyRole(getRoleAdmin(role)) {... */\n    tag_6:\n      tag_44\n      tag_45\n      calldatasize\n      0x04\n      tag_46\n      jump\t// in\n    tag_45:\n      tag_47\n      jump\t// in\n    tag_44:\n      stop\n        /* \"src/Loopso.sol\":4502:4720  function setTokenFactory(ITokenFactory _tokenFactory) external onlyAdmin {... */\n    tag_7:\n      tag_44\n      tag_49\n      calldatasize\n      0x04\n      tag_50\n      jump\t// in\n    tag_49:\n      tag_51\n      jump\t// in\n        /* \"src/Loopso.sol\":1077:1744  function attestToken(TokenAttestation memory attestation) external onlyAdmin {... */\n    tag_8:\n      tag_44\n      tag_53\n      calldatasize\n      0x04\n      tag_54\n      jump\t// in\n    tag_53:\n      tag_55\n      jump\t// in\n        /* \"src/Loopso.sol\":1750:2859  function bridgeTokens(... */\n    tag_9:\n      tag_44\n      tag_57\n      calldatasize\n      0x04\n      tag_58\n      jump\t// in\n    tag_57:\n      tag_59\n      jump\t// in\n        /* \"lib/openzeppelin-contracts/contracts/access/AccessControl.sol\":5328:5573  function renounceRole(bytes32 role, address callerConfirmation) public virtual {... */\n    tag_10:\n      tag_44\n      tag_61\n      calldatasize\n      0x04\n      tag_46\n      jump\t// in\n    tag_61:\n      tag_62\n      jump\t// in\n        /* \"src/Loopso.sol\":2865:3004  function bridgeNonFungibleTokens(address _token, uint256 _tokenID, uint256 _dstChain, address _dstAddress) external {... */\n    tag_11:\n      tag_44\n      tag_64\n      calldatasize\n      0x04\n      tag_58\n      jump\t// in\n    tag_64:\n        /* \"lib/openzeppelin-contracts/contracts/access/AccessControl.sol\":4330:4355  _grantRole(role, account) */\n      pop\n        /* \"lib/openzeppelin-contracts/contracts/access/AccessControl.sol\":4226:4362  function grantRole(bytes32 role, address account) public virtual onlyRole(getRoleAdmin(role)) {... */\n      pop\n      pop\n      pop\n      jump\n        /* \"src/Loopso.sol\":4210:4422  function releaseTokens(uint256 _amount, address _to, address _token) external onlyRelayer {... */\n    tag_13:\n      tag_44\n      tag_69\n      calldatasize\n      0x04\n      tag_70\n      jump\t// in\n    tag_69:\n      tag_71\n      jump\t// in\n        /* \"src/Loopso.sol\":3010:3507  function bridgeTokensBack(uint256 _amount, address _to, bytes32 _tokenID) external {... */\n    tag_14:\n      tag_44\n      tag_73\n      calldatasize\n      0x04\n      tag_74\n      jump\t// in\n    tag_73:\n      tag_75\n      jump\t// in\n        /* \"src/Loopso.sol\":509:567  mapping(bytes32 => TokenAttestation) public attestedTokens */\n    tag_15:\n      tag_76\n      tag_77\n      calldatasize\n      0x04\n      tag_35\n      jump\t// in\n    tag_77:\n      tag_78\n      jump\t// in\n    tag_76:\n      mload(0x40)\n      tag_31\n      swap8\n      swap7\n      swap6\n      swap5\n      swap4\n      swap3\n      swap2\n      swap1\n      tag_80\n      jump\t// in\n        /* \"lib/openzeppelin-contracts/contracts/access/AccessControl.sol\":2854:2990  function hasRole(bytes32 role, address account) public view virtual returns (bool) {... */\n    tag_16:\n      tag_27\n      tag_82\n      calldatasize\n      0x04\n      tag_46\n      jump\t// in\n    tag_82:\n      tag_83\n      jump\t// in\n        /* \"src/Loopso.sol\":398:462  bytes32 public constant RELAYER_ROLE = keccak256(\"RELAYER_ROLE\") */\n    tag_17:\n      tag_39\n        /* \"src/Loopso.sol\":437:462  keccak256(\"RELAYER_ROLE\") */\n      0xe2b7fb3b832174769106daebcfd6d1970523240dda11281102db9363b83b0dc4\n        /* \"src/Loopso.sol\":398:462  bytes32 public constant RELAYER_ROLE = keccak256(\"RELAYER_ROLE\") */\n      dup2\n      jump\n        /* \"src/Loopso.sol\":3590:4123  function releaseWrappedTokens(uint256 _amount, address _to, bytes32 _tokenID) external onlyRelayer {... */\n    tag_18:\n      tag_44\n      tag_89\n      calldatasize\n      0x04\n      tag_74\n      jump\t// in\n    tag_89:\n      tag_90\n      jump\t// in\n        /* \"lib/openzeppelin-contracts/contracts/access/AccessControl.sol\":2187:2236  bytes32 public constant DEFAULT_ADMIN_ROLE = 0x00 */\n    tag_19:\n      tag_39\n        /* \"lib/openzeppelin-contracts/contracts/access/AccessControl.sol\":2232:2236  0x00 */\n      0x00\n        /* \"lib/openzeppelin-contracts/contracts/access/AccessControl.sol\":2187:2236  bytes32 public constant DEFAULT_ADMIN_ROLE = 0x00 */\n      dup2\n      jump\n        /* \"lib/openzeppelin-contracts/contracts/access/AccessControl.sol\":4642:4780  function revokeRole(bytes32 role, address account) public virtual onlyRole(getRoleAdmin(role)) {... */\n    tag_20:\n      tag_44\n      tag_95\n      calldatasize\n      0x04\n      tag_46\n      jump\t// in\n    tag_95:\n      tag_96\n      jump\t// in\n        /* \"src/Loopso.sol\":735:768  ITokenFactory public tokenFactory */\n    tag_21:\n      sload(0x03)\n      tag_97\n      swap1\n      sub(shl(0xa0, 0x01), 0x01)\n      and\n      dup2\n      jump\n    tag_97:\n      mload(0x40)\n      sub(shl(0xa0, 0x01), 0x01)\n        /* \"#utility.yul\":8128:8160   */\n      swap1\n      swap2\n      and\n        /* \"#utility.yul\":8110:8161   */\n      dup2\n      mstore\n        /* \"#utility.yul\":8098:8100   */\n      0x20\n        /* \"#utility.yul\":8083:8101   */\n      add\n        /* \"src/Loopso.sol\":735:768  ITokenFactory public tokenFactory */\n      tag_31\n        /* \"#utility.yul\":7942:8167   */\n      jump\n        /* \"lib/openzeppelin-contracts/contracts/access/AccessControl.sol\":2565:2767  function supportsInterface(bytes4 interfaceId) public view virtual override returns (bool) {... */\n    tag_30:\n        /* \"lib/openzeppelin-contracts/contracts/access/AccessControl.sol\":2650:2654  bool */\n      0x00\n      not(sub(shl(0xe0, 0x01), 0x01))\n        /* \"lib/openzeppelin-contracts/contracts/access/AccessControl.sol\":2673:2720  interfaceId == type(IAccessControl).interfaceId */\n      dup3\n      and\n      shl(0xe0, 0x7965db0b)\n      eq\n      dup1\n        /* \"lib/openzeppelin-contracts/contracts/access/AccessControl.sol\":2673:2760  interfaceId == type(IAccessControl).interfaceId || super.supportsInterface(interfaceId) */\n      tag_107\n      jumpi\n      pop\n      shl(0xe0, 0x01ffc9a7)\n      not(sub(shl(0xe0, 0x01), 0x01))\n        /* \"lib/openzeppelin-contracts/contracts/utils/introspection/ERC165.sol\":861:901  interfaceId == type(IERC165).interfaceId */\n      dup4\n      and\n      eq\n        /* \"lib/openzeppelin-contracts/contracts/access/AccessControl.sol\":2724:2760  super.supportsInterface(interfaceId) */\n    tag_107:\n        /* \"lib/openzeppelin-contracts/contracts/access/AccessControl.sol\":2666:2760  return interfaceId == type(IAccessControl).interfaceId || super.supportsInterface(interfaceId) */\n      swap3\n        /* \"lib/openzeppelin-contracts/contracts/access/AccessControl.sol\":2565:2767  function supportsInterface(bytes4 interfaceId) public view virtual override returns (bool) {... */\n      swap2\n      pop\n      pop\n      jump\t// out\n        /* \"lib/openzeppelin-contracts/contracts/access/AccessControl.sol\":4226:4362  function grantRole(bytes32 role, address account) public virtual onlyRole(getRoleAdmin(role)) {... */\n    tag_47:\n        /* \"lib/openzeppelin-contracts/contracts/access/AccessControl.sol\":3875:3882  bytes32 */\n      0x00\n        /* \"lib/openzeppelin-contracts/contracts/access/AccessControl.sol\":3901:3913  _roles[role] */\n      dup3\n      dup2\n      mstore\n      0x20\n      dup2\n      swap1\n      mstore\n      0x40\n      swap1\n      keccak256\n        /* \"lib/openzeppelin-contracts/contracts/access/AccessControl.sol\":3901:3923  _roles[role].adminRole */\n      0x01\n      add\n      sload\n        /* \"lib/openzeppelin-contracts/contracts/access/AccessControl.sol\":2464:2480  _checkRole(role) */\n      tag_112\n        /* \"lib/openzeppelin-contracts/contracts/access/AccessControl.sol\":2475:2479  role */\n      dup2\n        /* \"lib/openzeppelin-contracts/contracts/access/AccessControl.sol\":2464:2474  _checkRole */\n      tag_113\n        /* \"lib/openzeppelin-contracts/contracts/access/AccessControl.sol\":2464:2480  _checkRole(role) */\n      jump\t// in\n    tag_112:\n        /* \"lib/openzeppelin-contracts/contracts/access/AccessControl.sol\":4330:4355  _grantRole(role, account) */\n      tag_64\n        /* \"lib/openzeppelin-contracts/contracts/access/AccessControl.sol\":4341:4345  role */\n      dup4\n        /* \"lib/openzeppelin-contracts/contracts/access/AccessControl.sol\":4347:4354  account */\n      dup4\n        /* \"lib/openzeppelin-contracts/contracts/access/AccessControl.sol\":4330:4340  _grantRole */\n      tag_116\n        /* \"lib/openzeppelin-contracts/contracts/access/AccessControl.sol\":4330:4355  _grantRole(role, account) */\n      jump\t// in\n        /* \"src/Loopso.sol\":4502:4720  function setTokenFactory(ITokenFactory _tokenFactory) external onlyAdmin {... */\n    tag_51:\n        /* \"src/Loopso.sol\":942:972  _checkRole(DEFAULT_ADMIN_ROLE) */\n      tag_118\n        /* \"lib/openzeppelin-contracts/contracts/access/AccessControl.sol\":2232:2236  0x00 */\n      0x00\n        /* \"src/Loopso.sol\":942:952  _checkRole */\n      tag_113\n        /* \"src/Loopso.sol\":942:972  _checkRole(DEFAULT_ADMIN_ROLE) */\n      jump\t// in\n    tag_118:\n      sub(shl(0xa0, 0x01), 0x01)\n        /* \"src/Loopso.sol\":4593:4629  address(_tokenFactory) != address(0) */\n      dup2\n      and\n        /* \"src/Loopso.sol\":4585:4675  require(address(_tokenFactory) != address(0), \"Can't set LSP Factory to the zero address\") */\n      tag_120\n      jumpi\n      mload(0x40)\n      shl(0xe5, 0x461bcd)\n      dup2\n      mstore\n        /* \"#utility.yul\":8374:8376   */\n      0x20\n        /* \"src/Loopso.sol\":4585:4675  require(address(_tokenFactory) != address(0), \"Can't set LSP Factory to the zero address\") */\n      0x04\n      dup3\n      add\n        /* \"#utility.yul\":8356:8377   */\n      mstore\n        /* \"#utility.yul\":8413:8415   */\n      0x29\n        /* \"#utility.yul\":8393:8411   */\n      0x24\n      dup3\n      add\n        /* \"#utility.yul\":8386:8416   */\n      mstore\n        /* \"#utility.yul\":8452:8486   */\n      0x43616e277420736574204c535020466163746f727920746f20746865207a6572\n        /* \"#utility.yul\":8432:8450   */\n      0x44\n      dup3\n      add\n        /* \"#utility.yul\":8425:8487   */\n      mstore\n      shl(0xb8, 0x6f2061646472657373)\n        /* \"#utility.yul\":8503:8521   */\n      0x64\n      dup3\n      add\n        /* \"#utility.yul\":8496:8535   */\n      mstore\n        /* \"#utility.yul\":8552:8571   */\n      0x84\n      add\n        /* \"src/Loopso.sol\":4585:4675  require(address(_tokenFactory) != address(0), \"Can't set LSP Factory to the zero address\") */\n    tag_121:\n      mload(0x40)\n      dup1\n      swap2\n      sub\n      swap1\n      revert\n    tag_120:\n        /* \"src/Loopso.sol\":4685:4697  tokenFactory */\n      0x03\n        /* \"src/Loopso.sol\":4685:4713  tokenFactory = _tokenFactory */\n      dup1\n      sload\n      not(sub(shl(0xa0, 0x01), 0x01))\n      and\n      sub(shl(0xa0, 0x01), 0x01)\n      swap3\n      swap1\n      swap3\n      and\n      swap2\n      swap1\n      swap2\n      or\n      swap1\n      sstore\n        /* \"src/Loopso.sol\":4502:4720  function setTokenFactory(ITokenFactory _tokenFactory) external onlyAdmin {... */\n      jump\t// out\n        /* \"src/Loopso.sol\":1077:1744  function attestToken(TokenAttestation memory attestation) external onlyAdmin {... */\n    tag_55:\n        /* \"src/Loopso.sol\":942:972  _checkRole(DEFAULT_ADMIN_ROLE) */\n      tag_124\n        /* \"lib/openzeppelin-contracts/contracts/access/AccessControl.sol\":2232:2236  0x00 */\n      0x00\n        /* \"src/Loopso.sol\":942:952  _checkRole */\n      tag_113\n        /* \"src/Loopso.sol\":942:972  _checkRole(DEFAULT_ADMIN_ROLE) */\n      jump\t// in\n    tag_124:\n        /* \"src/Loopso.sol\":1164:1188  address _newTokenAddress */\n      0x00\n      dup1\n        /* \"src/Loopso.sol\":1203:1214  attestation */\n      dup3\n        /* \"src/Loopso.sol\":1203:1224  attestation.tokenType */\n      0x40\n      add\n      mload\n        /* \"src/Loopso.sol\":1203:1246  attestation.tokenType == TokenType.Fungible */\n      0x01\n      dup2\n      gt\n      iszero\n      tag_130\n      jumpi\n      tag_130\n      tag_128\n      jump\t// in\n    tag_130:\n      sub\n        /* \"src/Loopso.sol\":1199:1470  if (attestation.tokenType == TokenType.Fungible) {... */\n      tag_131\n      jumpi\n        /* \"src/Loopso.sol\":1281:1293  tokenFactory */\n      sload(0x03)\n        /* \"src/Loopso.sol\":1308:1324  attestation.name */\n      0xa0\n      dup4\n      add\n      mload\n        /* \"src/Loopso.sol\":1326:1344  attestation.symbol */\n      0x80\n      dup5\n      add\n      mload\n        /* \"src/Loopso.sol\":1281:1345  tokenFactory.createNewLSP7(attestation.name, attestation.symbol) */\n      mload(0x40)\n      shl(0xe0, 0x8fe59807)\n      dup2\n      mstore\n      sub(shl(0xa0, 0x01), 0x01)\n        /* \"src/Loopso.sol\":1281:1293  tokenFactory */\n      swap1\n      swap4\n      and\n      swap3\n        /* \"src/Loopso.sol\":1281:1307  tokenFactory.createNewLSP7 */\n      0x8fe59807\n      swap3\n        /* \"src/Loopso.sol\":1281:1345  tokenFactory.createNewLSP7(attestation.name, attestation.symbol) */\n      tag_132\n      swap3\n        /* \"src/Loopso.sol\":1308:1324  attestation.name */\n      swap1\n      swap2\n        /* \"src/Loopso.sol\":1281:1345  tokenFactory.createNewLSP7(attestation.name, attestation.symbol) */\n      0x04\n      add\n      tag_133\n      jump\t// in\n    tag_132:\n      0x20\n      mload(0x40)\n      dup1\n      dup4\n      sub\n      dup2\n      0x00\n      dup8\n      gas\n      call\n      iszero\n      dup1\n      iszero\n      tag_135\n      jumpi\n      returndatasize\n      0x00\n      dup1\n      returndatacopy\n      revert(0x00, returndatasize)\n    tag_135:\n      pop\n      pop\n      pop\n      pop\n      mload(0x40)\n      returndatasize\n      not(0x1f)\n      0x1f\n      dup3\n      add\n      and\n      dup3\n      add\n      dup1\n      0x40\n      mstore\n      pop\n      dup2\n      add\n      swap1\n      tag_136\n      swap2\n      swap1\n      tag_137\n      jump\t// in\n    tag_136:\n        /* \"src/Loopso.sol\":1262:1345  _newTokenAddress = tokenFactory.createNewLSP7(attestation.name, attestation.symbol) */\n      swap1\n      pop\n        /* \"src/Loopso.sol\":1199:1470  if (attestation.tokenType == TokenType.Fungible) {... */\n      jump(tag_138)\n    tag_131:\n        /* \"src/Loopso.sol\":1395:1407  tokenFactory */\n      sload(0x03)\n        /* \"src/Loopso.sol\":1422:1438  attestation.name */\n      0xa0\n      dup4\n      add\n      mload\n        /* \"src/Loopso.sol\":1440:1458  attestation.symbol */\n      0x80\n      dup5\n      add\n      mload\n        /* \"src/Loopso.sol\":1395:1459  tokenFactory.createNewLSP8(attestation.name, attestation.symbol) */\n      mload(0x40)\n      shl(0xe0, 0xc2c2b31f)\n      dup2\n      mstore\n      sub(shl(0xa0, 0x01), 0x01)\n        /* \"src/Loopso.sol\":1395:1407  tokenFactory */\n      swap1\n      swap4\n      and\n      swap3\n        /* \"src/Loopso.sol\":1395:1421  tokenFactory.createNewLSP8 */\n      0xc2c2b31f\n      swap3\n        /* \"src/Loopso.sol\":1395:1459  tokenFactory.createNewLSP8(attestation.name, attestation.symbol) */\n      tag_139\n      swap3\n        /* \"src/Loopso.sol\":1422:1438  attestation.name */\n      swap1\n      swap2\n        /* \"src/Loopso.sol\":1395:1459  tokenFactory.createNewLSP8(attestation.name, attestation.symbol) */\n      0x04\n      add\n      tag_133\n      jump\t// in\n    tag_139:\n      0x20\n      mload(0x40)\n      dup1\n      dup4\n      sub\n      dup2\n      0x00\n      dup8\n      gas\n      call\n      iszero\n      dup1\n      iszero\n      tag_141\n      jumpi\n      returndatasize\n      0x00\n      dup1\n      returndatacopy\n      revert(0x00, returndatasize)\n    tag_141:\n      pop\n      pop\n      pop\n      pop\n      mload(0x40)\n      returndatasize\n      not(0x1f)\n      0x1f\n      dup3\n      add\n      and\n      dup3\n      add\n      dup1\n      0x40\n      mstore\n      pop\n      dup2\n      add\n      swap1\n      tag_142\n      swap2\n      swap1\n      tag_137\n      jump\t// in\n    tag_142:\n        /* \"src/Loopso.sol\":1376:1459  _newTokenAddress = tokenFactory.createNewLSP8(attestation.name, attestation.symbol) */\n      swap1\n      pop\n        /* \"src/Loopso.sol\":1199:1470  if (attestation.tokenType == TokenType.Fungible) {... */\n    tag_138:\n      sub(shl(0xa0, 0x01), 0x01)\n        /* \"src/Loopso.sol\":1480:1530  attestation.wrappedTokenAddress = _newTokenAddress */\n      dup2\n      and\n        /* \"src/Loopso.sol\":1480:1511  attestation.wrappedTokenAddress */\n      0xc0\n      dup4\n      add\n        /* \"src/Loopso.sol\":1480:1530  attestation.wrappedTokenAddress = _newTokenAddress */\n      mstore\n        /* \"src/Loopso.sol\":1591:1615  attestation.tokenAddress */\n      dup2\n      mload\n        /* \"src/Loopso.sol\":1617:1639  attestation.tokenChain */\n      0x20\n      dup1\n      dup5\n      add\n      mload\n        /* \"src/Loopso.sol\":1574:1640  abi.encodePacked(attestation.tokenAddress, attestation.tokenChain) */\n      mload(0x40)\n        /* \"src/Loopso.sol\":1540:1561  bytes32 attestationID */\n      0x00\n      swap4\n        /* \"src/Loopso.sol\":1574:1640  abi.encodePacked(attestation.tokenAddress, attestation.tokenChain) */\n      tag_143\n      swap4\n        /* \"src/Loopso.sol\":1591:1615  attestation.tokenAddress */\n      swap1\n      swap3\n        /* \"src/Loopso.sol\":1617:1639  attestation.tokenChain */\n      swap2\n        /* \"src/Loopso.sol\":1574:1640  abi.encodePacked(attestation.tokenAddress, attestation.tokenChain) */\n      add\n        /* \"#utility.yul\":9403:9405   */\n      0x60\n        /* \"#utility.yul\":9399:9414   */\n      swap3\n      swap1\n      swap3\n      shl\n      not(0xffffffffffffffffffffffff)\n        /* \"#utility.yul\":9395:9448   */\n      and\n        /* \"#utility.yul\":9383:9449   */\n      dup3\n      mstore\n        /* \"#utility.yul\":9474:9476   */\n      0x14\n        /* \"#utility.yul\":9465:9477   */\n      dup3\n      add\n        /* \"#utility.yul\":9458:9486   */\n      mstore\n        /* \"#utility.yul\":9511:9513   */\n      0x34\n        /* \"#utility.yul\":9502:9514   */\n      add\n      swap1\n        /* \"#utility.yul\":9226:9520   */\n      jump\n        /* \"src/Loopso.sol\":1574:1640  abi.encodePacked(attestation.tokenAddress, attestation.tokenChain) */\n    tag_143:\n      0x40\n      dup1\n      mload\n      dup1\n      dup4\n      sub\n      not(0x1f)\n      add\n      dup2\n      mstore\n      swap2\n      dup2\n      mstore\n        /* \"src/Loopso.sol\":1564:1641  keccak256(abi.encodePacked(attestation.tokenAddress, attestation.tokenChain)) */\n      dup2\n      mload\n        /* \"src/Loopso.sol\":1574:1640  abi.encodePacked(attestation.tokenAddress, attestation.tokenChain) */\n      0x20\n        /* \"src/Loopso.sol\":1564:1641  keccak256(abi.encodePacked(attestation.tokenAddress, attestation.tokenChain)) */\n      swap3\n      dup4\n      add\n      keccak256\n        /* \"src/Loopso.sol\":1651:1680  attestedTokens[attestationID] */\n      0x00\n      dup2\n      dup2\n      mstore\n        /* \"src/Loopso.sol\":1651:1665  attestedTokens */\n      0x01\n        /* \"src/Loopso.sol\":1651:1680  attestedTokens[attestationID] */\n      dup1\n      dup6\n      mstore\n      swap1\n      dup4\n      swap1\n      keccak256\n        /* \"src/Loopso.sol\":1651:1694  attestedTokens[attestationID] = attestation */\n      dup8\n      mload\n      dup2\n      sload\n      not(sub(shl(0xa0, 0x01), 0x01))\n      and\n      sub(shl(0xa0, 0x01), 0x01)\n      swap1\n      swap2\n      and\n      or\n      dup2\n      sstore\n      swap4\n      dup8\n      add\n      mload\n      dup5\n      dup3\n      add\n      sstore\n      swap2\n      dup7\n      add\n      mload\n      0x02\n      dup5\n      add\n      dup1\n      sload\n        /* \"src/Loopso.sol\":1564:1641  keccak256(abi.encodePacked(attestation.tokenAddress, attestation.tokenChain)) */\n      swap3\n      swap6\n      pop\n        /* \"src/Loopso.sol\":1651:1694  attestedTokens[attestationID] = attestation */\n      dup8\n      swap5\n        /* \"src/Loopso.sol\":1651:1680  attestedTokens[attestationID] */\n      swap4\n        /* \"src/Loopso.sol\":1651:1694  attestedTokens[attestationID] = attestation */\n      swap2\n      swap3\n      swap1\n      swap2\n      not(0xff)\n      swap1\n      swap2\n      and\n      swap1\n      dup4\n      dup2\n      dup2\n      gt\n      iszero\n      tag_146\n      jumpi\n      tag_146\n      tag_128\n      jump\t// in\n    tag_146:\n      mul\n      or\n      swap1\n      sstore\n      pop\n      0x60\n      dup3\n      add\n      mload\n      0x02\n      dup3\n      add\n      dup1\n      sload\n      0xff\n      swap1\n      swap3\n      and\n      0x0100\n      mul\n      not(0xff00)\n      swap1\n      swap3\n      and\n      swap2\n      swap1\n      swap2\n      or\n      swap1\n      sstore\n      0x80\n      dup3\n      add\n      mload\n      0x03\n      dup3\n      add\n      swap1\n      tag_147\n      swap1\n      dup3\n      tag_148\n      jump\t// in\n    tag_147:\n      pop\n      0xa0\n      dup3\n      add\n      mload\n      0x04\n      dup3\n      add\n      swap1\n      tag_149\n      swap1\n      dup3\n      tag_148\n      jump\t// in\n    tag_149:\n      pop\n      0xc0\n      swap2\n      swap1\n      swap2\n      add\n      mload\n      0x05\n      swap1\n      swap2\n      add\n      dup1\n      sload\n      not(sub(shl(0xa0, 0x01), 0x01))\n      and\n      sub(shl(0xa0, 0x01), 0x01)\n      swap1\n      swap3\n      and\n      swap2\n      swap1\n      swap2\n      or\n      swap1\n      sstore\n        /* \"src/Loopso.sol\":1709:1737  TokenAttested(attestationID) */\n      mload(0x40)\n        /* \"src/Loopso.sol\":1723:1736  attestationID */\n      dup2\n      swap1\n        /* \"src/Loopso.sol\":1709:1737  TokenAttested(attestationID) */\n      0xa755bee123b19cfd95f30d3bed835ac8dab8a08f893508aa86140d1b66c77e13\n      swap1\n      0x00\n      swap1\n      log2\n        /* \"src/Loopso.sol\":1154:1744  {... */\n      pop\n      pop\n        /* \"src/Loopso.sol\":1077:1744  function attestToken(TokenAttestation memory attestation) external onlyAdmin {... */\n      pop\n      jump\t// out\n        /* \"src/Loopso.sol\":1750:2859  function bridgeTokens(... */\n    tag_59:\n        /* \"src/Loopso.sol\":2056:2119  IERC20(_token).transferFrom(msg.sender, address(this), _amount) */\n      mload(0x40)\n      shl(0xe0, 0x23b872dd)\n      dup2\n      mstore\n        /* \"src/Loopso.sol\":2084:2094  msg.sender */\n      caller\n        /* \"src/Loopso.sol\":2056:2119  IERC20(_token).transferFrom(msg.sender, address(this), _amount) */\n      0x04\n      dup3\n      add\n        /* \"#utility.yul\":12320:12354   */\n      mstore\n        /* \"src/Loopso.sol\":2104:2108  this */\n      address\n        /* \"#utility.yul\":12370:12388   */\n      0x24\n      dup3\n      add\n        /* \"#utility.yul\":12363:12406   */\n      mstore\n        /* \"#utility.yul\":12422:12440   */\n      0x44\n      dup2\n      add\n        /* \"#utility.yul\":12415:12449   */\n      dup5\n      swap1\n      mstore\n        /* \"src/Loopso.sol\":2041:2053  bool success */\n      0x00\n      swap1\n      sub(shl(0xa0, 0x01), 0x01)\n        /* \"src/Loopso.sol\":2056:2083  IERC20(_token).transferFrom */\n      dup7\n      and\n      swap1\n      0x23b872dd\n      swap1\n        /* \"#utility.yul\":12255:12273   */\n      0x64\n      add\n        /* \"src/Loopso.sol\":2056:2119  IERC20(_token).transferFrom(msg.sender, address(this), _amount) */\n      0x20\n      mload(0x40)\n      dup1\n      dup4\n      sub\n      dup2\n      0x00\n      dup8\n      gas\n      call\n      iszero\n      dup1\n      iszero\n      tag_154\n      jumpi\n      returndatasize\n      0x00\n      dup1\n      returndatacopy\n      revert(0x00, returndatasize)\n    tag_154:\n      pop\n      pop\n      pop\n      pop\n      mload(0x40)\n      returndatasize\n      not(0x1f)\n      0x1f\n      dup3\n      add\n      and\n      dup3\n      add\n      dup1\n      0x40\n      mstore\n      pop\n      dup2\n      add\n      swap1\n      tag_155\n      swap2\n      swap1\n      tag_156\n      jump\t// in\n    tag_155:\n        /* \"src/Loopso.sol\":2041:2119  bool success = IERC20(_token).transferFrom(msg.sender, address(this), _amount) */\n      swap1\n      pop\n        /* \"src/Loopso.sol\":2137:2144  success */\n      dup1\n        /* \"src/Loopso.sol\":2129:2211  require(success, \"Transfer failed. Make sure bridge is approved to spend tokens.\") */\n      tag_157\n      jumpi\n      mload(0x40)\n      shl(0xe5, 0x461bcd)\n      dup2\n      mstore\n        /* \"#utility.yul\":12944:12946   */\n      0x20\n        /* \"src/Loopso.sol\":2129:2211  require(success, \"Transfer failed. Make sure bridge is approved to spend tokens.\") */\n      0x04\n      dup3\n      add\n        /* \"#utility.yul\":12926:12947   */\n      mstore\n        /* \"#utility.yul\":12983:12985   */\n      0x3e\n        /* \"#utility.yul\":12963:12981   */\n      0x24\n      dup3\n      add\n        /* \"#utility.yul\":12956:12986   */\n      mstore\n        /* \"#utility.yul\":13022:13056   */\n      0x5472616e73666572206661696c65642e204d616b652073757265206272696467\n        /* \"#utility.yul\":13002:13020   */\n      0x44\n      dup3\n      add\n        /* \"#utility.yul\":12995:13057   */\n      mstore\n        /* \"#utility.yul\":13093:13125   */\n      0x6520697320617070726f76656420746f207370656e6420746f6b656e732e0000\n        /* \"#utility.yul\":13073:13091   */\n      0x64\n      dup3\n      add\n        /* \"#utility.yul\":13066:13126   */\n      mstore\n        /* \"#utility.yul\":13143:13162   */\n      0x84\n      add\n        /* \"src/Loopso.sol\":2129:2211  require(success, \"Transfer failed. Make sure bridge is approved to spend tokens.\") */\n      tag_121\n        /* \"#utility.yul\":12742:13168   */\n      jump\n        /* \"src/Loopso.sol\":2129:2211  require(success, \"Transfer failed. Make sure bridge is approved to spend tokens.\") */\n    tag_157:\n        /* \"src/Loopso.sol\":2296:2557  TokenTransfer(... */\n      0x40\n      dup1\n      mload\n        /* \"src/Loopso.sol\":2323:2526  TokenTransferBase(... */\n      0x0100\n      dup2\n      add\n      dup3\n      mstore\n        /* \"src/Loopso.sol\":2358:2373  block.timestamp */\n      timestamp\n        /* \"src/Loopso.sol\":2296:2557  TokenTransfer(... */\n      dup2\n      dup4\n      add\n        /* \"src/Loopso.sol\":2323:2526  TokenTransferBase(... */\n      dup2\n      dup2\n      mstore\n        /* \"src/Loopso.sol\":2391:2404  block.chainid */\n      chainid\n        /* \"src/Loopso.sol\":2323:2526  TokenTransferBase(... */\n      0x60\n      dup1\n      dup6\n      add\n      dup3\n      swap1\n      mstore\n        /* \"src/Loopso.sol\":2422:2432  msg.sender */\n      caller\n        /* \"src/Loopso.sol\":2323:2526  TokenTransferBase(... */\n      0x80\n      dup7\n      add\n      dup2\n      swap1\n      mstore\n      0xa0\n      dup7\n      add\n      dup11\n      swap1\n      mstore\n      sub(shl(0xa0, 0x01), 0x01)\n      dup10\n      dup2\n      and\n      0xc0\n      dup9\n      add\n      mstore\n      dup13\n      and\n      0xe0\n      dup8\n      add\n      mstore\n        /* \"src/Loopso.sol\":2296:2557  TokenTransfer(... */\n      swap3\n      dup6\n      mstore\n        /* \"src/Loopso.sol\":2323:2526  TokenTransferBase(... */\n      0x20\n        /* \"src/Loopso.sol\":2296:2557  TokenTransfer(... */\n      dup1\n      dup7\n      add\n      dup12\n      swap1\n      mstore\n        /* \"src/Loopso.sol\":2599:2696  abi.encodePacked(block.timestamp, block.chainid, msg.sender,_dstChain,_dstAddress,_token,_amount) */\n      dup7\n      mload\n      swap1\n      dup2\n      add\n        /* \"#utility.yul\":13470:13489   */\n      swap5\n      swap1\n      swap5\n      mstore\n        /* \"#utility.yul\":13505:13517   */\n      swap5\n      dup4\n      add\n        /* \"#utility.yul\":13498:13526   */\n      mstore\n      not(0xffffffffffffffffffffffff)\n        /* \"#utility.yul\":13610:13625   */\n      swap1\n      dup5\n      shl\n        /* \"#utility.yul\":13606:13630   */\n      dup2\n      and\n        /* \"#utility.yul\":13592:13604   */\n      dup3\n      dup6\n      add\n        /* \"#utility.yul\":13585:13631   */\n      mstore\n        /* \"#utility.yul\":13647:13659   */\n      0x74\n      dup3\n      add\n        /* \"#utility.yul\":13640:13668   */\n      dup8\n      swap1\n      mstore\n        /* \"#utility.yul\":13703:13718   */\n      dup6\n      dup5\n      shl\n        /* \"#utility.yul\":13699:13723   */\n      dup2\n      and\n        /* \"#utility.yul\":13684:13697   */\n      0x94\n      dup4\n      add\n        /* \"#utility.yul\":13677:13724   */\n      mstore\n        /* \"#utility.yul\":13759:13774   */\n      swap3\n      dup9\n      swap1\n      shl\n        /* \"#utility.yul\":13755:13779   */\n      swap1\n      swap3\n      and\n        /* \"#utility.yul\":13740:13753   */\n      0xa8\n      dup4\n      add\n        /* \"#utility.yul\":13733:13780   */\n      mstore\n        /* \"#utility.yul\":13796:13809   */\n      0xbc\n      dup3\n      add\n        /* \"#utility.yul\":13789:13818   */\n      dup7\n      swap1\n      mstore\n        /* \"src/Loopso.sol\":2296:2557  TokenTransfer(... */\n      swap1\n      0x00\n      swap1\n        /* \"#utility.yul\":13834:13847   */\n      0xdc\n      add\n        /* \"src/Loopso.sol\":2599:2696  abi.encodePacked(block.timestamp, block.chainid, msg.sender,_dstChain,_dstAddress,_token,_amount) */\n      0x40\n      dup1\n      mload\n      dup1\n      dup4\n      sub\n      not(0x1f)\n      add\n      dup2\n      mstore\n      dup3\n      dup3\n      mstore\n        /* \"src/Loopso.sol\":2589:2697  keccak256(abi.encodePacked(block.timestamp, block.chainid, msg.sender,_dstChain,_dstAddress,_token,_amount)) */\n      dup1\n      mload\n        /* \"src/Loopso.sol\":2599:2696  abi.encodePacked(block.timestamp, block.chainid, msg.sender,_dstChain,_dstAddress,_token,_amount) */\n      0x20\n        /* \"src/Loopso.sol\":2589:2697  keccak256(abi.encodePacked(block.timestamp, block.chainid, msg.sender,_dstChain,_dstAddress,_token,_amount)) */\n      swap2\n      dup3\n      add\n      keccak256\n        /* \"src/Loopso.sol\":2747:2774  tokenTransfers[_transferID] */\n      0x00\n      dup2\n      dup2\n      mstore\n        /* \"src/Loopso.sol\":2747:2761  tokenTransfers */\n      0x02\n        /* \"src/Loopso.sol\":2747:2774  tokenTransfers[_transferID] */\n      dup1\n      dup5\n      mstore\n      dup5\n      dup3\n      keccak256\n        /* \"src/Loopso.sol\":2747:2786  tokenTransfers[_transferID] = _transfer */\n      dup9\n      mload\n      dup1\n      mload\n      dup3\n      sstore\n      dup1\n      dup7\n      add\n      mload\n      0x01\n      dup4\n      add\n      sstore\n      swap6\n      dup7\n      add\n      mload\n      swap2\n      dup2\n      add\n      dup1\n      sload\n      not(sub(shl(0xa0, 0x01), 0x01))\n      swap1\n      dup2\n      and\n      sub(shl(0xa0, 0x01), 0x01)\n      swap5\n      dup6\n      and\n      or\n      swap1\n      swap2\n      sstore\n      0x60\n      dup8\n      add\n      mload\n      0x03\n      dup4\n      add\n      sstore\n      0x80\n      dup8\n      add\n      mload\n      0x04\n      dup4\n      add\n      dup1\n      sload\n      dup4\n      and\n      swap2\n      dup6\n      and\n      swap2\n      swap1\n      swap2\n      or\n      swap1\n      sstore\n      0xa0\n      swap1\n      swap7\n      add\n      mload\n      0x05\n      dup3\n      add\n      dup1\n      sload\n      swap1\n      swap8\n      and\n      swap3\n      and\n      swap2\n      swap1\n      swap2\n      or\n      swap1\n      swap5\n      sstore\n      swap2\n      dup7\n      add\n      mload\n      0x06\n      swap1\n      swap4\n      add\n      swap3\n      swap1\n      swap3\n      sstore\n        /* \"src/Loopso.sol\":2589:2697  keccak256(abi.encodePacked(block.timestamp, block.chainid, msg.sender,_dstChain,_dstAddress,_token,_amount)) */\n      swap1\n      swap3\n      pop\n      dup3\n      swap2\n        /* \"src/Loopso.sol\":2826:2852  TokensBridged(_transferID) */\n      0x911623f001224d5d44bba15e09f9764c38794e74d052085b3e24c04e05b7aed7\n      swap2\n        /* \"src/Loopso.sol\":2747:2774  tokenTransfers[_transferID] */\n      swap1\n        /* \"src/Loopso.sol\":2826:2852  TokensBridged(_transferID) */\n      log2\n        /* \"src/Loopso.sol\":1892:2859  {... */\n      pop\n      pop\n      pop\n        /* \"src/Loopso.sol\":1750:2859  function bridgeTokens(... */\n      pop\n      pop\n      pop\n      pop\n      jump\t// out\n        /* \"lib/openzeppelin-contracts/contracts/access/AccessControl.sol\":5328:5573  function renounceRole(bytes32 role, address callerConfirmation) public virtual {... */\n    tag_62:\n      sub(shl(0xa0, 0x01), 0x01)\n        /* \"lib/openzeppelin-contracts/contracts/access/AccessControl.sol\":5421:5455  callerConfirmation != _msgSender() */\n      dup2\n      and\n        /* \"lib/openzeppelin-contracts/contracts/utils/Context.sol\":735:745  msg.sender */\n      caller\n        /* \"lib/openzeppelin-contracts/contracts/access/AccessControl.sol\":5421:5455  callerConfirmation != _msgSender() */\n      eq\n        /* \"lib/openzeppelin-contracts/contracts/access/AccessControl.sol\":5417:5519  if (callerConfirmation != _msgSender()) {... */\n      tag_165\n      jumpi\n        /* \"lib/openzeppelin-contracts/contracts/access/AccessControl.sol\":5478:5508  AccessControlBadConfirmation() */\n      mload(0x40)\n      shl(0xe1, 0x334bd919)\n      dup2\n      mstore\n      0x04\n      add\n      mload(0x40)\n      dup1\n      swap2\n      sub\n      swap1\n      revert\n        /* \"lib/openzeppelin-contracts/contracts/access/AccessControl.sol\":5417:5519  if (callerConfirmation != _msgSender()) {... */\n    tag_165:\n        /* \"lib/openzeppelin-contracts/contracts/access/AccessControl.sol\":5529:5566  _revokeRole(role, callerConfirmation) */\n      tag_166\n        /* \"lib/openzeppelin-contracts/contracts/access/AccessControl.sol\":5541:5545  role */\n      dup3\n        /* \"lib/openzeppelin-contracts/contracts/access/AccessControl.sol\":5547:5565  callerConfirmation */\n      dup3\n        /* \"lib/openzeppelin-contracts/contracts/access/AccessControl.sol\":5529:5540  _revokeRole */\n      tag_167\n        /* \"lib/openzeppelin-contracts/contracts/access/AccessControl.sol\":5529:5566  _revokeRole(role, callerConfirmation) */\n      jump\t// in\n    tag_166:\n      pop\n        /* \"lib/openzeppelin-contracts/contracts/access/AccessControl.sol\":5328:5573  function renounceRole(bytes32 role, address callerConfirmation) public virtual {... */\n      pop\n      pop\n      jump\t// out\n        /* \"src/Loopso.sol\":4210:4422  function releaseTokens(uint256 _amount, address _to, address _token) external onlyRelayer {... */\n    tag_71:\n        /* \"src/Loopso.sol\":1029:1053  _checkRole(RELAYER_ROLE) */\n      tag_171\n        /* \"src/Loopso.sol\":437:462  keccak256(\"RELAYER_ROLE\") */\n      0xe2b7fb3b832174769106daebcfd6d1970523240dda11281102db9363b83b0dc4\n        /* \"src/Loopso.sol\":1029:1039  _checkRole */\n      tag_113\n        /* \"src/Loopso.sol\":1029:1053  _checkRole(RELAYER_ROLE) */\n      jump\t// in\n    tag_171:\n        /* \"src/Loopso.sol\":4325:4362  IERC20(_token).transfer(_to, _amount) */\n      mload(0x40)\n      shl(0xe0, 0xa9059cbb)\n      dup2\n      mstore\n      sub(shl(0xa0, 0x01), 0x01)\n        /* \"#utility.yul\":14050:14082   */\n      dup4\n      dup2\n      and\n        /* \"src/Loopso.sol\":4325:4362  IERC20(_token).transfer(_to, _amount) */\n      0x04\n      dup4\n      add\n        /* \"#utility.yul\":14032:14083   */\n      mstore\n        /* \"#utility.yul\":14099:14117   */\n      0x24\n      dup3\n      add\n        /* \"#utility.yul\":14092:14126   */\n      dup6\n      swap1\n      mstore\n        /* \"src/Loopso.sol\":4310:4322  bool success */\n      0x00\n      swap2\n        /* \"src/Loopso.sol\":4325:4348  IERC20(_token).transfer */\n      swap1\n      dup4\n      and\n      swap1\n      0xa9059cbb\n      swap1\n        /* \"#utility.yul\":14005:14023   */\n      0x44\n      add\n        /* \"src/Loopso.sol\":4325:4362  IERC20(_token).transfer(_to, _amount) */\n      0x20\n      mload(0x40)\n      dup1\n      dup4\n      sub\n      dup2\n      0x00\n      dup8\n      gas\n      call\n      iszero\n      dup1\n      iszero\n      tag_176\n      jumpi\n      returndatasize\n      0x00\n      dup1\n      returndatacopy\n      revert(0x00, returndatasize)\n    tag_176:\n      pop\n      pop\n      pop\n      pop\n      mload(0x40)\n      returndatasize\n      not(0x1f)\n      0x1f\n      dup3\n      add\n      and\n      dup3\n      add\n      dup1\n      0x40\n      mstore\n      pop\n      dup2\n      add\n      swap1\n      tag_177\n      swap2\n      swap1\n      tag_156\n      jump\t// in\n    tag_177:\n        /* \"src/Loopso.sol\":4310:4362  bool success = IERC20(_token).transfer(_to, _amount) */\n      swap1\n      pop\n        /* \"src/Loopso.sol\":4380:4387  success */\n      dup1\n        /* \"src/Loopso.sol\":4372:4415  require(success, \"Failed to payout tokens\") */\n      tag_64\n      jumpi\n      mload(0x40)\n      shl(0xe5, 0x461bcd)\n      dup2\n      mstore\n        /* \"#utility.yul\":14339:14341   */\n      0x20\n        /* \"src/Loopso.sol\":4372:4415  require(success, \"Failed to payout tokens\") */\n      0x04\n      dup3\n      add\n        /* \"#utility.yul\":14321:14342   */\n      mstore\n        /* \"#utility.yul\":14378:14380   */\n      0x17\n        /* \"#utility.yul\":14358:14376   */\n      0x24\n      dup3\n      add\n        /* \"#utility.yul\":14351:14381   */\n      mstore\n        /* \"#utility.yul\":14417:14442   */\n      0x4661696c656420746f207061796f757420746f6b656e73000000000000000000\n        /* \"#utility.yul\":14397:14415   */\n      0x44\n      dup3\n      add\n        /* \"#utility.yul\":14390:14443   */\n      mstore\n        /* \"#utility.yul\":14460:14478   */\n      0x64\n      add\n        /* \"src/Loopso.sol\":4372:4415  require(success, \"Failed to payout tokens\") */\n      tag_121\n        /* \"#utility.yul\":14137:14484   */\n      jump\n        /* \"src/Loopso.sol\":3010:3507  function bridgeTokensBack(uint256 _amount, address _to, bytes32 _tokenID) external {... */\n    tag_75:\n        /* \"src/Loopso.sol\":3136:3173  TokenAttestation memory attestedToken */\n      0x00\n        /* \"src/Loopso.sol\":3176:3200  attestedTokens[_tokenID] */\n      dup2\n      dup2\n      mstore\n        /* \"src/Loopso.sol\":3176:3190  attestedTokens */\n      0x01\n        /* \"src/Loopso.sol\":3176:3200  attestedTokens[_tokenID] */\n      0x20\n      dup2\n      dup2\n      mstore\n      0x40\n      dup1\n      dup5\n      keccak256\n        /* \"src/Loopso.sol\":3136:3200  TokenAttestation memory attestedToken = attestedTokens[_tokenID] */\n      dup2\n      mload\n      0xe0\n      dup2\n      add\n      dup4\n      mstore\n      dup2\n      sload\n      sub(shl(0xa0, 0x01), 0x01)\n      and\n      dup2\n      mstore\n      dup2\n      dup6\n      add\n      sload\n      swap4\n      dup2\n      add\n      swap4\n      swap1\n      swap4\n      mstore\n      0x02\n      dup2\n      add\n      sload\n      swap3\n      swap4\n        /* \"src/Loopso.sol\":3176:3200  attestedTokens[_tokenID] */\n      swap1\n      swap3\n        /* \"src/Loopso.sol\":3136:3200  TokenAttestation memory attestedToken = attestedTokens[_tokenID] */\n      swap2\n      dup5\n      add\n      swap2\n      0xff\n      and\n      swap1\n      dup2\n      gt\n      iszero\n      tag_183\n      jumpi\n      tag_183\n      tag_128\n      jump\t// in\n    tag_183:\n      0x01\n      dup2\n      gt\n      iszero\n      tag_185\n      jumpi\n      tag_185\n      tag_128\n      jump\t// in\n    tag_185:\n      dup2\n      mstore\n      0x02\n      dup3\n      add\n      sload\n      0x0100\n      swap1\n      div\n      0xff\n      and\n      0x20\n      dup3\n      add\n      mstore\n      0x03\n      dup3\n      add\n      dup1\n      sload\n      0x40\n      swap1\n      swap3\n      add\n      swap2\n      tag_186\n      swap1\n      tag_187\n      jump\t// in\n    tag_186:\n      dup1\n      0x1f\n      add\n      0x20\n      dup1\n      swap2\n      div\n      mul\n      0x20\n      add\n      mload(0x40)\n      swap1\n      dup2\n      add\n      0x40\n      mstore\n      dup1\n      swap3\n      swap2\n      swap1\n      dup2\n      dup2\n      mstore\n      0x20\n      add\n      dup3\n      dup1\n      sload\n      tag_188\n      swap1\n      tag_187\n      jump\t// in\n    tag_188:\n      dup1\n      iszero\n      tag_189\n      jumpi\n      dup1\n      0x1f\n      lt\n      tag_190\n      jumpi\n      0x0100\n      dup1\n      dup4\n      sload\n      div\n      mul\n      dup4\n      mstore\n      swap2\n      0x20\n      add\n      swap2\n      jump(tag_189)\n    tag_190:\n      dup3\n      add\n      swap2\n      swap1\n      0x00\n      mstore\n      keccak256(0x00, 0x20)\n      swap1\n    tag_191:\n      dup2\n      sload\n      dup2\n      mstore\n      swap1\n      0x01\n      add\n      swap1\n      0x20\n      add\n      dup1\n      dup4\n      gt\n      tag_191\n      jumpi\n      dup3\n      swap1\n      sub\n      0x1f\n      and\n      dup3\n      add\n      swap2\n    tag_189:\n      pop\n      pop\n      pop\n      pop\n      pop\n      dup2\n      mstore\n      0x20\n      add\n      0x04\n      dup3\n      add\n      dup1\n      sload\n      tag_192\n      swap1\n      tag_187\n      jump\t// in\n    tag_192:\n      dup1\n      0x1f\n      add\n      0x20\n      dup1\n      swap2\n      div\n      mul\n      0x20\n      add\n      mload(0x40)\n      swap1\n      dup2\n      add\n      0x40\n      mstore\n      dup1\n      swap3\n      swap2\n      swap1\n      dup2\n      dup2\n      mstore\n      0x20\n      add\n      dup3\n      dup1\n      sload\n      tag_193\n      swap1\n      tag_187\n      jump\t// in\n    tag_193:\n      dup1\n      iszero\n      tag_194\n      jumpi\n      dup1\n      0x1f\n      lt\n      tag_195\n      jumpi\n      0x0100\n      dup1\n      dup4\n      sload\n      div\n      mul\n      dup4\n      mstore\n      swap2\n      0x20\n      add\n      swap2\n      jump(tag_194)\n    tag_195:\n      dup3\n      add\n      swap2\n      swap1\n      0x00\n      mstore\n      keccak256(0x00, 0x20)\n      swap1\n    tag_196:\n      dup2\n      sload\n      dup2\n      mstore\n      swap1\n      0x01\n      add\n      swap1\n      0x20\n      add\n      dup1\n      dup4\n      gt\n      tag_196\n      jumpi\n      dup3\n      swap1\n      sub\n      0x1f\n      and\n      dup3\n      add\n      swap2\n    tag_194:\n      pop\n      pop\n      pop\n      swap2\n      dup4\n      mstore\n      pop\n      pop\n      0x05\n      swap2\n      swap1\n      swap2\n      add\n      sload\n      sub(shl(0xa0, 0x01), 0x01)\n      swap1\n      dup2\n      and\n      0x20\n      swap1\n      swap3\n      add\n      swap2\n      swap1\n      swap2\n      mstore\n        /* \"src/Loopso.sol\":3218:3244  attestedToken.tokenAddress */\n      dup2\n      mload\n        /* \"src/Loopso.sol\":3136:3200  TokenAttestation memory attestedToken = attestedTokens[_tokenID] */\n      swap2\n      swap3\n      pop\n        /* \"src/Loopso.sol\":3218:3258  attestedToken.tokenAddress != address(0) */\n      and\n        /* \"src/Loopso.sol\":3210:3279  require(attestedToken.tokenAddress != address(0), \"Invalid _tokenID\") */\n      tag_197\n      jumpi\n      mload(0x40)\n      shl(0xe5, 0x461bcd)\n      dup2\n      mstore\n        /* \"#utility.yul\":14691:14693   */\n      0x20\n        /* \"src/Loopso.sol\":3210:3279  require(attestedToken.tokenAddress != address(0), \"Invalid _tokenID\") */\n      0x04\n      dup3\n      add\n        /* \"#utility.yul\":14673:14694   */\n      mstore\n        /* \"#utility.yul\":14730:14732   */\n      0x10\n        /* \"#utility.yul\":14710:14728   */\n      0x24\n      dup3\n      add\n        /* \"#utility.yul\":14703:14733   */\n      mstore\n      shl(0x82, 0x125b9d985b1a590817dd1bdad95b9251)\n        /* \"#utility.yul\":14749:14767   */\n      0x44\n      dup3\n      add\n        /* \"#utility.yul\":14742:14788   */\n      mstore\n        /* \"#utility.yul\":14805:14823   */\n      0x64\n      add\n        /* \"src/Loopso.sol\":3210:3279  require(attestedToken.tokenAddress != address(0), \"Invalid _tokenID\") */\n      tag_121\n        /* \"#utility.yul\":14489:14829   */\n      jump\n        /* \"src/Loopso.sol\":3210:3279  require(attestedToken.tokenAddress != address(0), \"Invalid _tokenID\") */\n    tag_197:\n        /* \"src/Loopso.sol\":3338:3371  attestedToken.wrappedTokenAddress */\n      0xc0\n      dup2\n      add\n      mload\n        /* \"src/Loopso.sol\":3399:3411  new bytes(0) */\n      0x40\n      dup1\n      mload\n        /* \"src/Loopso.sol\":3409:3410  0 */\n      0x00\n        /* \"src/Loopso.sol\":3399:3411  new bytes(0) */\n      dup2\n      mstore\n      0x20\n      dup2\n      add\n      swap2\n      dup3\n      swap1\n      mstore\n      shl(0xe0, 0x44d17187)\n        /* \"src/Loopso.sol\":3325:3412  ILSP7Bridged(attestedToken.wrappedTokenAddress).burn(msg.sender, _amount, new bytes(0)) */\n      swap1\n      swap2\n      mstore\n      sub(shl(0xa0, 0x01), 0x01)\n        /* \"src/Loopso.sol\":3325:3377  ILSP7Bridged(attestedToken.wrappedTokenAddress).burn */\n      swap1\n      swap2\n      and\n      swap1\n      0x44d17187\n      swap1\n        /* \"src/Loopso.sol\":3325:3412  ILSP7Bridged(attestedToken.wrappedTokenAddress).burn(msg.sender, _amount, new bytes(0)) */\n      tag_204\n      swap1\n        /* \"src/Loopso.sol\":3378:3388  msg.sender */\n      caller\n      swap1\n        /* \"src/Loopso.sol\":3390:3397  _amount */\n      dup9\n      swap1\n        /* \"src/Loopso.sol\":3325:3412  ILSP7Bridged(attestedToken.wrappedTokenAddress).burn(msg.sender, _amount, new bytes(0)) */\n      0x24\n      dup2\n      add\n      tag_205\n      jump\t// in\n    tag_204:\n      0x00\n      mload(0x40)\n      dup1\n      dup4\n      sub\n      dup2\n      0x00\n      dup8\n      dup1\n      extcodesize\n      iszero\n      dup1\n      iszero\n      tag_206\n      jumpi\n      0x00\n      dup1\n      revert\n    tag_206:\n      pop\n      gas\n      call\n      iszero\n      dup1\n      iszero\n      tag_208\n      jumpi\n      returndatasize\n      0x00\n      dup1\n      returndatacopy\n      revert(0x00, returndatasize)\n    tag_208:\n      pop\n      pop\n      pop\n      pop\n        /* \"src/Loopso.sol\":3491:3499  _tokenID */\n      dup2\n        /* \"src/Loopso.sol\":3486:3489  _to */\n      dup4\n      sub(shl(0xa0, 0x01), 0x01)\n        /* \"src/Loopso.sol\":3459:3500  TokensBridgedBack(_amount, _to, _tokenID) */\n      and\n        /* \"src/Loopso.sol\":3477:3484  _amount */\n      dup6\n        /* \"src/Loopso.sol\":3459:3500  TokensBridgedBack(_amount, _to, _tokenID) */\n      0x80c5d77a092b389b97d2b4a5bc721315e540c267567756df827f2edab66facba\n      mload(0x40)\n      mload(0x40)\n      dup1\n      swap2\n      sub\n      swap1\n      log4\n        /* \"src/Loopso.sol\":3093:3507  {... */\n      pop\n        /* \"src/Loopso.sol\":3010:3507  function bridgeTokensBack(uint256 _amount, address _to, bytes32 _tokenID) external {... */\n      pop\n      pop\n      pop\n      jump\t// out\n        /* \"src/Loopso.sol\":509:567  mapping(bytes32 => TokenAttestation) public attestedTokens */\n    tag_78:\n      0x01\n      0x20\n      dup2\n      swap1\n      mstore\n      0x00\n      swap2\n      dup3\n      mstore\n      0x40\n      swap1\n      swap2\n      keccak256\n      dup1\n      sload\n      swap2\n      dup2\n      add\n      sload\n      0x02\n      dup3\n      add\n      sload\n      0x03\n      dup4\n      add\n      dup1\n      sload\n      sub(shl(0xa0, 0x01), 0x01)\n      swap1\n      swap6\n      and\n      swap5\n      swap3\n      swap4\n      0xff\n      dup1\n      dup5\n      and\n      swap5\n      0x0100\n      swap1\n      swap5\n      div\n      and\n      swap3\n      swap1\n      swap2\n      swap1\n      tag_209\n      swap1\n      tag_187\n      jump\t// in\n    tag_209:\n      dup1\n      0x1f\n      add\n      0x20\n      dup1\n      swap2\n      div\n      mul\n      0x20\n      add\n      mload(0x40)\n      swap1\n      dup2\n      add\n      0x40\n      mstore\n      dup1\n      swap3\n      swap2\n      swap1\n      dup2\n      dup2\n      mstore\n      0x20\n      add\n      dup3\n      dup1\n      sload\n      tag_210\n      swap1\n      tag_187\n      jump\t// in\n    tag_210:\n      dup1\n      iszero\n      tag_211\n      jumpi\n      dup1\n      0x1f\n      lt\n      tag_212\n      jumpi\n      0x0100\n      dup1\n      dup4\n      sload\n      div\n      mul\n      dup4\n      mstore\n      swap2\n      0x20\n      add\n      swap2\n      jump(tag_211)\n    tag_212:\n      dup3\n      add\n      swap2\n      swap1\n      0x00\n      mstore\n      keccak256(0x00, 0x20)\n      swap1\n    tag_213:\n      dup2\n      sload\n      dup2\n      mstore\n      swap1\n      0x01\n      add\n      swap1\n      0x20\n      add\n      dup1\n      dup4\n      gt\n      tag_213\n      jumpi\n      dup3\n      swap1\n      sub\n      0x1f\n      and\n      dup3\n      add\n      swap2\n    tag_211:\n      pop\n      pop\n      pop\n      pop\n      pop\n      swap1\n      dup1\n      0x04\n      add\n      dup1\n      sload\n      tag_214\n      swap1\n      tag_187\n      jump\t// in\n    tag_214:\n      dup1\n      0x1f\n      add\n      0x20\n      dup1\n      swap2\n      div\n      mul\n      0x20\n      add\n      mload(0x40)\n      swap1\n      dup2\n      add\n      0x40\n      mstore\n      dup1\n      swap3\n      swap2\n      swap1\n      dup2\n      dup2\n      mstore\n      0x20\n      add\n      dup3\n      dup1\n      sload\n      tag_215\n      swap1\n      tag_187\n      jump\t// in\n    tag_215:\n      dup1\n      iszero\n      tag_216\n      jumpi\n      dup1\n      0x1f\n      lt\n      tag_217\n      jumpi\n      0x0100\n      dup1\n      dup4\n      sload\n      div\n      mul\n      dup4\n      mstore\n      swap2\n      0x20\n      add\n      swap2\n      jump(tag_216)\n    tag_217:\n      dup3\n      add\n      swap2\n      swap1\n      0x00\n      mstore\n      keccak256(0x00, 0x20)\n      swap1\n    tag_218:\n      dup2\n      sload\n      dup2\n      mstore\n      swap1\n      0x01\n      add\n      swap1\n      0x20\n      add\n      dup1\n      dup4\n      gt\n      tag_218\n      jumpi\n      dup3\n      swap1\n      sub\n      0x1f\n      and\n      dup3\n      add\n      swap2\n    tag_216:\n      pop\n      pop\n      pop\n      0x05\n      swap1\n      swap4\n      add\n      sload\n      swap2\n      swap3\n      pop\n      pop\n      sub(shl(0xa0, 0x01), 0x01)\n      and\n      dup8\n      jump\t// out\n        /* \"lib/openzeppelin-contracts/contracts/access/AccessControl.sol\":2854:2990  function hasRole(bytes32 role, address account) public view virtual returns (bool) {... */\n    tag_83:\n        /* \"lib/openzeppelin-contracts/contracts/access/AccessControl.sol\":2931:2935  bool */\n      0x00\n        /* \"lib/openzeppelin-contracts/contracts/access/AccessControl.sol\":2954:2966  _roles[role] */\n      swap2\n      dup3\n      mstore\n      0x20\n      dup3\n      dup2\n      mstore\n      0x40\n      dup1\n      dup5\n      keccak256\n      sub(shl(0xa0, 0x01), 0x01)\n        /* \"lib/openzeppelin-contracts/contracts/access/AccessControl.sol\":2954:2983  _roles[role].hasRole[account] */\n      swap4\n      swap1\n      swap4\n      and\n      dup5\n      mstore\n      swap2\n      swap1\n      mstore\n      swap1\n      keccak256\n      sload\n      0xff\n      and\n      swap1\n        /* \"lib/openzeppelin-contracts/contracts/access/AccessControl.sol\":2854:2990  function hasRole(bytes32 role, address account) public view virtual returns (bool) {... */\n      jump\t// out\n        /* \"src/Loopso.sol\":3590:4123  function releaseWrappedTokens(uint256 _amount, address _to, bytes32 _tokenID) external onlyRelayer {... */\n    tag_90:\n        /* \"src/Loopso.sol\":1029:1053  _checkRole(RELAYER_ROLE) */\n      tag_221\n        /* \"src/Loopso.sol\":437:462  keccak256(\"RELAYER_ROLE\") */\n      0xe2b7fb3b832174769106daebcfd6d1970523240dda11281102db9363b83b0dc4\n        /* \"src/Loopso.sol\":1029:1039  _checkRole */\n      tag_113\n        /* \"src/Loopso.sol\":1029:1053  _checkRole(RELAYER_ROLE) */\n      jump\t// in\n    tag_221:\n        /* \"src/Loopso.sol\":3736:3773  TokenAttestation memory attestedToken */\n      0x00\n        /* \"src/Loopso.sol\":3776:3800  attestedTokens[_tokenID] */\n      dup2\n      dup2\n      mstore\n        /* \"src/Loopso.sol\":3776:3790  attestedTokens */\n      0x01\n        /* \"src/Loopso.sol\":3776:3800  attestedTokens[_tokenID] */\n      0x20\n      dup2\n      dup2\n      mstore\n      0x40\n      dup1\n      dup5\n      keccak256\n        /* \"src/Loopso.sol\":3736:3800  TokenAttestation memory attestedToken = attestedTokens[_tokenID] */\n      dup2\n      mload\n      0xe0\n      dup2\n      add\n      dup4\n      mstore\n      dup2\n      sload\n      sub(shl(0xa0, 0x01), 0x01)\n      and\n      dup2\n      mstore\n      dup2\n      dup6\n      add\n      sload\n      swap4\n      dup2\n      add\n      swap4\n      swap1\n      swap4\n      mstore\n      0x02\n      dup2\n      add\n      sload\n      swap3\n      swap4\n        /* \"src/Loopso.sol\":3776:3800  attestedTokens[_tokenID] */\n      swap1\n      swap3\n        /* \"src/Loopso.sol\":3736:3800  TokenAttestation memory attestedToken = attestedTokens[_tokenID] */\n      swap2\n      dup5\n      add\n      swap2\n      0xff\n      and\n      swap1\n      dup2\n      gt\n      iszero\n      tag_224\n      jumpi\n      tag_224\n      tag_128\n      jump\t// in\n    tag_224:\n      0x01\n      dup2\n      gt\n      iszero\n      tag_226\n      jumpi\n      tag_226\n      tag_128\n      jump\t// in\n    tag_226:\n      dup2\n      mstore\n      0x02\n      dup3\n      add\n      sload\n      0x0100\n      swap1\n      div\n      0xff\n      and\n      0x20\n      dup3\n      add\n      mstore\n      0x03\n      dup3\n      add\n      dup1\n      sload\n      0x40\n      swap1\n      swap3\n      add\n      swap2\n      tag_227\n      swap1\n      tag_187\n      jump\t// in\n    tag_227:\n      dup1\n      0x1f\n      add\n      0x20\n      dup1\n      swap2\n      div\n      mul\n      0x20\n      add\n      mload(0x40)\n      swap1\n      dup2\n      add\n      0x40\n      mstore\n      dup1\n      swap3\n      swap2\n      swap1\n      dup2\n      dup2\n      mstore\n      0x20\n      add\n      dup3\n      dup1\n      sload\n      tag_228\n      swap1\n      tag_187\n      jump\t// in\n    tag_228:\n      dup1\n      iszero\n      tag_229\n      jumpi\n      dup1\n      0x1f\n      lt\n      tag_230\n      jumpi\n      0x0100\n      dup1\n      dup4\n      sload\n      div\n      mul\n      dup4\n      mstore\n      swap2\n      0x20\n      add\n      swap2\n      jump(tag_229)\n    tag_230:\n      dup3\n      add\n      swap2\n      swap1\n      0x00\n      mstore\n      keccak256(0x00, 0x20)\n      swap1\n    tag_231:\n      dup2\n      sload\n      dup2\n      mstore\n      swap1\n      0x01\n      add\n      swap1\n      0x20\n      add\n      dup1\n      dup4\n      gt\n      tag_231\n      jumpi\n      dup3\n      swap1\n      sub\n      0x1f\n      and\n      dup3\n      add\n      swap2\n    tag_229:\n      pop\n      pop\n      pop\n      pop\n      pop\n      dup2\n      mstore\n      0x20\n      add\n      0x04\n      dup3\n      add\n      dup1\n      sload\n      tag_232\n      swap1\n      tag_187\n      jump\t// in\n    tag_232:\n      dup1\n      0x1f\n      add\n      0x20\n      dup1\n      swap2\n      div\n      mul\n      0x20\n      add\n      mload(0x40)\n      swap1\n      dup2\n      add\n      0x40\n      mstore\n      dup1\n      swap3\n      swap2\n      swap1\n      dup2\n      dup2\n      mstore\n      0x20\n      add\n      dup3\n      dup1\n      sload\n      tag_233\n      swap1\n      tag_187\n      jump\t// in\n    tag_233:\n      dup1\n      iszero\n      tag_234\n      jumpi\n      dup1\n      0x1f\n      lt\n      tag_235\n      jumpi\n      0x0100\n      dup1\n      dup4\n      sload\n      div\n      mul\n      dup4\n      mstore\n      swap2\n      0x20\n      add\n      swap2\n      jump(tag_234)\n    tag_235:\n      dup3\n      add\n      swap2\n      swap1\n      0x00\n      mstore\n      keccak256(0x00, 0x20)\n      swap1\n    tag_236:\n      dup2\n      sload\n      dup2\n      mstore\n      swap1\n      0x01\n      add\n      swap1\n      0x20\n      add\n      dup1\n      dup4\n      gt\n      tag_236\n      jumpi\n      dup3\n      swap1\n      sub\n      0x1f\n      and\n      dup3\n      add\n      swap2\n    tag_234:\n      pop\n      pop\n      pop\n      swap2\n      dup4\n      mstore\n      pop\n      pop\n      0x05\n      swap2\n      swap1\n      swap2\n      add\n      sload\n      sub(shl(0xa0, 0x01), 0x01)\n      swap1\n      dup2\n      and\n      0x20\n      swap1\n      swap3\n      add\n      swap2\n      swap1\n      swap2\n      mstore\n        /* \"src/Loopso.sol\":3818:3844  attestedToken.tokenAddress */\n      dup2\n      mload\n        /* \"src/Loopso.sol\":3736:3800  TokenAttestation memory attestedToken = attestedTokens[_tokenID] */\n      swap2\n      swap3\n      pop\n        /* \"src/Loopso.sol\":3818:3858  attestedToken.tokenAddress != address(0) */\n      and\n        /* \"src/Loopso.sol\":3810:3879  require(attestedToken.tokenAddress != address(0), \"Invalid _tokenID\") */\n      tag_237\n      jumpi\n      mload(0x40)\n      shl(0xe5, 0x461bcd)\n      dup2\n      mstore\n        /* \"#utility.yul\":14691:14693   */\n      0x20\n        /* \"src/Loopso.sol\":3810:3879  require(attestedToken.tokenAddress != address(0), \"Invalid _tokenID\") */\n      0x04\n      dup3\n      add\n        /* \"#utility.yul\":14673:14694   */\n      mstore\n        /* \"#utility.yul\":14730:14732   */\n      0x10\n        /* \"#utility.yul\":14710:14728   */\n      0x24\n      dup3\n      add\n        /* \"#utility.yul\":14703:14733   */\n      mstore\n      shl(0x82, 0x125b9d985b1a590817dd1bdad95b9251)\n        /* \"#utility.yul\":14749:14767   */\n      0x44\n      dup3\n      add\n        /* \"#utility.yul\":14742:14788   */\n      mstore\n        /* \"#utility.yul\":14805:14823   */\n      0x64\n      add\n        /* \"src/Loopso.sol\":3810:3879  require(attestedToken.tokenAddress != address(0), \"Invalid _tokenID\") */\n      tag_121\n        /* \"#utility.yul\":14489:14829   */\n      jump\n        /* \"src/Loopso.sol\":3810:3879  require(attestedToken.tokenAddress != address(0), \"Invalid _tokenID\") */\n    tag_237:\n        /* \"src/Loopso.sol\":3957:3990  attestedToken.wrappedTokenAddress */\n      0xc0\n      dup2\n      add\n      mload\n        /* \"src/Loopso.sol\":4018:4030  new bytes(0) */\n      0x40\n      dup1\n      mload\n        /* \"src/Loopso.sol\":4011:4016  false */\n      0x00\n        /* \"src/Loopso.sol\":4018:4030  new bytes(0) */\n      dup1\n      dup3\n      mstore\n      0x20\n      dup3\n      add\n      swap3\n      dup4\n      swap1\n      mstore\n      shl(0xe5, 0x03ac06c9)\n        /* \"src/Loopso.sol\":3944:4031  ILSP7Bridged(attestedToken.wrappedTokenAddress).mint(_to, _amount, false, new bytes(0)) */\n      swap1\n      swap3\n      mstore\n      sub(shl(0xa0, 0x01), 0x01)\n        /* \"src/Loopso.sol\":3944:3996  ILSP7Bridged(attestedToken.wrappedTokenAddress).mint */\n      swap1\n      swap3\n      and\n      swap2\n      0x7580d920\n      swap2\n        /* \"src/Loopso.sol\":3944:4031  ILSP7Bridged(attestedToken.wrappedTokenAddress).mint(_to, _amount, false, new bytes(0)) */\n      tag_242\n      swap2\n        /* \"src/Loopso.sol\":3997:4000  _to */\n      dup8\n      swap2\n        /* \"src/Loopso.sol\":4002:4009  _amount */\n      dup10\n      swap2\n        /* \"src/Loopso.sol\":3944:4031  ILSP7Bridged(attestedToken.wrappedTokenAddress).mint(_to, _amount, false, new bytes(0)) */\n      0x24\n      dup2\n      add\n      tag_243\n      jump\t// in\n    tag_242:\n      0x00\n      mload(0x40)\n      dup1\n      dup4\n      sub\n      dup2\n      0x00\n      dup8\n      dup1\n      extcodesize\n      iszero\n      dup1\n      iszero\n      tag_244\n      jumpi\n      0x00\n      dup1\n      revert\n    tag_244:\n      pop\n      gas\n      call\n      iszero\n      dup1\n      iszero\n      tag_246\n      jumpi\n      returndatasize\n      0x00\n      dup1\n      returndatacopy\n      revert(0x00, returndatasize)\n    tag_246:\n      pop\n      pop\n      pop\n      pop\n        /* \"src/Loopso.sol\":4107:4115  _tokenID */\n      dup2\n        /* \"src/Loopso.sol\":4102:4105  _to */\n      dup4\n      sub(shl(0xa0, 0x01), 0x01)\n        /* \"src/Loopso.sol\":4071:4116  WrappedTokensReleased(_amount, _to, _tokenID) */\n      and\n        /* \"src/Loopso.sol\":4093:4100  _amount */\n      dup6\n        /* \"src/Loopso.sol\":4071:4116  WrappedTokensReleased(_amount, _to, _tokenID) */\n      0x7aebc2282a0784072e43f12d40afc658f82fda3d0e830865d50dd7b0196df7f1\n      mload(0x40)\n      mload(0x40)\n      dup1\n      swap2\n      sub\n      swap1\n      log4\n        /* \"src/Loopso.sol\":3689:4123  {... */\n      pop\n        /* \"src/Loopso.sol\":3590:4123  function releaseWrappedTokens(uint256 _amount, address _to, bytes32 _tokenID) external onlyRelayer {... */\n      pop\n      pop\n      pop\n      jump\t// out\n        /* \"lib/openzeppelin-contracts/contracts/access/AccessControl.sol\":4642:4780  function revokeRole(bytes32 role, address account) public virtual onlyRole(getRoleAdmin(role)) {... */\n    tag_96:\n        /* \"lib/openzeppelin-contracts/contracts/access/AccessControl.sol\":3875:3882  bytes32 */\n      0x00\n        /* \"lib/openzeppelin-contracts/contracts/access/AccessControl.sol\":3901:3913  _roles[role] */\n      dup3\n      dup2\n      mstore\n      0x20\n      dup2\n      swap1\n      mstore\n      0x40\n      swap1\n      keccak256\n        /* \"lib/openzeppelin-contracts/contracts/access/AccessControl.sol\":3901:3923  _roles[role].adminRole */\n      0x01\n      add\n      sload\n        /* \"lib/openzeppelin-contracts/contracts/access/AccessControl.sol\":2464:2480  _checkRole(role) */\n      tag_249\n        /* \"lib/openzeppelin-contracts/contracts/access/AccessControl.sol\":2475:2479  role */\n      dup2\n        /* \"lib/openzeppelin-contracts/contracts/access/AccessControl.sol\":2464:2474  _checkRole */\n      tag_113\n        /* \"lib/openzeppelin-contracts/contracts/access/AccessControl.sol\":2464:2480  _checkRole(role) */\n      jump\t// in\n    tag_249:\n        /* \"lib/openzeppelin-contracts/contracts/access/AccessControl.sol\":4747:4773  _revokeRole(role, account) */\n      tag_64\n        /* \"lib/openzeppelin-contracts/contracts/access/AccessControl.sol\":4759:4763  role */\n      dup4\n        /* \"lib/openzeppelin-contracts/contracts/access/AccessControl.sol\":4765:4772  account */\n      dup4\n        /* \"lib/openzeppelin-contracts/contracts/access/AccessControl.sol\":4747:4758  _revokeRole */\n      tag_167\n        /* \"lib/openzeppelin-contracts/contracts/access/AccessControl.sol\":4747:4773  _revokeRole(role, account) */\n      jump\t// in\n        /* \"lib/openzeppelin-contracts/contracts/access/AccessControl.sol\":3199:3302  function _checkRole(bytes32 role) internal view virtual {... */\n    tag_113:\n        /* \"lib/openzeppelin-contracts/contracts/access/AccessControl.sol\":3265:3295  _checkRole(role, _msgSender()) */\n      tag_256\n        /* \"lib/openzeppelin-contracts/contracts/access/AccessControl.sol\":3276:3280  role */\n      dup2\n        /* \"lib/openzeppelin-contracts/contracts/utils/Context.sol\":735:745  msg.sender */\n      caller\n        /* \"lib/openzeppelin-contracts/contracts/access/AccessControl.sol\":3265:3275  _checkRole */\n      tag_258\n        /* \"lib/openzeppelin-contracts/contracts/access/AccessControl.sol\":3265:3295  _checkRole(role, _msgSender()) */\n      jump\t// in\n    tag_256:\n        /* \"lib/openzeppelin-contracts/contracts/access/AccessControl.sol\":3199:3302  function _checkRole(bytes32 role) internal view virtual {... */\n      pop\n      jump\t// out\n        /* \"lib/openzeppelin-contracts/contracts/access/AccessControl.sol\":6179:6495  function _grantRole(bytes32 role, address account) internal virtual returns (bool) {... */\n    tag_116:\n        /* \"lib/openzeppelin-contracts/contracts/access/AccessControl.sol\":6256:6260  bool */\n      0x00\n        /* \"lib/openzeppelin-contracts/contracts/access/AccessControl.sol\":6277:6299  hasRole(role, account) */\n      tag_260\n        /* \"lib/openzeppelin-contracts/contracts/access/AccessControl.sol\":6285:6289  role */\n      dup4\n        /* \"lib/openzeppelin-contracts/contracts/access/AccessControl.sol\":6291:6298  account */\n      dup4\n        /* \"lib/openzeppelin-contracts/contracts/access/AccessControl.sol\":6277:6284  hasRole */\n      tag_83\n        /* \"lib/openzeppelin-contracts/contracts/access/AccessControl.sol\":6277:6299  hasRole(role, account) */\n      jump\t// in\n    tag_260:\n        /* \"lib/openzeppelin-contracts/contracts/access/AccessControl.sol\":6272:6489  if (!hasRole(role, account)) {... */\n      tag_261\n      jumpi\n        /* \"lib/openzeppelin-contracts/contracts/access/AccessControl.sol\":6315:6321  _roles */\n      0x00\n        /* \"lib/openzeppelin-contracts/contracts/access/AccessControl.sol\":6315:6327  _roles[role] */\n      dup4\n      dup2\n      mstore\n      0x20\n      dup2\n      dup2\n      mstore\n      0x40\n      dup1\n      dup4\n      keccak256\n      sub(shl(0xa0, 0x01), 0x01)\n        /* \"lib/openzeppelin-contracts/contracts/access/AccessControl.sol\":6315:6344  _roles[role].hasRole[account] */\n      dup7\n      and\n      dup5\n      mstore\n      swap1\n      swap2\n      mstore\n      swap1\n      keccak256\n        /* \"lib/openzeppelin-contracts/contracts/access/AccessControl.sol\":6315:6351  _roles[role].hasRole[account] = true */\n      dup1\n      sload\n      not(0xff)\n      and\n        /* \"lib/openzeppelin-contracts/contracts/access/AccessControl.sol\":6347:6351  true */\n      0x01\n        /* \"lib/openzeppelin-contracts/contracts/access/AccessControl.sol\":6315:6351  _roles[role].hasRole[account] = true */\n      or\n      swap1\n      sstore\n        /* \"lib/openzeppelin-contracts/contracts/access/AccessControl.sol\":6397:6409  _msgSender() */\n      tag_262\n        /* \"lib/openzeppelin-contracts/contracts/utils/Context.sol\":735:745  msg.sender */\n      caller\n      swap1\n        /* \"lib/openzeppelin-contracts/contracts/utils/Context.sol\":656:752  function _msgSender() internal view virtual returns (address) {... */\n      jump\n        /* \"lib/openzeppelin-contracts/contracts/access/AccessControl.sol\":6397:6409  _msgSender() */\n    tag_262:\n      sub(shl(0xa0, 0x01), 0x01)\n        /* \"lib/openzeppelin-contracts/contracts/access/AccessControl.sol\":6370:6410  RoleGranted(role, account, _msgSender()) */\n      and\n        /* \"lib/openzeppelin-contracts/contracts/access/AccessControl.sol\":6388:6395  account */\n      dup3\n      sub(shl(0xa0, 0x01), 0x01)\n        /* \"lib/openzeppelin-contracts/contracts/access/AccessControl.sol\":6370:6410  RoleGranted(role, account, _msgSender()) */\n      and\n        /* \"lib/openzeppelin-contracts/contracts/access/AccessControl.sol\":6382:6386  role */\n      dup5\n        /* \"lib/openzeppelin-contracts/contracts/access/AccessControl.sol\":6370:6410  RoleGranted(role, account, _msgSender()) */\n      0x2f8788117e7eff1d82e926ec794901d17c78024a50270940304540a733656f0d\n      mload(0x40)\n      mload(0x40)\n      dup1\n      swap2\n      sub\n      swap1\n      log4\n      pop\n        /* \"lib/openzeppelin-contracts/contracts/access/AccessControl.sol\":6431:6435  true */\n      0x01\n        /* \"lib/openzeppelin-contracts/contracts/access/AccessControl.sol\":6424:6435  return true */\n      jump(tag_107)\n        /* \"lib/openzeppelin-contracts/contracts/access/AccessControl.sol\":6272:6489  if (!hasRole(role, account)) {... */\n    tag_261:\n      pop\n        /* \"lib/openzeppelin-contracts/contracts/access/AccessControl.sol\":6473:6478  false */\n      0x00\n        /* \"lib/openzeppelin-contracts/contracts/access/AccessControl.sol\":6466:6478  return false */\n      jump(tag_107)\n        /* \"lib/openzeppelin-contracts/contracts/access/AccessControl.sol\":6730:7047  function _revokeRole(bytes32 role, address account) internal virtual returns (bool) {... */\n    tag_167:\n        /* \"lib/openzeppelin-contracts/contracts/access/AccessControl.sol\":6808:6812  bool */\n      0x00\n        /* \"lib/openzeppelin-contracts/contracts/access/AccessControl.sol\":6828:6850  hasRole(role, account) */\n      tag_266\n        /* \"lib/openzeppelin-contracts/contracts/access/AccessControl.sol\":6836:6840  role */\n      dup4\n        /* \"lib/openzeppelin-contracts/contracts/access/AccessControl.sol\":6842:6849  account */\n      dup4\n        /* \"lib/openzeppelin-contracts/contracts/access/AccessControl.sol\":6828:6835  hasRole */\n      tag_83\n        /* \"lib/openzeppelin-contracts/contracts/access/AccessControl.sol\":6828:6850  hasRole(role, account) */\n      jump\t// in\n    tag_266:\n        /* \"lib/openzeppelin-contracts/contracts/access/AccessControl.sol\":6824:7041  if (hasRole(role, account)) {... */\n      iszero\n      tag_261\n      jumpi\n        /* \"lib/openzeppelin-contracts/contracts/access/AccessControl.sol\":6898:6903  false */\n      0x00\n        /* \"lib/openzeppelin-contracts/contracts/access/AccessControl.sol\":6866:6878  _roles[role] */\n      dup4\n      dup2\n      mstore\n      0x20\n      dup2\n      dup2\n      mstore\n      0x40\n      dup1\n      dup4\n      keccak256\n      sub(shl(0xa0, 0x01), 0x01)\n        /* \"lib/openzeppelin-contracts/contracts/access/AccessControl.sol\":6866:6895  _roles[role].hasRole[account] */\n      dup7\n      and\n      dup1\n      dup6\n      mstore\n      swap3\n      mstore\n      dup1\n      dup4\n      keccak256\n        /* \"lib/openzeppelin-contracts/contracts/access/AccessControl.sol\":6866:6903  _roles[role].hasRole[account] = false */\n      dup1\n      sload\n      not(0xff)\n      and\n      swap1\n      sstore\n        /* \"lib/openzeppelin-contracts/contracts/access/AccessControl.sol\":6922:6962  RoleRevoked(role, account, _msgSender()) */\n      mload\n        /* \"lib/openzeppelin-contracts/contracts/utils/Context.sol\":735:745  msg.sender */\n      caller\n      swap3\n        /* \"lib/openzeppelin-contracts/contracts/access/AccessControl.sol\":6866:6878  _roles[role] */\n      dup7\n      swap2\n        /* \"lib/openzeppelin-contracts/contracts/access/AccessControl.sol\":6922:6962  RoleRevoked(role, account, _msgSender()) */\n      0xf6391f5c32d9c69d2a47ea670b442974b53935d1edc7fd64eb21e047a839171b\n      swap2\n        /* \"lib/openzeppelin-contracts/contracts/access/AccessControl.sol\":6898:6903  false */\n      swap1\n        /* \"lib/openzeppelin-contracts/contracts/access/AccessControl.sol\":6922:6962  RoleRevoked(role, account, _msgSender()) */\n      log4\n      pop\n        /* \"lib/openzeppelin-contracts/contracts/access/AccessControl.sol\":6983:6987  true */\n      0x01\n        /* \"lib/openzeppelin-contracts/contracts/access/AccessControl.sol\":6976:6987  return true */\n      jump(tag_107)\n        /* \"lib/openzeppelin-contracts/contracts/access/AccessControl.sol\":3432:3629  function _checkRole(bytes32 role, address account) internal view virtual {... */\n    tag_258:\n        /* \"lib/openzeppelin-contracts/contracts/access/AccessControl.sol\":3520:3542  hasRole(role, account) */\n      tag_271\n        /* \"lib/openzeppelin-contracts/contracts/access/AccessControl.sol\":3528:3532  role */\n      dup3\n        /* \"lib/openzeppelin-contracts/contracts/access/AccessControl.sol\":3534:3541  account */\n      dup3\n        /* \"lib/openzeppelin-contracts/contracts/access/AccessControl.sol\":3520:3527  hasRole */\n      tag_83\n        /* \"lib/openzeppelin-contracts/contracts/access/AccessControl.sol\":3520:3542  hasRole(role, account) */\n      jump\t// in\n    tag_271:\n        /* \"lib/openzeppelin-contracts/contracts/access/AccessControl.sol\":3515:3623  if (!hasRole(role, account)) {... */\n      tag_272\n      jumpi\n        /* \"lib/openzeppelin-contracts/contracts/access/AccessControl.sol\":3565:3612  AccessControlUnauthorizedAccount(account, role) */\n      mload(0x40)\n      shl(0xe0, 0xe2517d3f)\n      dup2\n      mstore\n      sub(shl(0xa0, 0x01), 0x01)\n        /* \"#utility.yul\":14050:14082   */\n      dup3\n      and\n        /* \"lib/openzeppelin-contracts/contracts/access/AccessControl.sol\":3565:3612  AccessControlUnauthorizedAccount(account, role) */\n      0x04\n      dup3\n      add\n        /* \"#utility.yul\":14032:14083   */\n      mstore\n        /* \"#utility.yul\":14099:14117   */\n      0x24\n      dup2\n      add\n        /* \"#utility.yul\":14092:14126   */\n      dup4\n      swap1\n      mstore\n        /* \"#utility.yul\":14005:14023   */\n      0x44\n      add\n        /* \"lib/openzeppelin-contracts/contracts/access/AccessControl.sol\":3565:3612  AccessControlUnauthorizedAccount(account, role) */\n      tag_121\n        /* \"#utility.yul\":13858:14132   */\n      jump\n        /* \"lib/openzeppelin-contracts/contracts/access/AccessControl.sol\":3515:3623  if (!hasRole(role, account)) {... */\n    tag_272:\n        /* \"lib/openzeppelin-contracts/contracts/access/AccessControl.sol\":3432:3629  function _checkRole(bytes32 role, address account) internal view virtual {... */\n      pop\n      pop\n      jump\t// out\n        /* \"#utility.yul\":14:300   */\n    tag_29:\n        /* \"#utility.yul\":72:78   */\n      0x00\n        /* \"#utility.yul\":125:127   */\n      0x20\n        /* \"#utility.yul\":113:122   */\n      dup3\n        /* \"#utility.yul\":104:111   */\n      dup5\n        /* \"#utility.yul\":100:123   */\n      sub\n        /* \"#utility.yul\":96:128   */\n      slt\n        /* \"#utility.yul\":93:145   */\n      iszero\n      tag_287\n      jumpi\n        /* \"#utility.yul\":141:142   */\n      0x00\n        /* \"#utility.yul\":138:139   */\n      dup1\n        /* \"#utility.yul\":131:143   */\n      revert\n        /* \"#utility.yul\":93:145   */\n    tag_287:\n        /* \"#utility.yul\":167:190   */\n      dup2\n      calldataload\n      not(sub(shl(0xe0, 0x01), 0x01))\n        /* \"#utility.yul\":219:251   */\n      dup2\n      and\n        /* \"#utility.yul\":209:252   */\n      dup2\n      eq\n        /* \"#utility.yul\":199:270   */\n      tag_288\n      jumpi\n        /* \"#utility.yul\":266:267   */\n      0x00\n        /* \"#utility.yul\":263:264   */\n      dup1\n        /* \"#utility.yul\":256:268   */\n      revert\n        /* \"#utility.yul\":199:270   */\n    tag_288:\n        /* \"#utility.yul\":289:294   */\n      swap4\n        /* \"#utility.yul\":14:300   */\n      swap3\n      pop\n      pop\n      pop\n      jump\t// out\n        /* \"#utility.yul\":497:677   */\n    tag_35:\n        /* \"#utility.yul\":556:562   */\n      0x00\n        /* \"#utility.yul\":609:611   */\n      0x20\n        /* \"#utility.yul\":597:606   */\n      dup3\n        /* \"#utility.yul\":588:595   */\n      dup5\n        /* \"#utility.yul\":584:607   */\n      sub\n        /* \"#utility.yul\":580:612   */\n      slt\n        /* \"#utility.yul\":577:629   */\n      iszero\n      tag_291\n      jumpi\n        /* \"#utility.yul\":625:626   */\n      0x00\n        /* \"#utility.yul\":622:623   */\n      dup1\n        /* \"#utility.yul\":615:627   */\n      revert\n        /* \"#utility.yul\":577:629   */\n    tag_291:\n      pop\n        /* \"#utility.yul\":648:671   */\n      calldataload\n      swap2\n        /* \"#utility.yul\":497:677   */\n      swap1\n      pop\n      jump\t// out\n        /* \"#utility.yul\":1617:1748   */\n    tag_275:\n      sub(shl(0xa0, 0x01), 0x01)\n        /* \"#utility.yul\":1692:1723   */\n      dup2\n      and\n        /* \"#utility.yul\":1682:1724   */\n      dup2\n      eq\n        /* \"#utility.yul\":1672:1742   */\n      tag_256\n      jumpi\n        /* \"#utility.yul\":1738:1739   */\n      0x00\n        /* \"#utility.yul\":1735:1736   */\n      dup1\n        /* \"#utility.yul\":1728:1740   */\n      revert\n        /* \"#utility.yul\":1753:1887   */\n    tag_276:\n        /* \"#utility.yul\":1821:1841   */\n      dup1\n      calldataload\n        /* \"#utility.yul\":1850:1881   */\n      tag_297\n        /* \"#utility.yul\":1821:1841   */\n      dup2\n        /* \"#utility.yul\":1850:1881   */\n      tag_275\n      jump\t// in\n    tag_297:\n        /* \"#utility.yul\":1753:1887   */\n      swap2\n      swap1\n      pop\n      jump\t// out\n        /* \"#utility.yul\":1892:2207   */\n    tag_46:\n        /* \"#utility.yul\":1960:1966   */\n      0x00\n        /* \"#utility.yul\":1968:1974   */\n      dup1\n        /* \"#utility.yul\":2021:2023   */\n      0x40\n        /* \"#utility.yul\":2009:2018   */\n      dup4\n        /* \"#utility.yul\":2000:2007   */\n      dup6\n        /* \"#utility.yul\":1996:2019   */\n      sub\n        /* \"#utility.yul\":1992:2024   */\n      slt\n        /* \"#utility.yul\":1989:2041   */\n      iszero\n      tag_299\n      jumpi\n        /* \"#utility.yul\":2037:2038   */\n      0x00\n        /* \"#utility.yul\":2034:2035   */\n      dup1\n        /* \"#utility.yul\":2027:2039   */\n      revert\n        /* \"#utility.yul\":1989:2041   */\n    tag_299:\n        /* \"#utility.yul\":2073:2082   */\n      dup3\n        /* \"#utility.yul\":2060:2083   */\n      calldataload\n        /* \"#utility.yul\":2050:2083   */\n      swap2\n      pop\n        /* \"#utility.yul\":2133:2135   */\n      0x20\n        /* \"#utility.yul\":2122:2131   */\n      dup4\n        /* \"#utility.yul\":2118:2136   */\n      add\n        /* \"#utility.yul\":2105:2137   */\n      calldataload\n        /* \"#utility.yul\":2146:2177   */\n      tag_300\n        /* \"#utility.yul\":2171:2176   */\n      dup2\n        /* \"#utility.yul\":2146:2177   */\n      tag_275\n      jump\t// in\n    tag_300:\n        /* \"#utility.yul\":2196:2201   */\n      dup1\n        /* \"#utility.yul\":2186:2201   */\n      swap2\n      pop\n      pop\n        /* \"#utility.yul\":1892:2207   */\n      swap3\n      pop\n      swap3\n      swap1\n      pop\n      jump\t// out\n        /* \"#utility.yul\":2212:2481   */\n    tag_50:\n        /* \"#utility.yul\":2293:2299   */\n      0x00\n        /* \"#utility.yul\":2346:2348   */\n      0x20\n        /* \"#utility.yul\":2334:2343   */\n      dup3\n        /* \"#utility.yul\":2325:2332   */\n      dup5\n        /* \"#utility.yul\":2321:2344   */\n      sub\n        /* \"#utility.yul\":2317:2349   */\n      slt\n        /* \"#utility.yul\":2314:2366   */\n      iszero\n      tag_302\n      jumpi\n        /* \"#utility.yul\":2362:2363   */\n      0x00\n        /* \"#utility.yul\":2359:2360   */\n      dup1\n        /* \"#utility.yul\":2352:2364   */\n      revert\n        /* \"#utility.yul\":2314:2366   */\n    tag_302:\n        /* \"#utility.yul\":2401:2410   */\n      dup2\n        /* \"#utility.yul\":2388:2411   */\n      calldataload\n        /* \"#utility.yul\":2420:2451   */\n      tag_288\n        /* \"#utility.yul\":2445:2450   */\n      dup2\n        /* \"#utility.yul\":2420:2451   */\n      tag_275\n      jump\t// in\n        /* \"#utility.yul\":2486:2613   */\n    tag_202:\n        /* \"#utility.yul\":2547:2557   */\n      0x4e487b71\n        /* \"#utility.yul\":2542:2545   */\n      0xe0\n        /* \"#utility.yul\":2538:2558   */\n      shl\n        /* \"#utility.yul\":2535:2536   */\n      0x00\n        /* \"#utility.yul\":2528:2559   */\n      mstore\n        /* \"#utility.yul\":2578:2582   */\n      0x41\n        /* \"#utility.yul\":2575:2576   */\n      0x04\n        /* \"#utility.yul\":2568:2583   */\n      mstore\n        /* \"#utility.yul\":2602:2606   */\n      0x24\n        /* \"#utility.yul\":2599:2600   */\n      0x00\n        /* \"#utility.yul\":2592:2607   */\n      revert\n        /* \"#utility.yul\":2618:2866   */\n    tag_277:\n        /* \"#utility.yul\":2685:2687   */\n      0x40\n        /* \"#utility.yul\":2679:2688   */\n      mload\n        /* \"#utility.yul\":2727:2731   */\n      0xe0\n        /* \"#utility.yul\":2715:2732   */\n      dup2\n      add\n        /* \"#utility.yul\":2762:2780   */\n      0xffffffffffffffff\n        /* \"#utility.yul\":2747:2781   */\n      dup2\n      gt\n        /* \"#utility.yul\":2783:2805   */\n      dup3\n      dup3\n      lt\n        /* \"#utility.yul\":2744:2806   */\n      or\n        /* \"#utility.yul\":2741:2829   */\n      iszero\n      tag_307\n      jumpi\n        /* \"#utility.yul\":2809:2827   */\n      tag_307\n      tag_202\n      jump\t// in\n    tag_307:\n        /* \"#utility.yul\":2845:2847   */\n      0x40\n        /* \"#utility.yul\":2838:2860   */\n      mstore\n        /* \"#utility.yul\":2618:2866   */\n      swap1\n      jump\t// out\n        /* \"#utility.yul\":2871:3021   */\n    tag_278:\n        /* \"#utility.yul\":2946:2966   */\n      dup1\n      calldataload\n        /* \"#utility.yul\":2995:2996   */\n      0x02\n        /* \"#utility.yul\":2985:2997   */\n      dup2\n      lt\n        /* \"#utility.yul\":2975:3015   */\n      tag_297\n      jumpi\n        /* \"#utility.yul\":3011:3012   */\n      0x00\n        /* \"#utility.yul\":3008:3009   */\n      dup1\n        /* \"#utility.yul\":3001:3013   */\n      revert\n        /* \"#utility.yul\":3026:3182   */\n    tag_279:\n        /* \"#utility.yul\":3092:3112   */\n      dup1\n      calldataload\n        /* \"#utility.yul\":3152:3156   */\n      0xff\n        /* \"#utility.yul\":3141:3157   */\n      dup2\n      and\n        /* \"#utility.yul\":3131:3158   */\n      dup2\n      eq\n        /* \"#utility.yul\":3121:3176   */\n      tag_297\n      jumpi\n        /* \"#utility.yul\":3172:3173   */\n      0x00\n        /* \"#utility.yul\":3169:3170   */\n      dup1\n        /* \"#utility.yul\":3162:3174   */\n      revert\n        /* \"#utility.yul\":3187:3906   */\n    tag_280:\n        /* \"#utility.yul\":3230:3235   */\n      0x00\n        /* \"#utility.yul\":3283:3286   */\n      dup3\n        /* \"#utility.yul\":3276:3280   */\n      0x1f\n        /* \"#utility.yul\":3268:3274   */\n      dup4\n        /* \"#utility.yul\":3264:3281   */\n      add\n        /* \"#utility.yul\":3260:3287   */\n      slt\n        /* \"#utility.yul\":3250:3305   */\n      tag_313\n      jumpi\n        /* \"#utility.yul\":3301:3302   */\n      0x00\n        /* \"#utility.yul\":3298:3299   */\n      dup1\n        /* \"#utility.yul\":3291:3303   */\n      revert\n        /* \"#utility.yul\":3250:3305   */\n    tag_313:\n        /* \"#utility.yul\":3337:3343   */\n      dup2\n        /* \"#utility.yul\":3324:3344   */\n      calldataload\n        /* \"#utility.yul\":3363:3381   */\n      0xffffffffffffffff\n        /* \"#utility.yul\":3400:3402   */\n      dup1\n        /* \"#utility.yul\":3396:3398   */\n      dup3\n        /* \"#utility.yul\":3393:3403   */\n      gt\n        /* \"#utility.yul\":3390:3426   */\n      iszero\n      tag_315\n      jumpi\n        /* \"#utility.yul\":3406:3424   */\n      tag_315\n      tag_202\n      jump\t// in\n    tag_315:\n        /* \"#utility.yul\":3481:3483   */\n      0x40\n        /* \"#utility.yul\":3475:3484   */\n      mload\n        /* \"#utility.yul\":3449:3451   */\n      0x1f\n        /* \"#utility.yul\":3535:3548   */\n      dup4\n      add\n      not(0x1f)\n        /* \"#utility.yul\":3531:3553   */\n      swap1\n      dup2\n      and\n        /* \"#utility.yul\":3555:3557   */\n      0x3f\n        /* \"#utility.yul\":3527:3558   */\n      add\n        /* \"#utility.yul\":3523:3563   */\n      and\n        /* \"#utility.yul\":3511:3564   */\n      dup2\n      add\n      swap1\n        /* \"#utility.yul\":3579:3597   */\n      dup3\n      dup3\n      gt\n        /* \"#utility.yul\":3599:3621   */\n      dup2\n      dup4\n      lt\n        /* \"#utility.yul\":3576:3622   */\n      or\n        /* \"#utility.yul\":3573:3645   */\n      iszero\n      tag_317\n      jumpi\n        /* \"#utility.yul\":3625:3643   */\n      tag_317\n      tag_202\n      jump\t// in\n    tag_317:\n        /* \"#utility.yul\":3665:3675   */\n      dup2\n        /* \"#utility.yul\":3661:3663   */\n      0x40\n        /* \"#utility.yul\":3654:3676   */\n      mstore\n        /* \"#utility.yul\":3700:3702   */\n      dup4\n        /* \"#utility.yul\":3692:3698   */\n      dup2\n        /* \"#utility.yul\":3685:3703   */\n      mstore\n        /* \"#utility.yul\":3746:3749   */\n      dup7\n        /* \"#utility.yul\":3739:3743   */\n      0x20\n        /* \"#utility.yul\":3734:3736   */\n      dup6\n        /* \"#utility.yul\":3726:3732   */\n      dup9\n        /* \"#utility.yul\":3722:3737   */\n      add\n        /* \"#utility.yul\":3718:3744   */\n      add\n        /* \"#utility.yul\":3715:3750   */\n      gt\n        /* \"#utility.yul\":3712:3767   */\n      iszero\n      tag_318\n      jumpi\n        /* \"#utility.yul\":3763:3764   */\n      0x00\n        /* \"#utility.yul\":3760:3761   */\n      dup1\n        /* \"#utility.yul\":3753:3765   */\n      revert\n        /* \"#utility.yul\":3712:3767   */\n    tag_318:\n        /* \"#utility.yul\":3827:3829   */\n      dup4\n        /* \"#utility.yul\":3820:3824   */\n      0x20\n        /* \"#utility.yul\":3812:3818   */\n      dup8\n        /* \"#utility.yul\":3808:3825   */\n      add\n        /* \"#utility.yul\":3801:3805   */\n      0x20\n        /* \"#utility.yul\":3793:3799   */\n      dup4\n        /* \"#utility.yul\":3789:3806   */\n      add\n        /* \"#utility.yul\":3776:3830   */\n      calldatacopy\n        /* \"#utility.yul\":3874:3875   */\n      0x00\n        /* \"#utility.yul\":3867:3871   */\n      0x20\n        /* \"#utility.yul\":3862:3864   */\n      dup6\n        /* \"#utility.yul\":3854:3860   */\n      dup4\n        /* \"#utility.yul\":3850:3865   */\n      add\n        /* \"#utility.yul\":3846:3872   */\n      add\n        /* \"#utility.yul\":3839:3876   */\n      mstore\n        /* \"#utility.yul\":3894:3900   */\n      dup1\n        /* \"#utility.yul\":3885:3900   */\n      swap5\n      pop\n      pop\n      pop\n      pop\n      pop\n        /* \"#utility.yul\":3187:3906   */\n      swap3\n      swap2\n      pop\n      pop\n      jump\t// out\n        /* \"#utility.yul\":3911:5022   */\n    tag_54:\n        /* \"#utility.yul\":4004:4010   */\n      0x00\n        /* \"#utility.yul\":4057:4059   */\n      0x20\n        /* \"#utility.yul\":4045:4054   */\n      dup3\n        /* \"#utility.yul\":4036:4043   */\n      dup5\n        /* \"#utility.yul\":4032:4055   */\n      sub\n        /* \"#utility.yul\":4028:4060   */\n      slt\n        /* \"#utility.yul\":4025:4077   */\n      iszero\n      tag_320\n      jumpi\n        /* \"#utility.yul\":4073:4074   */\n      0x00\n        /* \"#utility.yul\":4070:4071   */\n      dup1\n        /* \"#utility.yul\":4063:4075   */\n      revert\n        /* \"#utility.yul\":4025:4077   */\n    tag_320:\n        /* \"#utility.yul\":4113:4122   */\n      dup2\n        /* \"#utility.yul\":4100:4123   */\n      calldataload\n        /* \"#utility.yul\":4142:4160   */\n      0xffffffffffffffff\n        /* \"#utility.yul\":4183:4185   */\n      dup1\n        /* \"#utility.yul\":4175:4181   */\n      dup3\n        /* \"#utility.yul\":4172:4186   */\n      gt\n        /* \"#utility.yul\":4169:4203   */\n      iszero\n      tag_321\n      jumpi\n        /* \"#utility.yul\":4199:4200   */\n      0x00\n        /* \"#utility.yul\":4196:4197   */\n      dup1\n        /* \"#utility.yul\":4189:4201   */\n      revert\n        /* \"#utility.yul\":4169:4203   */\n    tag_321:\n        /* \"#utility.yul\":4222:4244   */\n      swap1\n      dup4\n      add\n      swap1\n        /* \"#utility.yul\":4278:4282   */\n      0xe0\n        /* \"#utility.yul\":4260:4276   */\n      dup3\n      dup7\n      sub\n        /* \"#utility.yul\":4256:4283   */\n      slt\n        /* \"#utility.yul\":4253:4300   */\n      iszero\n      tag_322\n      jumpi\n        /* \"#utility.yul\":4296:4297   */\n      0x00\n        /* \"#utility.yul\":4293:4294   */\n      dup1\n        /* \"#utility.yul\":4286:4298   */\n      revert\n        /* \"#utility.yul\":4253:4300   */\n    tag_322:\n        /* \"#utility.yul\":4322:4339   */\n      tag_323\n      tag_277\n      jump\t// in\n    tag_323:\n        /* \"#utility.yul\":4362:4384   */\n      tag_324\n        /* \"#utility.yul\":4381:4383   */\n      dup4\n        /* \"#utility.yul\":4362:4384   */\n      tag_276\n      jump\t// in\n    tag_324:\n        /* \"#utility.yul\":4355:4360   */\n      dup2\n        /* \"#utility.yul\":4348:4385   */\n      mstore\n        /* \"#utility.yul\":4438:4440   */\n      0x20\n        /* \"#utility.yul\":4434:4436   */\n      dup4\n        /* \"#utility.yul\":4430:4441   */\n      add\n        /* \"#utility.yul\":4417:4442   */\n      calldataload\n        /* \"#utility.yul\":4412:4414   */\n      0x20\n        /* \"#utility.yul\":4405:4410   */\n      dup3\n        /* \"#utility.yul\":4401:4415   */\n      add\n        /* \"#utility.yul\":4394:4443   */\n      mstore\n        /* \"#utility.yul\":4475:4513   */\n      tag_325\n        /* \"#utility.yul\":4509:4511   */\n      0x40\n        /* \"#utility.yul\":4505:4507   */\n      dup5\n        /* \"#utility.yul\":4501:4512   */\n      add\n        /* \"#utility.yul\":4475:4513   */\n      tag_278\n      jump\t// in\n    tag_325:\n        /* \"#utility.yul\":4470:4472   */\n      0x40\n        /* \"#utility.yul\":4463:4468   */\n      dup3\n        /* \"#utility.yul\":4459:4473   */\n      add\n        /* \"#utility.yul\":4452:4514   */\n      mstore\n        /* \"#utility.yul\":4546:4575   */\n      tag_326\n        /* \"#utility.yul\":4571:4573   */\n      0x60\n        /* \"#utility.yul\":4567:4569   */\n      dup5\n        /* \"#utility.yul\":4563:4574   */\n      add\n        /* \"#utility.yul\":4546:4575   */\n      tag_279\n      jump\t// in\n    tag_326:\n        /* \"#utility.yul\":4541:4543   */\n      0x60\n        /* \"#utility.yul\":4534:4539   */\n      dup3\n        /* \"#utility.yul\":4530:4544   */\n      add\n        /* \"#utility.yul\":4523:4576   */\n      mstore\n        /* \"#utility.yul\":4622:4625   */\n      0x80\n        /* \"#utility.yul\":4618:4620   */\n      dup4\n        /* \"#utility.yul\":4614:4626   */\n      add\n        /* \"#utility.yul\":4601:4627   */\n      calldataload\n        /* \"#utility.yul\":4652:4654   */\n      dup3\n        /* \"#utility.yul\":4642:4650   */\n      dup2\n        /* \"#utility.yul\":4639:4655   */\n      gt\n        /* \"#utility.yul\":4636:4672   */\n      iszero\n      tag_327\n      jumpi\n        /* \"#utility.yul\":4668:4669   */\n      0x00\n        /* \"#utility.yul\":4665:4666   */\n      dup1\n        /* \"#utility.yul\":4658:4670   */\n      revert\n        /* \"#utility.yul\":4636:4672   */\n    tag_327:\n        /* \"#utility.yul\":4705:4750   */\n      tag_328\n        /* \"#utility.yul\":4742:4749   */\n      dup8\n        /* \"#utility.yul\":4731:4739   */\n      dup3\n        /* \"#utility.yul\":4727:4729   */\n      dup7\n        /* \"#utility.yul\":4723:4740   */\n      add\n        /* \"#utility.yul\":4705:4750   */\n      tag_280\n      jump\t// in\n    tag_328:\n        /* \"#utility.yul\":4699:4702   */\n      0x80\n        /* \"#utility.yul\":4692:4697   */\n      dup4\n        /* \"#utility.yul\":4688:4703   */\n      add\n        /* \"#utility.yul\":4681:4751   */\n      mstore\n      pop\n        /* \"#utility.yul\":4797:4800   */\n      0xa0\n        /* \"#utility.yul\":4793:4795   */\n      dup4\n        /* \"#utility.yul\":4789:4801   */\n      add\n        /* \"#utility.yul\":4776:4802   */\n      calldataload\n        /* \"#utility.yul\":4827:4829   */\n      dup3\n        /* \"#utility.yul\":4817:4825   */\n      dup2\n        /* \"#utility.yul\":4814:4830   */\n      gt\n        /* \"#utility.yul\":4811:4847   */\n      iszero\n      tag_329\n      jumpi\n        /* \"#utility.yul\":4843:4844   */\n      0x00\n        /* \"#utility.yul\":4840:4841   */\n      dup1\n        /* \"#utility.yul\":4833:4845   */\n      revert\n        /* \"#utility.yul\":4811:4847   */\n    tag_329:\n        /* \"#utility.yul\":4880:4925   */\n      tag_330\n        /* \"#utility.yul\":4917:4924   */\n      dup8\n        /* \"#utility.yul\":4906:4914   */\n      dup3\n        /* \"#utility.yul\":4902:4904   */\n      dup7\n        /* \"#utility.yul\":4898:4915   */\n      add\n        /* \"#utility.yul\":4880:4925   */\n      tag_280\n      jump\t// in\n    tag_330:\n        /* \"#utility.yul\":4874:4877   */\n      0xa0\n        /* \"#utility.yul\":4867:4872   */\n      dup4\n        /* \"#utility.yul\":4863:4878   */\n      add\n        /* \"#utility.yul\":4856:4926   */\n      mstore\n      pop\n        /* \"#utility.yul\":4959:4991   */\n      tag_331\n        /* \"#utility.yul\":4986:4989   */\n      0xc0\n        /* \"#utility.yul\":4982:4984   */\n      dup5\n        /* \"#utility.yul\":4978:4990   */\n      add\n        /* \"#utility.yul\":4959:4991   */\n      tag_276\n      jump\t// in\n    tag_331:\n        /* \"#utility.yul\":4953:4956   */\n      0xc0\n        /* \"#utility.yul\":4942:4957   */\n      dup3\n      add\n        /* \"#utility.yul\":4935:4992   */\n      mstore\n        /* \"#utility.yul\":4946:4951   */\n      swap6\n        /* \"#utility.yul\":3911:5022   */\n      swap5\n      pop\n      pop\n      pop\n      pop\n      pop\n      jump\t// out\n        /* \"#utility.yul\":5027:5552   */\n    tag_58:\n        /* \"#utility.yul\":5113:5119   */\n      0x00\n        /* \"#utility.yul\":5121:5127   */\n      dup1\n        /* \"#utility.yul\":5129:5135   */\n      0x00\n        /* \"#utility.yul\":5137:5143   */\n      dup1\n        /* \"#utility.yul\":5190:5193   */\n      0x80\n        /* \"#utility.yul\":5178:5187   */\n      dup6\n        /* \"#utility.yul\":5169:5176   */\n      dup8\n        /* \"#utility.yul\":5165:5188   */\n      sub\n        /* \"#utility.yul\":5161:5194   */\n      slt\n        /* \"#utility.yul\":5158:5211   */\n      iszero\n      tag_333\n      jumpi\n        /* \"#utility.yul\":5207:5208   */\n      0x00\n        /* \"#utility.yul\":5204:5205   */\n      dup1\n        /* \"#utility.yul\":5197:5209   */\n      revert\n        /* \"#utility.yul\":5158:5211   */\n    tag_333:\n        /* \"#utility.yul\":5246:5255   */\n      dup5\n        /* \"#utility.yul\":5233:5256   */\n      calldataload\n        /* \"#utility.yul\":5265:5296   */\n      tag_334\n        /* \"#utility.yul\":5290:5295   */\n      dup2\n        /* \"#utility.yul\":5265:5296   */\n      tag_275\n      jump\t// in\n    tag_334:\n        /* \"#utility.yul\":5315:5320   */\n      swap4\n      pop\n        /* \"#utility.yul\":5367:5369   */\n      0x20\n        /* \"#utility.yul\":5352:5370   */\n      dup6\n      add\n        /* \"#utility.yul\":5339:5371   */\n      calldataload\n      swap3\n      pop\n        /* \"#utility.yul\":5418:5420   */\n      0x40\n        /* \"#utility.yul\":5403:5421   */\n      dup6\n      add\n        /* \"#utility.yul\":5390:5422   */\n      calldataload\n      swap2\n      pop\n        /* \"#utility.yul\":5474:5476   */\n      0x60\n        /* \"#utility.yul\":5459:5477   */\n      dup6\n      add\n        /* \"#utility.yul\":5446:5478   */\n      calldataload\n        /* \"#utility.yul\":5487:5520   */\n      tag_335\n        /* \"#utility.yul\":5446:5478   */\n      dup2\n        /* \"#utility.yul\":5487:5520   */\n      tag_275\n      jump\t// in\n    tag_335:\n        /* \"#utility.yul\":5027:5552   */\n      swap4\n      swap7\n      swap3\n      swap6\n      pop\n      swap1\n      swap4\n      pop\n      pop\n      jump\t// out\n        /* \"#utility.yul\":5557:6013   */\n    tag_70:\n        /* \"#utility.yul\":5634:5640   */\n      0x00\n        /* \"#utility.yul\":5642:5648   */\n      dup1\n        /* \"#utility.yul\":5650:5656   */\n      0x00\n        /* \"#utility.yul\":5703:5705   */\n      0x60\n        /* \"#utility.yul\":5691:5700   */\n      dup5\n        /* \"#utility.yul\":5682:5689   */\n      dup7\n        /* \"#utility.yul\":5678:5701   */\n      sub\n        /* \"#utility.yul\":5674:5706   */\n      slt\n        /* \"#utility.yul\":5671:5723   */\n      iszero\n      tag_337\n      jumpi\n        /* \"#utility.yul\":5719:5720   */\n      0x00\n        /* \"#utility.yul\":5716:5717   */\n      dup1\n        /* \"#utility.yul\":5709:5721   */\n      revert\n        /* \"#utility.yul\":5671:5723   */\n    tag_337:\n        /* \"#utility.yul\":5755:5764   */\n      dup4\n        /* \"#utility.yul\":5742:5765   */\n      calldataload\n        /* \"#utility.yul\":5732:5765   */\n      swap3\n      pop\n        /* \"#utility.yul\":5815:5817   */\n      0x20\n        /* \"#utility.yul\":5804:5813   */\n      dup5\n        /* \"#utility.yul\":5800:5818   */\n      add\n        /* \"#utility.yul\":5787:5819   */\n      calldataload\n        /* \"#utility.yul\":5828:5859   */\n      tag_338\n        /* \"#utility.yul\":5853:5858   */\n      dup2\n        /* \"#utility.yul\":5828:5859   */\n      tag_275\n      jump\t// in\n    tag_338:\n        /* \"#utility.yul\":5878:5883   */\n      swap2\n      pop\n        /* \"#utility.yul\":5935:5937   */\n      0x40\n        /* \"#utility.yul\":5920:5938   */\n      dup5\n      add\n        /* \"#utility.yul\":5907:5939   */\n      calldataload\n        /* \"#utility.yul\":5948:5981   */\n      tag_339\n        /* \"#utility.yul\":5907:5939   */\n      dup2\n        /* \"#utility.yul\":5948:5981   */\n      tag_275\n      jump\t// in\n    tag_339:\n        /* \"#utility.yul\":6000:6007   */\n      dup1\n        /* \"#utility.yul\":5990:6007   */\n      swap2\n      pop\n      pop\n        /* \"#utility.yul\":5557:6013   */\n      swap3\n      pop\n      swap3\n      pop\n      swap3\n      jump\t// out\n        /* \"#utility.yul\":6018:6401   */\n    tag_74:\n        /* \"#utility.yul\":6095:6101   */\n      0x00\n        /* \"#utility.yul\":6103:6109   */\n      dup1\n        /* \"#utility.yul\":6111:6117   */\n      0x00\n        /* \"#utility.yul\":6164:6166   */\n      0x60\n        /* \"#utility.yul\":6152:6161   */\n      dup5\n        /* \"#utility.yul\":6143:6150   */\n      dup7\n        /* \"#utility.yul\":6139:6162   */\n      sub\n        /* \"#utility.yul\":6135:6167   */\n      slt\n        /* \"#utility.yul\":6132:6184   */\n      iszero\n      tag_341\n      jumpi\n        /* \"#utility.yul\":6180:6181   */\n      0x00\n        /* \"#utility.yul\":6177:6178   */\n      dup1\n        /* \"#utility.yul\":6170:6182   */\n      revert\n        /* \"#utility.yul\":6132:6184   */\n    tag_341:\n        /* \"#utility.yul\":6216:6225   */\n      dup4\n        /* \"#utility.yul\":6203:6226   */\n      calldataload\n        /* \"#utility.yul\":6193:6226   */\n      swap3\n      pop\n        /* \"#utility.yul\":6276:6278   */\n      0x20\n        /* \"#utility.yul\":6265:6274   */\n      dup5\n        /* \"#utility.yul\":6261:6279   */\n      add\n        /* \"#utility.yul\":6248:6280   */\n      calldataload\n        /* \"#utility.yul\":6289:6320   */\n      tag_342\n        /* \"#utility.yul\":6314:6319   */\n      dup2\n        /* \"#utility.yul\":6289:6320   */\n      tag_275\n      jump\t// in\n    tag_342:\n        /* \"#utility.yul\":6018:6401   */\n      swap3\n      swap6\n        /* \"#utility.yul\":6339:6344   */\n      swap3\n      swap5\n      pop\n      pop\n      pop\n        /* \"#utility.yul\":6391:6393   */\n      0x40\n        /* \"#utility.yul\":6376:6394   */\n      swap2\n      swap1\n      swap2\n      add\n        /* \"#utility.yul\":6363:6395   */\n      calldataload\n      swap1\n        /* \"#utility.yul\":6018:6401   */\n      jump\t// out\n        /* \"#utility.yul\":6406:6533   */\n    tag_128:\n        /* \"#utility.yul\":6467:6477   */\n      0x4e487b71\n        /* \"#utility.yul\":6462:6465   */\n      0xe0\n        /* \"#utility.yul\":6458:6478   */\n      shl\n        /* \"#utility.yul\":6455:6456   */\n      0x00\n        /* \"#utility.yul\":6448:6479   */\n      mstore\n        /* \"#utility.yul\":6498:6502   */\n      0x21\n        /* \"#utility.yul\":6495:6496   */\n      0x04\n        /* \"#utility.yul\":6488:6503   */\n      mstore\n        /* \"#utility.yul\":6522:6526   */\n      0x24\n        /* \"#utility.yul\":6519:6520   */\n      0x00\n        /* \"#utility.yul\":6512:6527   */\n      revert\n        /* \"#utility.yul\":6538:6961   */\n    tag_281:\n        /* \"#utility.yul\":6580:6583   */\n      0x00\n        /* \"#utility.yul\":6618:6623   */\n      dup2\n        /* \"#utility.yul\":6612:6624   */\n      mload\n        /* \"#utility.yul\":6645:6651   */\n      dup1\n        /* \"#utility.yul\":6640:6643   */\n      dup5\n        /* \"#utility.yul\":6633:6652   */\n      mstore\n        /* \"#utility.yul\":6670:6671   */\n      0x00\n        /* \"#utility.yul\":6680:6842   */\n    tag_345:\n        /* \"#utility.yul\":6694:6700   */\n      dup2\n        /* \"#utility.yul\":6691:6692   */\n      dup2\n        /* \"#utility.yul\":6688:6701   */\n      lt\n        /* \"#utility.yul\":6680:6842   */\n      iszero\n      tag_347\n      jumpi\n        /* \"#utility.yul\":6756:6760   */\n      0x20\n        /* \"#utility.yul\":6812:6825   */\n      dup2\n      dup6\n      add\n        /* \"#utility.yul\":6808:6830   */\n      dup2\n      add\n        /* \"#utility.yul\":6802:6831   */\n      mload\n        /* \"#utility.yul\":6784:6795   */\n      dup7\n      dup4\n      add\n        /* \"#utility.yul\":6780:6800   */\n      dup3\n      add\n        /* \"#utility.yul\":6773:6832   */\n      mstore\n        /* \"#utility.yul\":6709:6721   */\n      add\n        /* \"#utility.yul\":6680:6842   */\n      jump(tag_345)\n    tag_347:\n        /* \"#utility.yul\":6684:6687   */\n      pop\n        /* \"#utility.yul\":6887:6888   */\n      0x00\n        /* \"#utility.yul\":6880:6884   */\n      0x20\n        /* \"#utility.yul\":6871:6877   */\n      dup3\n        /* \"#utility.yul\":6866:6869   */\n      dup7\n        /* \"#utility.yul\":6862:6878   */\n      add\n        /* \"#utility.yul\":6858:6885   */\n      add\n        /* \"#utility.yul\":6851:6889   */\n      mstore\n        /* \"#utility.yul\":6950:6954   */\n      0x20\n        /* \"#utility.yul\":6943:6945   */\n      0x1f\n        /* \"#utility.yul\":6939:6946   */\n      not\n        /* \"#utility.yul\":6934:6936   */\n      0x1f\n        /* \"#utility.yul\":6926:6932   */\n      dup4\n        /* \"#utility.yul\":6922:6937   */\n      add\n        /* \"#utility.yul\":6918:6947   */\n      and\n        /* \"#utility.yul\":6913:6916   */\n      dup6\n        /* \"#utility.yul\":6909:6948   */\n      add\n        /* \"#utility.yul\":6905:6955   */\n      add\n        /* \"#utility.yul\":6898:6955   */\n      swap2\n      pop\n      pop\n        /* \"#utility.yul\":6538:6961   */\n      swap3\n      swap2\n      pop\n      pop\n      jump\t// out\n        /* \"#utility.yul\":6966:7937   */\n    tag_80:\n      sub(shl(0xa0, 0x01), 0x01)\n        /* \"#utility.yul\":7349:7364   */\n      dup9\n      dup2\n      and\n        /* \"#utility.yul\":7331:7365   */\n      dup3\n      mstore\n        /* \"#utility.yul\":7396:7398   */\n      0x20\n        /* \"#utility.yul\":7381:7399   */\n      dup3\n      add\n        /* \"#utility.yul\":7374:7408   */\n      dup9\n      swap1\n      mstore\n        /* \"#utility.yul\":7274:7278   */\n      0x00\n      swap1\n        /* \"#utility.yul\":7438:7439   */\n      0x02\n        /* \"#utility.yul\":7427:7440   */\n      dup9\n      lt\n        /* \"#utility.yul\":7417:7561   */\n      tag_349\n      jumpi\n        /* \"#utility.yul\":7483:7493   */\n      0x4e487b71\n        /* \"#utility.yul\":7478:7481   */\n      0xe0\n        /* \"#utility.yul\":7474:7494   */\n      shl\n        /* \"#utility.yul\":7471:7472   */\n      0x00\n        /* \"#utility.yul\":7464:7495   */\n      mstore\n        /* \"#utility.yul\":7518:7522   */\n      0x21\n        /* \"#utility.yul\":7515:7516   */\n      0x04\n        /* \"#utility.yul\":7508:7523   */\n      mstore\n        /* \"#utility.yul\":7546:7550   */\n      0x24\n        /* \"#utility.yul\":7543:7544   */\n      0x00\n        /* \"#utility.yul\":7536:7551   */\n      revert\n        /* \"#utility.yul\":7417:7561   */\n    tag_349:\n        /* \"#utility.yul\":7597:7603   */\n      dup8\n        /* \"#utility.yul\":7592:7594   */\n      0x40\n        /* \"#utility.yul\":7581:7590   */\n      dup5\n        /* \"#utility.yul\":7577:7595   */\n      add\n        /* \"#utility.yul\":7570:7604   */\n      mstore\n        /* \"#utility.yul\":7652:7656   */\n      0xff\n        /* \"#utility.yul\":7644:7650   */\n      dup8\n        /* \"#utility.yul\":7640:7657   */\n      and\n        /* \"#utility.yul\":7635:7637   */\n      0x60\n        /* \"#utility.yul\":7624:7633   */\n      dup5\n        /* \"#utility.yul\":7620:7638   */\n      add\n        /* \"#utility.yul\":7613:7658   */\n      mstore\n        /* \"#utility.yul\":7695:7698   */\n      0xe0\n        /* \"#utility.yul\":7689:7692   */\n      0x80\n        /* \"#utility.yul\":7678:7687   */\n      dup5\n        /* \"#utility.yul\":7674:7693   */\n      add\n        /* \"#utility.yul\":7667:7699   */\n      mstore\n        /* \"#utility.yul\":7722:7768   */\n      tag_350\n        /* \"#utility.yul\":7763:7766   */\n      0xe0\n        /* \"#utility.yul\":7752:7761   */\n      dup5\n        /* \"#utility.yul\":7748:7767   */\n      add\n        /* \"#utility.yul\":7740:7746   */\n      dup8\n        /* \"#utility.yul\":7722:7768   */\n      tag_281\n      jump\t// in\n    tag_350:\n        /* \"#utility.yul\":7817:7826   */\n      dup4\n        /* \"#utility.yul\":7809:7815   */\n      dup2\n        /* \"#utility.yul\":7805:7827   */\n      sub\n        /* \"#utility.yul\":7799:7802   */\n      0xa0\n        /* \"#utility.yul\":7788:7797   */\n      dup6\n        /* \"#utility.yul\":7784:7803   */\n      add\n        /* \"#utility.yul\":7777:7828   */\n      mstore\n        /* \"#utility.yul\":7845:7878   */\n      tag_351\n        /* \"#utility.yul\":7871:7877   */\n      dup2\n        /* \"#utility.yul\":7863:7869   */\n      dup8\n        /* \"#utility.yul\":7845:7878   */\n      tag_281\n      jump\t// in\n    tag_351:\n        /* \"#utility.yul\":7837:7878   */\n      swap3\n      pop\n      pop\n        /* \"#utility.yul\":7927:7929   */\n      dup1\n        /* \"#utility.yul\":7919:7925   */\n      dup5\n        /* \"#utility.yul\":7915:7930   */\n      and\n        /* \"#utility.yul\":7909:7912   */\n      0xc0\n        /* \"#utility.yul\":7898:7907   */\n      dup5\n        /* \"#utility.yul\":7894:7913   */\n      add\n        /* \"#utility.yul\":7887:7931   */\n      mstore\n      pop\n        /* \"#utility.yul\":6966:7937   */\n      swap9\n      swap8\n      pop\n      pop\n      pop\n      pop\n      pop\n      pop\n      pop\n      pop\n      jump\t// out\n        /* \"#utility.yul\":8582:8965   */\n    tag_133:\n        /* \"#utility.yul\":8779:8781   */\n      0x40\n        /* \"#utility.yul\":8768:8777   */\n      dup2\n        /* \"#utility.yul\":8761:8782   */\n      mstore\n        /* \"#utility.yul\":8742:8746   */\n      0x00\n        /* \"#utility.yul\":8805:8850   */\n      tag_355\n        /* \"#utility.yul\":8846:8848   */\n      0x40\n        /* \"#utility.yul\":8835:8844   */\n      dup4\n        /* \"#utility.yul\":8831:8849   */\n      add\n        /* \"#utility.yul\":8823:8829   */\n      dup6\n        /* \"#utility.yul\":8805:8850   */\n      tag_281\n      jump\t// in\n    tag_355:\n        /* \"#utility.yul\":8898:8907   */\n      dup3\n        /* \"#utility.yul\":8890:8896   */\n      dup2\n        /* \"#utility.yul\":8886:8908   */\n      sub\n        /* \"#utility.yul\":8881:8883   */\n      0x20\n        /* \"#utility.yul\":8870:8879   */\n      dup5\n        /* \"#utility.yul\":8866:8884   */\n      add\n        /* \"#utility.yul\":8859:8909   */\n      mstore\n        /* \"#utility.yul\":8926:8959   */\n      tag_356\n        /* \"#utility.yul\":8952:8958   */\n      dup2\n        /* \"#utility.yul\":8944:8950   */\n      dup6\n        /* \"#utility.yul\":8926:8959   */\n      tag_281\n      jump\t// in\n    tag_356:\n        /* \"#utility.yul\":8918:8959   */\n      swap6\n        /* \"#utility.yul\":8582:8965   */\n      swap5\n      pop\n      pop\n      pop\n      pop\n      pop\n      jump\t// out\n        /* \"#utility.yul\":8970:9221   */\n    tag_137:\n        /* \"#utility.yul\":9040:9046   */\n      0x00\n        /* \"#utility.yul\":9093:9095   */\n      0x20\n        /* \"#utility.yul\":9081:9090   */\n      dup3\n        /* \"#utility.yul\":9072:9079   */\n      dup5\n        /* \"#utility.yul\":9068:9091   */\n      sub\n        /* \"#utility.yul\":9064:9096   */\n      slt\n        /* \"#utility.yul\":9061:9113   */\n      iszero\n      tag_358\n      jumpi\n        /* \"#utility.yul\":9109:9110   */\n      0x00\n        /* \"#utility.yul\":9106:9107   */\n      dup1\n        /* \"#utility.yul\":9099:9111   */\n      revert\n        /* \"#utility.yul\":9061:9113   */\n    tag_358:\n        /* \"#utility.yul\":9141:9150   */\n      dup2\n        /* \"#utility.yul\":9135:9151   */\n      mload\n        /* \"#utility.yul\":9160:9191   */\n      tag_288\n        /* \"#utility.yul\":9185:9190   */\n      dup2\n        /* \"#utility.yul\":9160:9191   */\n      tag_275\n      jump\t// in\n        /* \"#utility.yul\":9525:9905   */\n    tag_187:\n        /* \"#utility.yul\":9604:9605   */\n      0x01\n        /* \"#utility.yul\":9600:9612   */\n      dup2\n      dup2\n      shr\n      swap1\n        /* \"#utility.yul\":9647:9659   */\n      dup3\n      and\n      dup1\n        /* \"#utility.yul\":9668:9729   */\n      tag_362\n      jumpi\n        /* \"#utility.yul\":9722:9726   */\n      0x7f\n        /* \"#utility.yul\":9714:9720   */\n      dup3\n        /* \"#utility.yul\":9710:9727   */\n      and\n        /* \"#utility.yul\":9700:9727   */\n      swap2\n      pop\n        /* \"#utility.yul\":9668:9729   */\n    tag_362:\n        /* \"#utility.yul\":9775:9777   */\n      0x20\n        /* \"#utility.yul\":9767:9773   */\n      dup3\n        /* \"#utility.yul\":9764:9778   */\n      lt\n        /* \"#utility.yul\":9744:9762   */\n      dup2\n        /* \"#utility.yul\":9741:9779   */\n      sub\n        /* \"#utility.yul\":9738:9899   */\n      tag_363\n      jumpi\n        /* \"#utility.yul\":9821:9831   */\n      0x4e487b71\n        /* \"#utility.yul\":9816:9819   */\n      0xe0\n        /* \"#utility.yul\":9812:9832   */\n      shl\n        /* \"#utility.yul\":9809:9810   */\n      0x00\n        /* \"#utility.yul\":9802:9833   */\n      mstore\n        /* \"#utility.yul\":9856:9860   */\n      0x22\n        /* \"#utility.yul\":9853:9854   */\n      0x04\n        /* \"#utility.yul\":9846:9861   */\n      mstore\n        /* \"#utility.yul\":9884:9888   */\n      0x24\n        /* \"#utility.yul\":9881:9882   */\n      0x00\n        /* \"#utility.yul\":9874:9889   */\n      revert\n        /* \"#utility.yul\":9738:9899   */\n    tag_363:\n      pop\n        /* \"#utility.yul\":9525:9905   */\n      swap2\n      swap1\n      pop\n      jump\t// out\n        /* \"#utility.yul\":10036:10554   */\n    tag_283:\n        /* \"#utility.yul\":10138:10140   */\n      0x1f\n        /* \"#utility.yul\":10133:10136   */\n      dup3\n        /* \"#utility.yul\":10130:10141   */\n      gt\n        /* \"#utility.yul\":10127:10548   */\n      iszero\n      tag_166\n      jumpi\n        /* \"#utility.yul\":10174:10179   */\n      dup1\n        /* \"#utility.yul\":10171:10172   */\n      0x00\n        /* \"#utility.yul\":10164:10180   */\n      mstore\n        /* \"#utility.yul\":10218:10222   */\n      0x20\n        /* \"#utility.yul\":10215:10216   */\n      0x00\n        /* \"#utility.yul\":10205:10223   */\n      keccak256\n        /* \"#utility.yul\":10288:10290   */\n      0x1f\n        /* \"#utility.yul\":10276:10286   */\n      dup5\n        /* \"#utility.yul\":10272:10291   */\n      add\n        /* \"#utility.yul\":10269:10270   */\n      0x05\n        /* \"#utility.yul\":10265:10292   */\n      shr\n        /* \"#utility.yul\":10259:10263   */\n      dup2\n        /* \"#utility.yul\":10255:10293   */\n      add\n        /* \"#utility.yul\":10324:10328   */\n      0x20\n        /* \"#utility.yul\":10312:10322   */\n      dup6\n        /* \"#utility.yul\":10309:10329   */\n      lt\n        /* \"#utility.yul\":10306:10353   */\n      iszero\n      tag_367\n      jumpi\n      pop\n        /* \"#utility.yul\":10347:10351   */\n      dup1\n        /* \"#utility.yul\":10306:10353   */\n    tag_367:\n        /* \"#utility.yul\":10402:10404   */\n      0x1f\n        /* \"#utility.yul\":10397:10400   */\n      dup5\n        /* \"#utility.yul\":10393:10405   */\n      add\n        /* \"#utility.yul\":10390:10391   */\n      0x05\n        /* \"#utility.yul\":10386:10406   */\n      shr\n        /* \"#utility.yul\":10380:10384   */\n      dup3\n        /* \"#utility.yul\":10376:10407   */\n      add\n        /* \"#utility.yul\":10366:10407   */\n      swap2\n      pop\n        /* \"#utility.yul\":10457:10538   */\n    tag_368:\n        /* \"#utility.yul\":10475:10477   */\n      dup2\n        /* \"#utility.yul\":10468:10473   */\n      dup2\n        /* \"#utility.yul\":10465:10478   */\n      lt\n        /* \"#utility.yul\":10457:10538   */\n      iszero\n      tag_370\n      jumpi\n        /* \"#utility.yul\":10534:10535   */\n      0x00\n        /* \"#utility.yul\":10520:10536   */\n      dup2\n      sstore\n        /* \"#utility.yul\":10501:10502   */\n      0x01\n        /* \"#utility.yul\":10490:10503   */\n      add\n        /* \"#utility.yul\":10457:10538   */\n      jump(tag_368)\n    tag_370:\n        /* \"#utility.yul\":10461:10464   */\n      pop\n      pop\n        /* \"#utility.yul\":10036:10554   */\n      pop\n      pop\n      pop\n      jump\t// out\n        /* \"#utility.yul\":10730:12075   */\n    tag_148:\n        /* \"#utility.yul\":10856:10859   */\n      dup2\n        /* \"#utility.yul\":10850:10860   */\n      mload\n        /* \"#utility.yul\":10883:10901   */\n      0xffffffffffffffff\n        /* \"#utility.yul\":10875:10881   */\n      dup2\n        /* \"#utility.yul\":10872:10902   */\n      gt\n        /* \"#utility.yul\":10869:10925   */\n      iszero\n      tag_374\n      jumpi\n        /* \"#utility.yul\":10905:10923   */\n      tag_374\n      tag_202\n      jump\t// in\n    tag_374:\n        /* \"#utility.yul\":10934:11031   */\n      tag_375\n        /* \"#utility.yul\":11024:11030   */\n      dup2\n        /* \"#utility.yul\":10984:11022   */\n      tag_376\n        /* \"#utility.yul\":11016:11020   */\n      dup5\n        /* \"#utility.yul\":11010:11021   */\n      sload\n        /* \"#utility.yul\":10984:11022   */\n      tag_187\n      jump\t// in\n    tag_376:\n        /* \"#utility.yul\":10978:10982   */\n      dup5\n        /* \"#utility.yul\":10934:11031   */\n      tag_283\n      jump\t// in\n    tag_375:\n        /* \"#utility.yul\":11086:11090   */\n      0x20\n      dup1\n        /* \"#utility.yul\":11143:11145   */\n      0x1f\n        /* \"#utility.yul\":11132:11146   */\n      dup4\n      gt\n        /* \"#utility.yul\":11160:11161   */\n      0x01\n        /* \"#utility.yul\":11155:11818   */\n      dup2\n      eq\n      tag_378\n      jumpi\n        /* \"#utility.yul\":11862:11863   */\n      0x00\n        /* \"#utility.yul\":11879:11885   */\n      dup5\n        /* \"#utility.yul\":11876:11965   */\n      iszero\n      tag_379\n      jumpi\n      pop\n        /* \"#utility.yul\":11931:11950   */\n      dup6\n      dup4\n      add\n        /* \"#utility.yul\":11925:11951   */\n      mload\n        /* \"#utility.yul\":11876:11965   */\n    tag_379:\n      not(0x00)\n        /* \"#utility.yul\":10687:10688   */\n      0x03\n        /* \"#utility.yul\":10683:10694   */\n      dup7\n      swap1\n      shl\n        /* \"#utility.yul\":10679:10703   */\n      shr\n        /* \"#utility.yul\":10675:10704   */\n      not\n        /* \"#utility.yul\":10665:10705   */\n      and\n        /* \"#utility.yul\":10711:10712   */\n      0x01\n        /* \"#utility.yul\":10707:10718   */\n      dup6\n      swap1\n      shl\n        /* \"#utility.yul\":10662:10719   */\n      or\n        /* \"#utility.yul\":11978:12059   */\n      dup6\n      sstore\n        /* \"#utility.yul\":11125:12069   */\n      jump(tag_377)\n        /* \"#utility.yul\":11155:11818   */\n    tag_378:\n        /* \"#utility.yul\":9983:9984   */\n      0x00\n        /* \"#utility.yul\":9976:9990   */\n      dup6\n      dup2\n      mstore\n        /* \"#utility.yul\":10020:10024   */\n      0x20\n        /* \"#utility.yul\":10007:10025   */\n      dup2\n      keccak256\n      not(0x1f)\n        /* \"#utility.yul\":11191:11211   */\n      dup7\n      and\n      swap2\n        /* \"#utility.yul\":11309:11545   */\n    tag_382:\n        /* \"#utility.yul\":11323:11330   */\n      dup3\n        /* \"#utility.yul\":11320:11321   */\n      dup2\n        /* \"#utility.yul\":11317:11331   */\n      lt\n        /* \"#utility.yul\":11309:11545   */\n      iszero\n      tag_384\n      jumpi\n        /* \"#utility.yul\":11412:11431   */\n      dup9\n      dup7\n      add\n        /* \"#utility.yul\":11406:11432   */\n      mload\n        /* \"#utility.yul\":11391:11433   */\n      dup3\n      sstore\n        /* \"#utility.yul\":11504:11531   */\n      swap5\n      dup5\n      add\n      swap5\n        /* \"#utility.yul\":11472:11473   */\n      0x01\n        /* \"#utility.yul\":11460:11474   */\n      swap1\n      swap2\n      add\n      swap1\n        /* \"#utility.yul\":11339:11358   */\n      dup5\n      add\n        /* \"#utility.yul\":11309:11545   */\n      jump(tag_382)\n    tag_384:\n        /* \"#utility.yul\":11313:11316   */\n      pop\n        /* \"#utility.yul\":11573:11579   */\n      dup6\n        /* \"#utility.yul\":11564:11571   */\n      dup3\n        /* \"#utility.yul\":11561:11580   */\n      lt\n        /* \"#utility.yul\":11558:11759   */\n      iszero\n      tag_385\n      jumpi\n        /* \"#utility.yul\":11634:11653   */\n      dup8\n      dup6\n      add\n        /* \"#utility.yul\":11628:11654   */\n      mload\n      not(0x00)\n        /* \"#utility.yul\":11717:11718   */\n      0x03\n        /* \"#utility.yul\":11713:11727   */\n      dup9\n      swap1\n      shl\n        /* \"#utility.yul\":11729:11732   */\n      0xf8\n        /* \"#utility.yul\":11709:11733   */\n      and\n        /* \"#utility.yul\":11705:11742   */\n      shr\n        /* \"#utility.yul\":11701:11743   */\n      not\n        /* \"#utility.yul\":11686:11744   */\n      and\n        /* \"#utility.yul\":11671:11745   */\n      dup2\n      sstore\n        /* \"#utility.yul\":11558:11759   */\n    tag_385:\n      pop\n      pop\n        /* \"#utility.yul\":11805:11806   */\n      0x01\n        /* \"#utility.yul\":11796:11802   */\n      dup5\n        /* \"#utility.yul\":11793:11794   */\n      0x01\n        /* \"#utility.yul\":11789:11803   */\n      shl\n        /* \"#utility.yul\":11785:11807   */\n      add\n        /* \"#utility.yul\":11779:11783   */\n      dup6\n        /* \"#utility.yul\":11772:11808   */\n      sstore\n        /* \"#utility.yul\":11125:12069   */\n    tag_377:\n      pop\n      pop\n      pop\n      pop\n        /* \"#utility.yul\":10730:12075   */\n      pop\n      pop\n      jump\t// out\n        /* \"#utility.yul\":12460:12737   */\n    tag_156:\n        /* \"#utility.yul\":12527:12533   */\n      0x00\n        /* \"#utility.yul\":12580:12582   */\n      0x20\n        /* \"#utility.yul\":12568:12577   */\n      dup3\n        /* \"#utility.yul\":12559:12566   */\n      dup5\n        /* \"#utility.yul\":12555:12578   */\n      sub\n        /* \"#utility.yul\":12551:12583   */\n      slt\n        /* \"#utility.yul\":12548:12600   */\n      iszero\n      tag_388\n      jumpi\n        /* \"#utility.yul\":12596:12597   */\n      0x00\n        /* \"#utility.yul\":12593:12594   */\n      dup1\n        /* \"#utility.yul\":12586:12598   */\n      revert\n        /* \"#utility.yul\":12548:12600   */\n    tag_388:\n        /* \"#utility.yul\":12628:12637   */\n      dup2\n        /* \"#utility.yul\":12622:12638   */\n      mload\n        /* \"#utility.yul\":12681:12686   */\n      dup1\n        /* \"#utility.yul\":12674:12687   */\n      iszero\n        /* \"#utility.yul\":12667:12688   */\n      iszero\n        /* \"#utility.yul\":12660:12665   */\n      dup2\n        /* \"#utility.yul\":12657:12689   */\n      eq\n        /* \"#utility.yul\":12647:12707   */\n      tag_288\n      jumpi\n        /* \"#utility.yul\":12703:12704   */\n      0x00\n        /* \"#utility.yul\":12700:12701   */\n      dup1\n        /* \"#utility.yul\":12693:12705   */\n      revert\n        /* \"#utility.yul\":14834:15220   */\n    tag_205:\n        /* \"#utility.yul\":15066:15067   */\n      0x01\n        /* \"#utility.yul\":15062:15063   */\n      dup1\n        /* \"#utility.yul\":15057:15060   */\n      0xa0\n        /* \"#utility.yul\":15053:15064   */\n      shl\n        /* \"#utility.yul\":15049:15068   */\n      sub\n        /* \"#utility.yul\":15041:15047   */\n      dup5\n        /* \"#utility.yul\":15037:15069   */\n      and\n        /* \"#utility.yul\":15026:15035   */\n      dup2\n        /* \"#utility.yul\":15019:15070   */\n      mstore\n        /* \"#utility.yul\":15106:15112   */\n      dup3\n        /* \"#utility.yul\":15101:15103   */\n      0x20\n        /* \"#utility.yul\":15090:15099   */\n      dup3\n        /* \"#utility.yul\":15086:15104   */\n      add\n        /* \"#utility.yul\":15079:15113   */\n      mstore\n        /* \"#utility.yul\":15149:15151   */\n      0x60\n        /* \"#utility.yul\":15144:15146   */\n      0x40\n        /* \"#utility.yul\":15133:15142   */\n      dup3\n        /* \"#utility.yul\":15129:15147   */\n      add\n        /* \"#utility.yul\":15122:15152   */\n      mstore\n        /* \"#utility.yul\":15000:15004   */\n      0x00\n        /* \"#utility.yul\":15169:15214   */\n      tag_356\n        /* \"#utility.yul\":15210:15212   */\n      0x60\n        /* \"#utility.yul\":15199:15208   */\n      dup4\n        /* \"#utility.yul\":15195:15213   */\n      add\n        /* \"#utility.yul\":15187:15193   */\n      dup5\n        /* \"#utility.yul\":15169:15214   */\n      tag_281\n      jump\t// in\n        /* \"#utility.yul\":15225:15694   */\n    tag_243:\n        /* \"#utility.yul\":15479:15480   */\n      0x01\n        /* \"#utility.yul\":15475:15476   */\n      dup1\n        /* \"#utility.yul\":15470:15473   */\n      0xa0\n        /* \"#utility.yul\":15466:15477   */\n      shl\n        /* \"#utility.yul\":15462:15481   */\n      sub\n        /* \"#utility.yul\":15454:15460   */\n      dup6\n        /* \"#utility.yul\":15450:15482   */\n      and\n        /* \"#utility.yul\":15439:15448   */\n      dup2\n        /* \"#utility.yul\":15432:15483   */\n      mstore\n        /* \"#utility.yul\":15519:15525   */\n      dup4\n        /* \"#utility.yul\":15514:15516   */\n      0x20\n        /* \"#utility.yul\":15503:15512   */\n      dup3\n        /* \"#utility.yul\":15499:15517   */\n      add\n        /* \"#utility.yul\":15492:15526   */\n      mstore\n        /* \"#utility.yul\":15576:15582   */\n      dup3\n        /* \"#utility.yul\":15569:15583   */\n      iszero\n        /* \"#utility.yul\":15562:15584   */\n      iszero\n        /* \"#utility.yul\":15557:15559   */\n      0x40\n        /* \"#utility.yul\":15546:15555   */\n      dup3\n        /* \"#utility.yul\":15542:15560   */\n      add\n        /* \"#utility.yul\":15535:15585   */\n      mstore\n        /* \"#utility.yul\":15621:15624   */\n      0x80\n        /* \"#utility.yul\":15616:15618   */\n      0x60\n        /* \"#utility.yul\":15605:15614   */\n      dup3\n        /* \"#utility.yul\":15601:15619   */\n      add\n        /* \"#utility.yul\":15594:15625   */\n      mstore\n        /* \"#utility.yul\":15413:15417   */\n      0x00\n        /* \"#utility.yul\":15642:15688   */\n      tag_398\n        /* \"#utility.yul\":15683:15686   */\n      0x80\n        /* \"#utility.yul\":15672:15681   */\n      dup4\n        /* \"#utility.yul\":15668:15687   */\n      add\n        /* \"#utility.yul\":15660:15666   */\n      dup5\n        /* \"#utility.yul\":15642:15688   */\n      tag_281\n      jump\t// in\n    tag_398:\n        /* \"#utility.yul\":15634:15688   */\n      swap7\n        /* \"#utility.yul\":15225:15694   */\n      swap6\n      pop\n      pop\n      pop\n      pop\n      pop\n      pop\n      jump\t// out\n\n    auxdata: 0xa26469706673582212205d50a3cb6be2bfd34fa0d0a6d24a244216ef6104de27e166abcdc003a835a13164736f6c63430008160033\n}\n",
				"bytecode": {
					"linkReferences": {},
					"object": "608060405234801561000f575f80fd5b5061001a5f3361004a565b506100457fe2b7fb3b832174769106daebcfd6d1970523240dda11281102db9363b83b0dc45f6100f3565b61013d565b5f828152602081815260408083206001600160a01b038516845290915281205460ff166100ea575f838152602081815260408083206001600160a01b03861684529091529020805460ff191660011790556100a23390565b6001600160a01b0316826001600160a01b0316847f2f8788117e7eff1d82e926ec794901d17c78024a50270940304540a733656f0d60405160405180910390a45060016100ed565b505f5b92915050565b5f82815260208190526040808220600101805490849055905190918391839186917fbd79b86ffe0ab8e8776151514217cd7cacd52c909f66475c3af44e129f0b00ff9190a4505050565b611949806200014b5f395ff3fe608060405234801561000f575f80fd5b5060043610610132575f3560e01c806362a00971116100b45780639a67e7f9116100795780639a67e7f91461035b578063a217fddf1461036e578063d547741f14610375578063e77772fe14610388578063eac213ce14610273578063f86da94514610273575f80fd5b806362a00971146102d557806363a4e95f146102e85780637f7b0109146102fb57806391d1485414610321578063926d7d7f14610334575f80fd5b806331ba1648116100fa57806331ba16481461028857806333b15aad1461029b57806336568abe146102ae57806339578521146102c15780634c597f8a14610273575f80fd5b806301ffc9a7146101365780631385c6701461015e578063248a9ca3146102305780632f2ff15d146102605780632f73a9f814610275575b5f80fd5b61014961014436600461130b565b6103b3565b60405190151581526020015b60405180910390f35b6101d561016c366004611339565b600260208181525f928352604092839020835160c08101855281548152600182015492810192909252918201546001600160a01b039081169382019390935260038201546060820152600482015483166080820152600582015490921660a08301526006015482565b604080518351815260208085015190820152838201516001600160a01b03908116928201929092526060808501519082015260808085015183169082015260a0938401519091169281019290925260c082015260e001610155565b61025261023e366004611339565b5f9081526020819052604090206001015490565b604051908152602001610155565b61027361026e366004611374565b6103e9565b005b6102736102833660046113a2565b61040d565b6102736102963660046114a1565b6104a5565b6102736102a936600461157a565b61072c565b6102736102bc366004611374565b61097f565b6102736102cf36600461157a565b50505050565b6102736102e33660046115c1565b6109b7565b6102736102f6366004611600565b610aa2565b61030e610309366004611339565b610d48565b604051610155979695949392919061168c565b61014961032f366004611374565b610ead565b6102527fe2b7fb3b832174769106daebcfd6d1970523240dda11281102db9363b83b0dc481565b610273610369366004611600565b610ed5565b6102525f81565b610273610383366004611374565b6111a5565b60035461039b906001600160a01b031681565b6040516001600160a01b039091168152602001610155565b5f6001600160e01b03198216637965db0b60e01b14806103e357506301ffc9a760e01b6001600160e01b03198316145b92915050565b5f82815260208190526040902060010154610403816111c9565b6102cf83836111d6565b6104165f6111c9565b6001600160a01b0381166104835760405162461bcd60e51b815260206004820152602960248201527f43616e277420736574204c535020466163746f727920746f20746865207a65726044820152686f206164647265737360b81b60648201526084015b60405180910390fd5b600380546001600160a01b0319166001600160a01b0392909216919091179055565b6104ae5f6111c9565b5f80826040015160018111156104c6576104c6611635565b0361054c5760035460a08301516080840151604051638fe5980760e01b81526001600160a01b0390931692638fe598079261050592909160040161170b565b6020604051808303815f875af1158015610521573d5f803e3d5ffd5b505050506040513d601f19601f820116820180604052508101906105459190611738565b90506105c9565b60035460a0830151608084015160405163c2c2b31f60e01b81526001600160a01b039093169263c2c2b31f9261058692909160040161170b565b6020604051808303815f875af11580156105a2573d5f803e3d5ffd5b505050506040513d601f19601f820116820180604052508101906105c69190611738565b90505b6001600160a01b03811660c083015281516020808401516040515f9361060f939092910160609290921b6bffffffffffffffffffffffff19168252601482015260340190565b60408051808303601f1901815291815281516020928301205f818152600180855290839020875181546001600160a01b0319166001600160a01b039091161781559387015184820155918601516002840180549295508794939192909160ff1990911690838181111561068457610684611635565b0217905550606082015160028201805460ff9092166101000261ff0019909216919091179055608082015160038201906106be90826117d6565b5060a082015160048201906106d390826117d6565b5060c09190910151600590910180546001600160a01b0319166001600160a01b0390921691909117905560405181907fa755bee123b19cfd95f30d3bed835ac8dab8a08f893508aa86140d1b66c77e13905f90a2505050565b6040516323b872dd60e01b8152336004820152306024820152604481018490525f906001600160a01b038616906323b872dd906064016020604051808303815f875af115801561077e573d5f803e3d5ffd5b505050506040513d601f19601f820116820180604052508101906107a29190611896565b9050806108175760405162461bcd60e51b815260206004820152603e60248201527f5472616e73666572206661696c65642e204d616b65207375726520627269646760448201527f6520697320617070726f76656420746f207370656e6420746f6b656e732e0000606482015260840161047a565b604080516101008101825242818301818152466060808501829052336080860181905260a086018a90526001600160a01b0389811660c08801528c1660e087015292855260208086018b9052865190810194909452948301526bffffffffffffffffffffffff1990841b8116828501526074820187905285841b811660948301529288901b90921660a883015260bc8201869052905f9060dc0160408051808303601f1901815282825280516020918201205f81815260028084528482208851805182558086015160018301559586015191810180546001600160a01b03199081166001600160a01b0394851617909155606087015160038301556080870151600483018054831691851691909117905560a0909601516005820180549097169216919091179094559186015160069093019290925590925082917f911623f001224d5d44bba15e09f9764c38794e74d052085b3e24c04e05b7aed79190a250505050505050565b6001600160a01b03811633146109a85760405163334bd91960e11b815260040160405180910390fd5b6109b28282611265565b505050565b6109e07fe2b7fb3b832174769106daebcfd6d1970523240dda11281102db9363b83b0dc46111c9565b60405163a9059cbb60e01b81526001600160a01b038381166004830152602482018590525f919083169063a9059cbb906044016020604051808303815f875af1158015610a2f573d5f803e3d5ffd5b505050506040513d601f19601f82011682018060405250810190610a539190611896565b9050806102cf5760405162461bcd60e51b815260206004820152601760248201527f4661696c656420746f207061796f757420746f6b656e73000000000000000000604482015260640161047a565b5f818152600160208181526040808420815160e08101835281546001600160a01b0316815281850154938101939093526002810154929390929184019160ff1690811115610af257610af2611635565b6001811115610b0357610b03611635565b81526002820154610100900460ff166020820152600382018054604090920191610b2c90611753565b80601f0160208091040260200160405190810160405280929190818152602001828054610b5890611753565b8015610ba35780601f10610b7a57610100808354040283529160200191610ba3565b820191905f5260205f20905b815481529060010190602001808311610b8657829003601f168201915b50505050508152602001600482018054610bbc90611753565b80601f0160208091040260200160405190810160405280929190818152602001828054610be890611753565b8015610c335780601f10610c0a57610100808354040283529160200191610c33565b820191905f5260205f20905b815481529060010190602001808311610c1657829003601f168201915b5050509183525050600591909101546001600160a01b03908116602090920191909152815191925016610c9b5760405162461bcd60e51b815260206004820152601060248201526f125b9d985b1a590817dd1bdad95b925160821b604482015260640161047a565b60c0810151604080515f815260208101918290526344d1718760e01b9091526001600160a01b03909116906344d1718790610cdd9033908890602481016118b5565b5f604051808303815f87803b158015610cf4575f80fd5b505af1158015610d06573d5f803e3d5ffd5b5050505081836001600160a01b0316857f80c5d77a092b389b97d2b4a5bc721315e540c267567756df827f2edab66facba60405160405180910390a450505050565b600160208190525f918252604090912080549181015460028201546003830180546001600160a01b0390951694929360ff808416946101009094041692909190610d9190611753565b80601f0160208091040260200160405190810160405280929190818152602001828054610dbd90611753565b8015610e085780601f10610ddf57610100808354040283529160200191610e08565b820191905f5260205f20905b815481529060010190602001808311610deb57829003601f168201915b505050505090806004018054610e1d90611753565b80601f0160208091040260200160405190810160405280929190818152602001828054610e4990611753565b8015610e945780601f10610e6b57610100808354040283529160200191610e94565b820191905f5260205f20905b815481529060010190602001808311610e7757829003601f168201915b505050600590930154919250506001600160a01b031687565b5f918252602082815260408084206001600160a01b0393909316845291905290205460ff1690565b610efe7fe2b7fb3b832174769106daebcfd6d1970523240dda11281102db9363b83b0dc46111c9565b5f818152600160208181526040808420815160e08101835281546001600160a01b0316815281850154938101939093526002810154929390929184019160ff1690811115610f4e57610f4e611635565b6001811115610f5f57610f5f611635565b81526002820154610100900460ff166020820152600382018054604090920191610f8890611753565b80601f0160208091040260200160405190810160405280929190818152602001828054610fb490611753565b8015610fff5780601f10610fd657610100808354040283529160200191610fff565b820191905f5260205f20905b815481529060010190602001808311610fe257829003601f168201915b5050505050815260200160048201805461101890611753565b80601f016020809104026020016040519081016040528092919081815260200182805461104490611753565b801561108f5780601f106110665761010080835404028352916020019161108f565b820191905f5260205f20905b81548152906001019060200180831161107257829003601f168201915b5050509183525050600591909101546001600160a01b039081166020909201919091528151919250166110f75760405162461bcd60e51b815260206004820152601060248201526f125b9d985b1a590817dd1bdad95b925160821b604482015260640161047a565b60c0810151604080515f80825260208201928390526303ac06c960e51b9092526001600160a01b0390921691637580d9209161113a9187918991602481016118db565b5f604051808303815f87803b158015611151575f80fd5b505af1158015611163573d5f803e3d5ffd5b5050505081836001600160a01b0316857f7aebc2282a0784072e43f12d40afc658f82fda3d0e830865d50dd7b0196df7f160405160405180910390a450505050565b5f828152602081905260409020600101546111bf816111c9565b6102cf8383611265565b6111d381336112ce565b50565b5f6111e18383610ead565b61125e575f838152602081815260408083206001600160a01b03861684529091529020805460ff191660011790556112163390565b6001600160a01b0316826001600160a01b0316847f2f8788117e7eff1d82e926ec794901d17c78024a50270940304540a733656f0d60405160405180910390a45060016103e3565b505f6103e3565b5f6112708383610ead565b1561125e575f838152602081815260408083206001600160a01b0386168085529252808320805460ff1916905551339286917ff6391f5c32d9c69d2a47ea670b442974b53935d1edc7fd64eb21e047a839171b9190a45060016103e3565b6112d88282610ead565b6113075760405163e2517d3f60e01b81526001600160a01b03821660048201526024810183905260440161047a565b5050565b5f6020828403121561131b575f80fd5b81356001600160e01b031981168114611332575f80fd5b9392505050565b5f60208284031215611349575f80fd5b5035919050565b6001600160a01b03811681146111d3575f80fd5b803561136f81611350565b919050565b5f8060408385031215611385575f80fd5b82359150602083013561139781611350565b809150509250929050565b5f602082840312156113b2575f80fd5b813561133281611350565b634e487b7160e01b5f52604160045260245ffd5b60405160e0810167ffffffffffffffff811182821017156113f4576113f46113bd565b60405290565b80356002811061136f575f80fd5b803560ff8116811461136f575f80fd5b5f82601f830112611427575f80fd5b813567ffffffffffffffff80821115611442576114426113bd565b604051601f8301601f19908116603f0116810190828211818310171561146a5761146a6113bd565b81604052838152866020858801011115611482575f80fd5b836020870160208301375f602085830101528094505050505092915050565b5f602082840312156114b1575f80fd5b813567ffffffffffffffff808211156114c8575f80fd5b9083019060e082860312156114db575f80fd5b6114e36113d1565b6114ec83611364565b815260208301356020820152611504604084016113fa565b604082015261151560608401611408565b606082015260808301358281111561152b575f80fd5b61153787828601611418565b60808301525060a08301358281111561154e575f80fd5b61155a87828601611418565b60a08301525061156c60c08401611364565b60c082015295945050505050565b5f805f806080858703121561158d575f80fd5b843561159881611350565b9350602085013592506040850135915060608501356115b681611350565b939692955090935050565b5f805f606084860312156115d3575f80fd5b8335925060208401356115e581611350565b915060408401356115f581611350565b809150509250925092565b5f805f60608486031215611612575f80fd5b83359250602084013561162481611350565b929592945050506040919091013590565b634e487b7160e01b5f52602160045260245ffd5b5f81518084525f5b8181101561166d57602081850181015186830182015201611651565b505f602082860101526020601f19601f83011685010191505092915050565b6001600160a01b038881168252602082018890525f90600288106116be57634e487b7160e01b5f52602160045260245ffd5b87604084015260ff8716606084015260e060808401526116e160e0840187611649565b83810360a08501526116f38187611649565b92505080841660c08401525098975050505050505050565b604081525f61171d6040830185611649565b828103602084015261172f8185611649565b95945050505050565b5f60208284031215611748575f80fd5b815161133281611350565b600181811c9082168061176757607f821691505b60208210810361178557634e487b7160e01b5f52602260045260245ffd5b50919050565b601f8211156109b257805f5260205f20601f840160051c810160208510156117b05750805b601f840160051c820191505b818110156117cf575f81556001016117bc565b5050505050565b815167ffffffffffffffff8111156117f0576117f06113bd565b611804816117fe8454611753565b8461178b565b602080601f831160018114611837575f84156118205750858301515b5f19600386901b1c1916600185901b17855561188e565b5f85815260208120601f198616915b8281101561186557888601518255948401946001909101908401611846565b508582101561188257878501515f19600388901b60f8161c191681555b505060018460011b0185555b505050505050565b5f602082840312156118a6575f80fd5b81518015158114611332575f80fd5b60018060a01b0384168152826020820152606060408201525f61172f6060830184611649565b60018060a01b03851681528360208201528215156040820152608060608201525f6119096080830184611649565b969550505050505056fea26469706673582212205d50a3cb6be2bfd34fa0d0a6d24a244216ef6104de27e166abcdc003a835a13164736f6c63430008160033",
					"opcodes": "PUSH1 0x80 PUSH1 0x40 MSTORE CALLVALUE DUP1 ISZERO PUSH2 0xF JUMPI PUSH0 DUP1 REVERT JUMPDEST POP PUSH2 0x1A PUSH0 CALLER PUSH2 0x4A JUMP JUMPDEST POP PUSH2 0x45 PUSH32 0xE2B7FB3B832174769106DAEBCFD6D1970523240DDA11281102DB9363B83B0DC4 PUSH0 PUSH2 0xF3 JUMP JUMPDEST PUSH2 0x13D JUMP JUMPDEST PUSH0 DUP3 DUP2 MSTORE PUSH1 0x20 DUP2 DUP2 MSTORE PUSH1 0x40 DUP1 DUP4 KECCAK256 PUSH1 0x1 PUSH1 0x1 PUSH1 0xA0 SHL SUB DUP6 AND DUP5 MSTORE SWAP1 SWAP2 MSTORE DUP2 KECCAK256 SLOAD PUSH1 0xFF AND PUSH2 0xEA JUMPI PUSH0 DUP4 DUP2 MSTORE PUSH1 0x20 DUP2 DUP2 MSTORE PUSH1 0x40 DUP1 DUP4 KECCAK256 PUSH1 0x1 PUSH1 0x1 PUSH1 0xA0 SHL SUB DUP7 AND DUP5 MSTORE SWAP1 SWAP2 MSTORE SWAP1 KECCAK256 DUP1 SLOAD PUSH1 0xFF NOT AND PUSH1 0x1 OR SWAP1 SSTORE PUSH2 0xA2 CALLER SWAP1 JUMP JUMPDEST PUSH1 0x1 PUSH1 0x1 PUSH1 0xA0 SHL SUB AND DUP3 PUSH1 0x1 PUSH1 0x1 PUSH1 0xA0 SHL SUB AND DUP5 PUSH32 0x2F8788117E7EFF1D82E926EC794901D17C78024A50270940304540A733656F0D PUSH1 0x40 MLOAD PUSH1 0x40 MLOAD DUP1 SWAP2 SUB SWAP1 LOG4 POP PUSH1 0x1 PUSH2 0xED JUMP JUMPDEST POP PUSH0 JUMPDEST SWAP3 SWAP2 POP POP JUMP JUMPDEST PUSH0 DUP3 DUP2 MSTORE PUSH1 0x20 DUP2 SWAP1 MSTORE PUSH1 0x40 DUP1 DUP3 KECCAK256 PUSH1 0x1 ADD DUP1 SLOAD SWAP1 DUP5 SWAP1 SSTORE SWAP1 MLOAD SWAP1 SWAP2 DUP4 SWAP2 DUP4 SWAP2 DUP7 SWAP2 PUSH32 0xBD79B86FFE0AB8E8776151514217CD7CACD52C909F66475C3AF44E129F0B00FF SWAP2 SWAP1 LOG4 POP POP POP JUMP JUMPDEST PUSH2 0x1949 DUP1 PUSH3 0x14B PUSH0 CODECOPY PUSH0 RETURN INVALID PUSH1 0x80 PUSH1 0x40 MSTORE CALLVALUE DUP1 ISZERO PUSH2 0xF JUMPI PUSH0 DUP1 REVERT JUMPDEST POP PUSH1 0x4 CALLDATASIZE LT PUSH2 0x132 JUMPI PUSH0 CALLDATALOAD PUSH1 0xE0 SHR DUP1 PUSH4 0x62A00971 GT PUSH2 0xB4 JUMPI DUP1 PUSH4 0x9A67E7F9 GT PUSH2 0x79 JUMPI DUP1 PUSH4 0x9A67E7F9 EQ PUSH2 0x35B JUMPI DUP1 PUSH4 0xA217FDDF EQ PUSH2 0x36E JUMPI DUP1 PUSH4 0xD547741F EQ PUSH2 0x375 JUMPI DUP1 PUSH4 0xE77772FE EQ PUSH2 0x388 JUMPI DUP1 PUSH4 0xEAC213CE EQ PUSH2 0x273 JUMPI DUP1 PUSH4 0xF86DA945 EQ PUSH2 0x273 JUMPI PUSH0 DUP1 REVERT JUMPDEST DUP1 PUSH4 0x62A00971 EQ PUSH2 0x2D5 JUMPI DUP1 PUSH4 0x63A4E95F EQ PUSH2 0x2E8 JUMPI DUP1 PUSH4 0x7F7B0109 EQ PUSH2 0x2FB JUMPI DUP1 PUSH4 0x91D14854 EQ PUSH2 0x321 JUMPI DUP1 PUSH4 0x926D7D7F EQ PUSH2 0x334 JUMPI PUSH0 DUP1 REVERT JUMPDEST DUP1 PUSH4 0x31BA1648 GT PUSH2 0xFA JUMPI DUP1 PUSH4 0x31BA1648 EQ PUSH2 0x288 JUMPI DUP1 PUSH4 0x33B15AAD EQ PUSH2 0x29B JUMPI DUP1 PUSH4 0x36568ABE EQ PUSH2 0x2AE JUMPI DUP1 PUSH4 0x39578521 EQ PUSH2 0x2C1 JUMPI DUP1 PUSH4 0x4C597F8A EQ PUSH2 0x273 JUMPI PUSH0 DUP1 REVERT JUMPDEST DUP1 PUSH4 0x1FFC9A7 EQ PUSH2 0x136 JUMPI DUP1 PUSH4 0x1385C670 EQ PUSH2 0x15E JUMPI DUP1 PUSH4 0x248A9CA3 EQ PUSH2 0x230 JUMPI DUP1 PUSH4 0x2F2FF15D EQ PUSH2 0x260 JUMPI DUP1 PUSH4 0x2F73A9F8 EQ PUSH2 0x275 JUMPI JUMPDEST PUSH0 DUP1 REVERT JUMPDEST PUSH2 0x149 PUSH2 0x144 CALLDATASIZE PUSH1 0x4 PUSH2 0x130B JUMP JUMPDEST PUSH2 0x3B3 JUMP JUMPDEST PUSH1 0x40 MLOAD SWAP1 ISZERO ISZERO DUP2 MSTORE PUSH1 0x20 ADD JUMPDEST PUSH1 0x40 MLOAD DUP1 SWAP2 SUB SWAP1 RETURN JUMPDEST PUSH2 0x1D5 PUSH2 0x16C CALLDATASIZE PUSH1 0x4 PUSH2 0x1339 JUMP JUMPDEST PUSH1 0x2 PUSH1 0x20 DUP2 DUP2 MSTORE PUSH0 SWAP3 DUP4 MSTORE PUSH1 0x40 SWAP3 DUP4 SWAP1 KECCAK256 DUP4 MLOAD PUSH1 0xC0 DUP2 ADD DUP6 MSTORE DUP2 SLOAD DUP2 MSTORE PUSH1 0x1 DUP3 ADD SLOAD SWAP3 DUP2 ADD SWAP3 SWAP1 SWAP3 MSTORE SWAP2 DUP3 ADD SLOAD PUSH1 0x1 PUSH1 0x1 PUSH1 0xA0 SHL SUB SWAP1 DUP2 AND SWAP4 DUP3 ADD SWAP4 SWAP1 SWAP4 MSTORE PUSH1 0x3 DUP3 ADD SLOAD PUSH1 0x60 DUP3 ADD MSTORE PUSH1 0x4 DUP3 ADD SLOAD DUP4 AND PUSH1 0x80 DUP3 ADD MSTORE PUSH1 0x5 DUP3 ADD SLOAD SWAP1 SWAP3 AND PUSH1 0xA0 DUP4 ADD MSTORE PUSH1 0x6 ADD SLOAD DUP3 JUMP JUMPDEST PUSH1 0x40 DUP1 MLOAD DUP4 MLOAD DUP2 MSTORE PUSH1 0x20 DUP1 DUP6 ADD MLOAD SWAP1 DUP3 ADD MSTORE DUP4 DUP3 ADD MLOAD PUSH1 0x1 PUSH1 0x1 PUSH1 0xA0 SHL SUB SWAP1 DUP2 AND SWAP3 DUP3 ADD SWAP3 SWAP1 SWAP3 MSTORE PUSH1 0x60 DUP1 DUP6 ADD MLOAD SWAP1 DUP3 ADD MSTORE PUSH1 0x80 DUP1 DUP6 ADD MLOAD DUP4 AND SWAP1 DUP3 ADD MSTORE PUSH1 0xA0 SWAP4 DUP5 ADD MLOAD SWAP1 SWAP2 AND SWAP3 DUP2 ADD SWAP3 SWAP1 SWAP3 MSTORE PUSH1 0xC0 DUP3 ADD MSTORE PUSH1 0xE0 ADD PUSH2 0x155 JUMP JUMPDEST PUSH2 0x252 PUSH2 0x23E CALLDATASIZE PUSH1 0x4 PUSH2 0x1339 JUMP JUMPDEST PUSH0 SWAP1 DUP2 MSTORE PUSH1 0x20 DUP2 SWAP1 MSTORE PUSH1 0x40 SWAP1 KECCAK256 PUSH1 0x1 ADD SLOAD SWAP1 JUMP JUMPDEST PUSH1 0x40 MLOAD SWAP1 DUP2 MSTORE PUSH1 0x20 ADD PUSH2 0x155 JUMP JUMPDEST PUSH2 0x273 PUSH2 0x26E CALLDATASIZE PUSH1 0x4 PUSH2 0x1374 JUMP JUMPDEST PUSH2 0x3E9 JUMP JUMPDEST STOP JUMPDEST PUSH2 0x273 PUSH2 0x283 CALLDATASIZE PUSH1 0x4 PUSH2 0x13A2 JUMP JUMPDEST PUSH2 0x40D JUMP JUMPDEST PUSH2 0x273 PUSH2 0x296 CALLDATASIZE PUSH1 0x4 PUSH2 0x14A1 JUMP JUMPDEST PUSH2 0x4A5 JUMP JUMPDEST PUSH2 0x273 PUSH2 0x2A9 CALLDATASIZE PUSH1 0x4 PUSH2 0x157A JUMP JUMPDEST PUSH2 0x72C JUMP JUMPDEST PUSH2 0x273 PUSH2 0x2BC CALLDATASIZE PUSH1 0x4 PUSH2 0x1374 JUMP JUMPDEST PUSH2 0x97F JUMP JUMPDEST PUSH2 0x273 PUSH2 0x2CF CALLDATASIZE PUSH1 0x4 PUSH2 0x157A JUMP JUMPDEST POP POP POP POP JUMP JUMPDEST PUSH2 0x273 PUSH2 0x2E3 CALLDATASIZE PUSH1 0x4 PUSH2 0x15C1 JUMP JUMPDEST PUSH2 0x9B7 JUMP JUMPDEST PUSH2 0x273 PUSH2 0x2F6 CALLDATASIZE PUSH1 0x4 PUSH2 0x1600 JUMP JUMPDEST PUSH2 0xAA2 JUMP JUMPDEST PUSH2 0x30E PUSH2 0x309 CALLDATASIZE PUSH1 0x4 PUSH2 0x1339 JUMP JUMPDEST PUSH2 0xD48 JUMP JUMPDEST PUSH1 0x40 MLOAD PUSH2 0x155 SWAP8 SWAP7 SWAP6 SWAP5 SWAP4 SWAP3 SWAP2 SWAP1 PUSH2 0x168C JUMP JUMPDEST PUSH2 0x149 PUSH2 0x32F CALLDATASIZE PUSH1 0x4 PUSH2 0x1374 JUMP JUMPDEST PUSH2 0xEAD JUMP JUMPDEST PUSH2 0x252 PUSH32 0xE2B7FB3B832174769106DAEBCFD6D1970523240DDA11281102DB9363B83B0DC4 DUP2 JUMP JUMPDEST PUSH2 0x273 PUSH2 0x369 CALLDATASIZE PUSH1 0x4 PUSH2 0x1600 JUMP JUMPDEST PUSH2 0xED5 JUMP JUMPDEST PUSH2 0x252 PUSH0 DUP2 JUMP JUMPDEST PUSH2 0x273 PUSH2 0x383 CALLDATASIZE PUSH1 0x4 PUSH2 0x1374 JUMP JUMPDEST PUSH2 0x11A5 JUMP JUMPDEST PUSH1 0x3 SLOAD PUSH2 0x39B SWAP1 PUSH1 0x1 PUSH1 0x1 PUSH1 0xA0 SHL SUB AND DUP2 JUMP JUMPDEST PUSH1 0x40 MLOAD PUSH1 0x1 PUSH1 0x1 PUSH1 0xA0 SHL SUB SWAP1 SWAP2 AND DUP2 MSTORE PUSH1 0x20 ADD PUSH2 0x155 JUMP JUMPDEST PUSH0 PUSH1 0x1 PUSH1 0x1 PUSH1 0xE0 SHL SUB NOT DUP3 AND PUSH4 0x7965DB0B PUSH1 0xE0 SHL EQ DUP1 PUSH2 0x3E3 JUMPI POP PUSH4 0x1FFC9A7 PUSH1 0xE0 SHL PUSH1 0x1 PUSH1 0x1 PUSH1 0xE0 SHL SUB NOT DUP4 AND EQ JUMPDEST SWAP3 SWAP2 POP POP JUMP JUMPDEST PUSH0 DUP3 DUP2 MSTORE PUSH1 0x20 DUP2 SWAP1 MSTORE PUSH1 0x40 SWAP1 KECCAK256 PUSH1 0x1 ADD SLOAD PUSH2 0x403 DUP2 PUSH2 0x11C9 JUMP JUMPDEST PUSH2 0x2CF DUP4 DUP4 PUSH2 0x11D6 JUMP JUMPDEST PUSH2 0x416 PUSH0 PUSH2 0x11C9 JUMP JUMPDEST PUSH1 0x1 PUSH1 0x1 PUSH1 0xA0 SHL SUB DUP2 AND PUSH2 0x483 JUMPI PUSH1 0x40 MLOAD PUSH3 0x461BCD PUSH1 0xE5 SHL DUP2 MSTORE PUSH1 0x20 PUSH1 0x4 DUP3 ADD MSTORE PUSH1 0x29 PUSH1 0x24 DUP3 ADD MSTORE PUSH32 0x43616E277420736574204C535020466163746F727920746F20746865207A6572 PUSH1 0x44 DUP3 ADD MSTORE PUSH9 0x6F2061646472657373 PUSH1 0xB8 SHL PUSH1 0x64 DUP3 ADD MSTORE PUSH1 0x84 ADD JUMPDEST PUSH1 0x40 MLOAD DUP1 SWAP2 SUB SWAP1 REVERT JUMPDEST PUSH1 0x3 DUP1 SLOAD PUSH1 0x1 PUSH1 0x1 PUSH1 0xA0 SHL SUB NOT AND PUSH1 0x1 PUSH1 0x1 PUSH1 0xA0 SHL SUB SWAP3 SWAP1 SWAP3 AND SWAP2 SWAP1 SWAP2 OR SWAP1 SSTORE JUMP JUMPDEST PUSH2 0x4AE PUSH0 PUSH2 0x11C9 JUMP JUMPDEST PUSH0 DUP1 DUP3 PUSH1 0x40 ADD MLOAD PUSH1 0x1 DUP2 GT ISZERO PUSH2 0x4C6 JUMPI PUSH2 0x4C6 PUSH2 0x1635 JUMP JUMPDEST SUB PUSH2 0x54C JUMPI PUSH1 0x3 SLOAD PUSH1 0xA0 DUP4 ADD MLOAD PUSH1 0x80 DUP5 ADD MLOAD PUSH1 0x40 MLOAD PUSH4 0x8FE59807 PUSH1 0xE0 SHL DUP2 MSTORE PUSH1 0x1 PUSH1 0x1 PUSH1 0xA0 SHL SUB SWAP1 SWAP4 AND SWAP3 PUSH4 0x8FE59807 SWAP3 PUSH2 0x505 SWAP3 SWAP1 SWAP2 PUSH1 0x4 ADD PUSH2 0x170B JUMP JUMPDEST PUSH1 0x20 PUSH1 0x40 MLOAD DUP1 DUP4 SUB DUP2 PUSH0 DUP8 GAS CALL ISZERO DUP1 ISZERO PUSH2 0x521 JUMPI RETURNDATASIZE PUSH0 DUP1 RETURNDATACOPY RETURNDATASIZE PUSH0 REVERT JUMPDEST POP POP POP POP PUSH1 0x40 MLOAD RETURNDATASIZE PUSH1 0x1F NOT PUSH1 0x1F DUP3 ADD AND DUP3 ADD DUP1 PUSH1 0x40 MSTORE POP DUP2 ADD SWAP1 PUSH2 0x545 SWAP2 SWAP1 PUSH2 0x1738 JUMP JUMPDEST SWAP1 POP PUSH2 0x5C9 JUMP JUMPDEST PUSH1 0x3 SLOAD PUSH1 0xA0 DUP4 ADD MLOAD PUSH1 0x80 DUP5 ADD MLOAD PUSH1 0x40 MLOAD PUSH4 0xC2C2B31F PUSH1 0xE0 SHL DUP2 MSTORE PUSH1 0x1 PUSH1 0x1 PUSH1 0xA0 SHL SUB SWAP1 SWAP4 AND SWAP3 PUSH4 0xC2C2B31F SWAP3 PUSH2 0x586 SWAP3 SWAP1 SWAP2 PUSH1 0x4 ADD PUSH2 0x170B JUMP JUMPDEST PUSH1 0x20 PUSH1 0x40 MLOAD DUP1 DUP4 SUB DUP2 PUSH0 DUP8 GAS CALL ISZERO DUP1 ISZERO PUSH2 0x5A2 JUMPI RETURNDATASIZE PUSH0 DUP1 RETURNDATACOPY RETURNDATASIZE PUSH0 REVERT JUMPDEST POP POP POP POP PUSH1 0x40 MLOAD RETURNDATASIZE PUSH1 0x1F NOT PUSH1 0x1F DUP3 ADD AND DUP3 ADD DUP1 PUSH1 0x40 MSTORE POP DUP2 ADD SWAP1 PUSH2 0x5C6 SWAP2 SWAP1 PUSH2 0x1738 JUMP JUMPDEST SWAP1 POP JUMPDEST PUSH1 0x1 PUSH1 0x1 PUSH1 0xA0 SHL SUB DUP2 AND PUSH1 0xC0 DUP4 ADD MSTORE DUP2 MLOAD PUSH1 0x20 DUP1 DUP5 ADD MLOAD PUSH1 0x40 MLOAD PUSH0 SWAP4 PUSH2 0x60F SWAP4 SWAP1 SWAP3 SWAP2 ADD PUSH1 0x60 SWAP3 SWAP1 SWAP3 SHL PUSH12 0xFFFFFFFFFFFFFFFFFFFFFFFF NOT AND DUP3 MSTORE PUSH1 0x14 DUP3 ADD MSTORE PUSH1 0x34 ADD SWAP1 JUMP JUMPDEST PUSH1 0x40 DUP1 MLOAD DUP1 DUP4 SUB PUSH1 0x1F NOT ADD DUP2 MSTORE SWAP2 DUP2 MSTORE DUP2 MLOAD PUSH1 0x20 SWAP3 DUP4 ADD KECCAK256 PUSH0 DUP2 DUP2 MSTORE PUSH1 0x1 DUP1 DUP6 MSTORE SWAP1 DUP4 SWAP1 KECCAK256 DUP8 MLOAD DUP2 SLOAD PUSH1 0x1 PUSH1 0x1 PUSH1 0xA0 SHL SUB NOT AND PUSH1 0x1 PUSH1 0x1 PUSH1 0xA0 SHL SUB SWAP1 SWAP2 AND OR DUP2 SSTORE SWAP4 DUP8 ADD MLOAD DUP5 DUP3 ADD SSTORE SWAP2 DUP7 ADD MLOAD PUSH1 0x2 DUP5 ADD DUP1 SLOAD SWAP3 SWAP6 POP DUP8 SWAP5 SWAP4 SWAP2 SWAP3 SWAP1 SWAP2 PUSH1 0xFF NOT SWAP1 SWAP2 AND SWAP1 DUP4 DUP2 DUP2 GT ISZERO PUSH2 0x684 JUMPI PUSH2 0x684 PUSH2 0x1635 JUMP JUMPDEST MUL OR SWAP1 SSTORE POP PUSH1 0x60 DUP3 ADD MLOAD PUSH1 0x2 DUP3 ADD DUP1 SLOAD PUSH1 0xFF SWAP1 SWAP3 AND PUSH2 0x100 MUL PUSH2 0xFF00 NOT SWAP1 SWAP3 AND SWAP2 SWAP1 SWAP2 OR SWAP1 SSTORE PUSH1 0x80 DUP3 ADD MLOAD PUSH1 0x3 DUP3 ADD SWAP1 PUSH2 0x6BE SWAP1 DUP3 PUSH2 0x17D6 JUMP JUMPDEST POP PUSH1 0xA0 DUP3 ADD MLOAD PUSH1 0x4 DUP3 ADD SWAP1 PUSH2 0x6D3 SWAP1 DUP3 PUSH2 0x17D6 JUMP JUMPDEST POP PUSH1 0xC0 SWAP2 SWAP1 SWAP2 ADD MLOAD PUSH1 0x5 SWAP1 SWAP2 ADD DUP1 SLOAD PUSH1 0x1 PUSH1 0x1 PUSH1 0xA0 SHL SUB NOT AND PUSH1 0x1 PUSH1 0x1 PUSH1 0xA0 SHL SUB SWAP1 SWAP3 AND SWAP2 SWAP1 SWAP2 OR SWAP1 SSTORE PUSH1 0x40 MLOAD DUP2 SWAP1 PUSH32 0xA755BEE123B19CFD95F30D3BED835AC8DAB8A08F893508AA86140D1B66C77E13 SWAP1 PUSH0 SWAP1 LOG2 POP POP POP JUMP JUMPDEST PUSH1 0x40 MLOAD PUSH4 0x23B872DD PUSH1 0xE0 SHL DUP2 MSTORE CALLER PUSH1 0x4 DUP3 ADD MSTORE ADDRESS PUSH1 0x24 DUP3 ADD MSTORE PUSH1 0x44 DUP2 ADD DUP5 SWAP1 MSTORE PUSH0 SWAP1 PUSH1 0x1 PUSH1 0x1 PUSH1 0xA0 SHL SUB DUP7 AND SWAP1 PUSH4 0x23B872DD SWAP1 PUSH1 0x64 ADD PUSH1 0x20 PUSH1 0x40 MLOAD DUP1 DUP4 SUB DUP2 PUSH0 DUP8 GAS CALL ISZERO DUP1 ISZERO PUSH2 0x77E JUMPI RETURNDATASIZE PUSH0 DUP1 RETURNDATACOPY RETURNDATASIZE PUSH0 REVERT JUMPDEST POP POP POP POP PUSH1 0x40 MLOAD RETURNDATASIZE PUSH1 0x1F NOT PUSH1 0x1F DUP3 ADD AND DUP3 ADD DUP1 PUSH1 0x40 MSTORE POP DUP2 ADD SWAP1 PUSH2 0x7A2 SWAP2 SWAP1 PUSH2 0x1896 JUMP JUMPDEST SWAP1 POP DUP1 PUSH2 0x817 JUMPI PUSH1 0x40 MLOAD PUSH3 0x461BCD PUSH1 0xE5 SHL DUP2 MSTORE PUSH1 0x20 PUSH1 0x4 DUP3 ADD MSTORE PUSH1 0x3E PUSH1 0x24 DUP3 ADD MSTORE PUSH32 0x5472616E73666572206661696C65642E204D616B652073757265206272696467 PUSH1 0x44 DUP3 ADD MSTORE PUSH32 0x6520697320617070726F76656420746F207370656E6420746F6B656E732E0000 PUSH1 0x64 DUP3 ADD MSTORE PUSH1 0x84 ADD PUSH2 0x47A JUMP JUMPDEST PUSH1 0x40 DUP1 MLOAD PUSH2 0x100 DUP2 ADD DUP3 MSTORE TIMESTAMP DUP2 DUP4 ADD DUP2 DUP2 MSTORE CHAINID PUSH1 0x60 DUP1 DUP6 ADD DUP3 SWAP1 MSTORE CALLER PUSH1 0x80 DUP7 ADD DUP2 SWAP1 MSTORE PUSH1 0xA0 DUP7 ADD DUP11 SWAP1 MSTORE PUSH1 0x1 PUSH1 0x1 PUSH1 0xA0 SHL SUB DUP10 DUP2 AND PUSH1 0xC0 DUP9 ADD MSTORE DUP13 AND PUSH1 0xE0 DUP8 ADD MSTORE SWAP3 DUP6 MSTORE PUSH1 0x20 DUP1 DUP7 ADD DUP12 SWAP1 MSTORE DUP7 MLOAD SWAP1 DUP2 ADD SWAP5 SWAP1 SWAP5 MSTORE SWAP5 DUP4 ADD MSTORE PUSH12 0xFFFFFFFFFFFFFFFFFFFFFFFF NOT SWAP1 DUP5 SHL DUP2 AND DUP3 DUP6 ADD MSTORE PUSH1 0x74 DUP3 ADD DUP8 SWAP1 MSTORE DUP6 DUP5 SHL DUP2 AND PUSH1 0x94 DUP4 ADD MSTORE SWAP3 DUP9 SWAP1 SHL SWAP1 SWAP3 AND PUSH1 0xA8 DUP4 ADD MSTORE PUSH1 0xBC DUP3 ADD DUP7 SWAP1 MSTORE SWAP1 PUSH0 SWAP1 PUSH1 0xDC ADD PUSH1 0x40 DUP1 MLOAD DUP1 DUP4 SUB PUSH1 0x1F NOT ADD DUP2 MSTORE DUP3 DUP3 MSTORE DUP1 MLOAD PUSH1 0x20 SWAP2 DUP3 ADD KECCAK256 PUSH0 DUP2 DUP2 MSTORE PUSH1 0x2 DUP1 DUP5 MSTORE DUP5 DUP3 KECCAK256 DUP9 MLOAD DUP1 MLOAD DUP3 SSTORE DUP1 DUP7 ADD MLOAD PUSH1 0x1 DUP4 ADD SSTORE SWAP6 DUP7 ADD MLOAD SWAP2 DUP2 ADD DUP1 SLOAD PUSH1 0x1 PUSH1 0x1 PUSH1 0xA0 SHL SUB NOT SWAP1 DUP2 AND PUSH1 0x1 PUSH1 0x1 PUSH1 0xA0 SHL SUB SWAP5 DUP6 AND OR SWAP1 SWAP2 SSTORE PUSH1 0x60 DUP8 ADD MLOAD PUSH1 0x3 DUP4 ADD SSTORE PUSH1 0x80 DUP8 ADD MLOAD PUSH1 0x4 DUP4 ADD DUP1 SLOAD DUP4 AND SWAP2 DUP6 AND SWAP2 SWAP1 SWAP2 OR SWAP1 SSTORE PUSH1 0xA0 SWAP1 SWAP7 ADD MLOAD PUSH1 0x5 DUP3 ADD DUP1 SLOAD SWAP1 SWAP8 AND SWAP3 AND SWAP2 SWAP1 SWAP2 OR SWAP1 SWAP5 SSTORE SWAP2 DUP7 ADD MLOAD PUSH1 0x6 SWAP1 SWAP4 ADD SWAP3 SWAP1 SWAP3 SSTORE SWAP1 SWAP3 POP DUP3 SWAP2 PUSH32 0x911623F001224D5D44BBA15E09F9764C38794E74D052085B3E24C04E05B7AED7 SWAP2 SWAP1 LOG2 POP POP POP POP POP POP POP JUMP JUMPDEST PUSH1 0x1 PUSH1 0x1 PUSH1 0xA0 SHL SUB DUP2 AND CALLER EQ PUSH2 0x9A8 JUMPI PUSH1 0x40 MLOAD PUSH4 0x334BD919 PUSH1 0xE1 SHL DUP2 MSTORE PUSH1 0x4 ADD PUSH1 0x40 MLOAD DUP1 SWAP2 SUB SWAP1 REVERT JUMPDEST PUSH2 0x9B2 DUP3 DUP3 PUSH2 0x1265 JUMP JUMPDEST POP POP POP JUMP JUMPDEST PUSH2 0x9E0 PUSH32 0xE2B7FB3B832174769106DAEBCFD6D1970523240DDA11281102DB9363B83B0DC4 PUSH2 0x11C9 JUMP JUMPDEST PUSH1 0x40 MLOAD PUSH4 0xA9059CBB PUSH1 0xE0 SHL DUP2 MSTORE PUSH1 0x1 PUSH1 0x1 PUSH1 0xA0 SHL SUB DUP4 DUP2 AND PUSH1 0x4 DUP4 ADD MSTORE PUSH1 0x24 DUP3 ADD DUP6 SWAP1 MSTORE PUSH0 SWAP2 SWAP1 DUP4 AND SWAP1 PUSH4 0xA9059CBB SWAP1 PUSH1 0x44 ADD PUSH1 0x20 PUSH1 0x40 MLOAD DUP1 DUP4 SUB DUP2 PUSH0 DUP8 GAS CALL ISZERO DUP1 ISZERO PUSH2 0xA2F JUMPI RETURNDATASIZE PUSH0 DUP1 RETURNDATACOPY RETURNDATASIZE PUSH0 REVERT JUMPDEST POP POP POP POP PUSH1 0x40 MLOAD RETURNDATASIZE PUSH1 0x1F NOT PUSH1 0x1F DUP3 ADD AND DUP3 ADD DUP1 PUSH1 0x40 MSTORE POP DUP2 ADD SWAP1 PUSH2 0xA53 SWAP2 SWAP1 PUSH2 0x1896 JUMP JUMPDEST SWAP1 POP DUP1 PUSH2 0x2CF JUMPI PUSH1 0x40 MLOAD PUSH3 0x461BCD PUSH1 0xE5 SHL DUP2 MSTORE PUSH1 0x20 PUSH1 0x4 DUP3 ADD MSTORE PUSH1 0x17 PUSH1 0x24 DUP3 ADD MSTORE PUSH32 0x4661696C656420746F207061796F757420746F6B656E73000000000000000000 PUSH1 0x44 DUP3 ADD MSTORE PUSH1 0x64 ADD PUSH2 0x47A JUMP JUMPDEST PUSH0 DUP2 DUP2 MSTORE PUSH1 0x1 PUSH1 0x20 DUP2 DUP2 MSTORE PUSH1 0x40 DUP1 DUP5 KECCAK256 DUP2 MLOAD PUSH1 0xE0 DUP2 ADD DUP4 MSTORE DUP2 SLOAD PUSH1 0x1 PUSH1 0x1 PUSH1 0xA0 SHL SUB AND DUP2 MSTORE DUP2 DUP6 ADD SLOAD SWAP4 DUP2 ADD SWAP4 SWAP1 SWAP4 MSTORE PUSH1 0x2 DUP2 ADD SLOAD SWAP3 SWAP4 SWAP1 SWAP3 SWAP2 DUP5 ADD SWAP2 PUSH1 0xFF AND SWAP1 DUP2 GT ISZERO PUSH2 0xAF2 JUMPI PUSH2 0xAF2 PUSH2 0x1635 JUMP JUMPDEST PUSH1 0x1 DUP2 GT ISZERO PUSH2 0xB03 JUMPI PUSH2 0xB03 PUSH2 0x1635 JUMP JUMPDEST DUP2 MSTORE PUSH1 0x2 DUP3 ADD SLOAD PUSH2 0x100 SWAP1 DIV PUSH1 0xFF AND PUSH1 0x20 DUP3 ADD MSTORE PUSH1 0x3 DUP3 ADD DUP1 SLOAD PUSH1 0x40 SWAP1 SWAP3 ADD SWAP2 PUSH2 0xB2C SWAP1 PUSH2 0x1753 JUMP JUMPDEST DUP1 PUSH1 0x1F ADD PUSH1 0x20 DUP1 SWAP2 DIV MUL PUSH1 0x20 ADD PUSH1 0x40 MLOAD SWAP1 DUP2 ADD PUSH1 0x40 MSTORE DUP1 SWAP3 SWAP2 SWAP1 DUP2 DUP2 MSTORE PUSH1 0x20 ADD DUP3 DUP1 SLOAD PUSH2 0xB58 SWAP1 PUSH2 0x1753 JUMP JUMPDEST DUP1 ISZERO PUSH2 0xBA3 JUMPI DUP1 PUSH1 0x1F LT PUSH2 0xB7A JUMPI PUSH2 0x100 DUP1 DUP4 SLOAD DIV MUL DUP4 MSTORE SWAP2 PUSH1 0x20 ADD SWAP2 PUSH2 0xBA3 JUMP JUMPDEST DUP3 ADD SWAP2 SWAP1 PUSH0 MSTORE PUSH1 0x20 PUSH0 KECCAK256 SWAP1 JUMPDEST DUP2 SLOAD DUP2 MSTORE SWAP1 PUSH1 0x1 ADD SWAP1 PUSH1 0x20 ADD DUP1 DUP4 GT PUSH2 0xB86 JUMPI DUP3 SWAP1 SUB PUSH1 0x1F AND DUP3 ADD SWAP2 JUMPDEST POP POP POP POP POP DUP2 MSTORE PUSH1 0x20 ADD PUSH1 0x4 DUP3 ADD DUP1 SLOAD PUSH2 0xBBC SWAP1 PUSH2 0x1753 JUMP JUMPDEST DUP1 PUSH1 0x1F ADD PUSH1 0x20 DUP1 SWAP2 DIV MUL PUSH1 0x20 ADD PUSH1 0x40 MLOAD SWAP1 DUP2 ADD PUSH1 0x40 MSTORE DUP1 SWAP3 SWAP2 SWAP1 DUP2 DUP2 MSTORE PUSH1 0x20 ADD DUP3 DUP1 SLOAD PUSH2 0xBE8 SWAP1 PUSH2 0x1753 JUMP JUMPDEST DUP1 ISZERO PUSH2 0xC33 JUMPI DUP1 PUSH1 0x1F LT PUSH2 0xC0A JUMPI PUSH2 0x100 DUP1 DUP4 SLOAD DIV MUL DUP4 MSTORE SWAP2 PUSH1 0x20 ADD SWAP2 PUSH2 0xC33 JUMP JUMPDEST DUP3 ADD SWAP2 SWAP1 PUSH0 MSTORE PUSH1 0x20 PUSH0 KECCAK256 SWAP1 JUMPDEST DUP2 SLOAD DUP2 MSTORE SWAP1 PUSH1 0x1 ADD SWAP1 PUSH1 0x20 ADD DUP1 DUP4 GT PUSH2 0xC16 JUMPI DUP3 SWAP1 SUB PUSH1 0x1F AND DUP3 ADD SWAP2 JUMPDEST POP POP POP SWAP2 DUP4 MSTORE POP POP PUSH1 0x5 SWAP2 SWAP1 SWAP2 ADD SLOAD PUSH1 0x1 PUSH1 0x1 PUSH1 0xA0 SHL SUB SWAP1 DUP2 AND PUSH1 0x20 SWAP1 SWAP3 ADD SWAP2 SWAP1 SWAP2 MSTORE DUP2 MLOAD SWAP2 SWAP3 POP AND PUSH2 0xC9B JUMPI PUSH1 0x40 MLOAD PUSH3 0x461BCD PUSH1 0xE5 SHL DUP2 MSTORE PUSH1 0x20 PUSH1 0x4 DUP3 ADD MSTORE PUSH1 0x10 PUSH1 0x24 DUP3 ADD MSTORE PUSH16 0x125B9D985B1A590817DD1BDAD95B9251 PUSH1 0x82 SHL PUSH1 0x44 DUP3 ADD MSTORE PUSH1 0x64 ADD PUSH2 0x47A JUMP JUMPDEST PUSH1 0xC0 DUP2 ADD MLOAD PUSH1 0x40 DUP1 MLOAD PUSH0 DUP2 MSTORE PUSH1 0x20 DUP2 ADD SWAP2 DUP3 SWAP1 MSTORE PUSH4 0x44D17187 PUSH1 0xE0 SHL SWAP1 SWAP2 MSTORE PUSH1 0x1 PUSH1 0x1 PUSH1 0xA0 SHL SUB SWAP1 SWAP2 AND SWAP1 PUSH4 0x44D17187 SWAP1 PUSH2 0xCDD SWAP1 CALLER SWAP1 DUP9 SWAP1 PUSH1 0x24 DUP2 ADD PUSH2 0x18B5 JUMP JUMPDEST PUSH0 PUSH1 0x40 MLOAD DUP1 DUP4 SUB DUP2 PUSH0 DUP8 DUP1 EXTCODESIZE ISZERO DUP1 ISZERO PUSH2 0xCF4 JUMPI PUSH0 DUP1 REVERT JUMPDEST POP GAS CALL ISZERO DUP1 ISZERO PUSH2 0xD06 JUMPI RETURNDATASIZE PUSH0 DUP1 RETURNDATACOPY RETURNDATASIZE PUSH0 REVERT JUMPDEST POP POP POP POP DUP2 DUP4 PUSH1 0x1 PUSH1 0x1 PUSH1 0xA0 SHL SUB AND DUP6 PUSH32 0x80C5D77A092B389B97D2B4A5BC721315E540C267567756DF827F2EDAB66FACBA PUSH1 0x40 MLOAD PUSH1 0x40 MLOAD DUP1 SWAP2 SUB SWAP1 LOG4 POP POP POP POP JUMP JUMPDEST PUSH1 0x1 PUSH1 0x20 DUP2 SWAP1 MSTORE PUSH0 SWAP2 DUP3 MSTORE PUSH1 0x40 SWAP1 SWAP2 KECCAK256 DUP1 SLOAD SWAP2 DUP2 ADD SLOAD PUSH1 0x2 DUP3 ADD SLOAD PUSH1 0x3 DUP4 ADD DUP1 SLOAD PUSH1 0x1 PUSH1 0x1 PUSH1 0xA0 SHL SUB SWAP1 SWAP6 AND SWAP5 SWAP3 SWAP4 PUSH1 0xFF DUP1 DUP5 AND SWAP5 PUSH2 0x100 SWAP1 SWAP5 DIV AND SWAP3 SWAP1 SWAP2 SWAP1 PUSH2 0xD91 SWAP1 PUSH2 0x1753 JUMP JUMPDEST DUP1 PUSH1 0x1F ADD PUSH1 0x20 DUP1 SWAP2 DIV MUL PUSH1 0x20 ADD PUSH1 0x40 MLOAD SWAP1 DUP2 ADD PUSH1 0x40 MSTORE DUP1 SWAP3 SWAP2 SWAP1 DUP2 DUP2 MSTORE PUSH1 0x20 ADD DUP3 DUP1 SLOAD PUSH2 0xDBD SWAP1 PUSH2 0x1753 JUMP JUMPDEST DUP1 ISZERO PUSH2 0xE08 JUMPI DUP1 PUSH1 0x1F LT PUSH2 0xDDF JUMPI PUSH2 0x100 DUP1 DUP4 SLOAD DIV MUL DUP4 MSTORE SWAP2 PUSH1 0x20 ADD SWAP2 PUSH2 0xE08 JUMP JUMPDEST DUP3 ADD SWAP2 SWAP1 PUSH0 MSTORE PUSH1 0x20 PUSH0 KECCAK256 SWAP1 JUMPDEST DUP2 SLOAD DUP2 MSTORE SWAP1 PUSH1 0x1 ADD SWAP1 PUSH1 0x20 ADD DUP1 DUP4 GT PUSH2 0xDEB JUMPI DUP3 SWAP1 SUB PUSH1 0x1F AND DUP3 ADD SWAP2 JUMPDEST POP POP POP POP POP SWAP1 DUP1 PUSH1 0x4 ADD DUP1 SLOAD PUSH2 0xE1D SWAP1 PUSH2 0x1753 JUMP JUMPDEST DUP1 PUSH1 0x1F ADD PUSH1 0x20 DUP1 SWAP2 DIV MUL PUSH1 0x20 ADD PUSH1 0x40 MLOAD SWAP1 DUP2 ADD PUSH1 0x40 MSTORE DUP1 SWAP3 SWAP2 SWAP1 DUP2 DUP2 MSTORE PUSH1 0x20 ADD DUP3 DUP1 SLOAD PUSH2 0xE49 SWAP1 PUSH2 0x1753 JUMP JUMPDEST DUP1 ISZERO PUSH2 0xE94 JUMPI DUP1 PUSH1 0x1F LT PUSH2 0xE6B JUMPI PUSH2 0x100 DUP1 DUP4 SLOAD DIV MUL DUP4 MSTORE SWAP2 PUSH1 0x20 ADD SWAP2 PUSH2 0xE94 JUMP JUMPDEST DUP3 ADD SWAP2 SWAP1 PUSH0 MSTORE PUSH1 0x20 PUSH0 KECCAK256 SWAP1 JUMPDEST DUP2 SLOAD DUP2 MSTORE SWAP1 PUSH1 0x1 ADD SWAP1 PUSH1 0x20 ADD DUP1 DUP4 GT PUSH2 0xE77 JUMPI DUP3 SWAP1 SUB PUSH1 0x1F AND DUP3 ADD SWAP2 JUMPDEST POP POP POP PUSH1 0x5 SWAP1 SWAP4 ADD SLOAD SWAP2 SWAP3 POP POP PUSH1 0x1 PUSH1 0x1 PUSH1 0xA0 SHL SUB AND DUP8 JUMP JUMPDEST PUSH0 SWAP2 DUP3 MSTORE PUSH1 0x20 DUP3 DUP2 MSTORE PUSH1 0x40 DUP1 DUP5 KECCAK256 PUSH1 0x1 PUSH1 0x1 PUSH1 0xA0 SHL SUB SWAP4 SWAP1 SWAP4 AND DUP5 MSTORE SWAP2 SWAP1 MSTORE SWAP1 KECCAK256 SLOAD PUSH1 0xFF AND SWAP1 JUMP JUMPDEST PUSH2 0xEFE PUSH32 0xE2B7FB3B832174769106DAEBCFD6D1970523240DDA11281102DB9363B83B0DC4 PUSH2 0x11C9 JUMP JUMPDEST PUSH0 DUP2 DUP2 MSTORE PUSH1 0x1 PUSH1 0x20 DUP2 DUP2 MSTORE PUSH1 0x40 DUP1 DUP5 KECCAK256 DUP2 MLOAD PUSH1 0xE0 DUP2 ADD DUP4 MSTORE DUP2 SLOAD PUSH1 0x1 PUSH1 0x1 PUSH1 0xA0 SHL SUB AND DUP2 MSTORE DUP2 DUP6 ADD SLOAD SWAP4 DUP2 ADD SWAP4 SWAP1 SWAP4 MSTORE PUSH1 0x2 DUP2 ADD SLOAD SWAP3 SWAP4 SWAP1 SWAP3 SWAP2 DUP5 ADD SWAP2 PUSH1 0xFF AND SWAP1 DUP2 GT ISZERO PUSH2 0xF4E JUMPI PUSH2 0xF4E PUSH2 0x1635 JUMP JUMPDEST PUSH1 0x1 DUP2 GT ISZERO PUSH2 0xF5F JUMPI PUSH2 0xF5F PUSH2 0x1635 JUMP JUMPDEST DUP2 MSTORE PUSH1 0x2 DUP3 ADD SLOAD PUSH2 0x100 SWAP1 DIV PUSH1 0xFF AND PUSH1 0x20 DUP3 ADD MSTORE PUSH1 0x3 DUP3 ADD DUP1 SLOAD PUSH1 0x40 SWAP1 SWAP3 ADD SWAP2 PUSH2 0xF88 SWAP1 PUSH2 0x1753 JUMP JUMPDEST DUP1 PUSH1 0x1F ADD PUSH1 0x20 DUP1 SWAP2 DIV MUL PUSH1 0x20 ADD PUSH1 0x40 MLOAD SWAP1 DUP2 ADD PUSH1 0x40 MSTORE DUP1 SWAP3 SWAP2 SWAP1 DUP2 DUP2 MSTORE PUSH1 0x20 ADD DUP3 DUP1 SLOAD PUSH2 0xFB4 SWAP1 PUSH2 0x1753 JUMP JUMPDEST DUP1 ISZERO PUSH2 0xFFF JUMPI DUP1 PUSH1 0x1F LT PUSH2 0xFD6 JUMPI PUSH2 0x100 DUP1 DUP4 SLOAD DIV MUL DUP4 MSTORE SWAP2 PUSH1 0x20 ADD SWAP2 PUSH2 0xFFF JUMP JUMPDEST DUP3 ADD SWAP2 SWAP1 PUSH0 MSTORE PUSH1 0x20 PUSH0 KECCAK256 SWAP1 JUMPDEST DUP2 SLOAD DUP2 MSTORE SWAP1 PUSH1 0x1 ADD SWAP1 PUSH1 0x20 ADD DUP1 DUP4 GT PUSH2 0xFE2 JUMPI DUP3 SWAP1 SUB PUSH1 0x1F AND DUP3 ADD SWAP2 JUMPDEST POP POP POP POP POP DUP2 MSTORE PUSH1 0x20 ADD PUSH1 0x4 DUP3 ADD DUP1 SLOAD PUSH2 0x1018 SWAP1 PUSH2 0x1753 JUMP JUMPDEST DUP1 PUSH1 0x1F ADD PUSH1 0x20 DUP1 SWAP2 DIV MUL PUSH1 0x20 ADD PUSH1 0x40 MLOAD SWAP1 DUP2 ADD PUSH1 0x40 MSTORE DUP1 SWAP3 SWAP2 SWAP1 DUP2 DUP2 MSTORE PUSH1 0x20 ADD DUP3 DUP1 SLOAD PUSH2 0x1044 SWAP1 PUSH2 0x1753 JUMP JUMPDEST DUP1 ISZERO PUSH2 0x108F JUMPI DUP1 PUSH1 0x1F LT PUSH2 0x1066 JUMPI PUSH2 0x100 DUP1 DUP4 SLOAD DIV MUL DUP4 MSTORE SWAP2 PUSH1 0x20 ADD SWAP2 PUSH2 0x108F JUMP JUMPDEST DUP3 ADD SWAP2 SWAP1 PUSH0 MSTORE PUSH1 0x20 PUSH0 KECCAK256 SWAP1 JUMPDEST DUP2 SLOAD DUP2 MSTORE SWAP1 PUSH1 0x1 ADD SWAP1 PUSH1 0x20 ADD DUP1 DUP4 GT PUSH2 0x1072 JUMPI DUP3 SWAP1 SUB PUSH1 0x1F AND DUP3 ADD SWAP2 JUMPDEST POP POP POP SWAP2 DUP4 MSTORE POP POP PUSH1 0x5 SWAP2 SWAP1 SWAP2 ADD SLOAD PUSH1 0x1 PUSH1 0x1 PUSH1 0xA0 SHL SUB SWAP1 DUP2 AND PUSH1 0x20 SWAP1 SWAP3 ADD SWAP2 SWAP1 SWAP2 MSTORE DUP2 MLOAD SWAP2 SWAP3 POP AND PUSH2 0x10F7 JUMPI PUSH1 0x40 MLOAD PUSH3 0x461BCD PUSH1 0xE5 SHL DUP2 MSTORE PUSH1 0x20 PUSH1 0x4 DUP3 ADD MSTORE PUSH1 0x10 PUSH1 0x24 DUP3 ADD MSTORE PUSH16 0x125B9D985B1A590817DD1BDAD95B9251 PUSH1 0x82 SHL PUSH1 0x44 DUP3 ADD MSTORE PUSH1 0x64 ADD PUSH2 0x47A JUMP JUMPDEST PUSH1 0xC0 DUP2 ADD MLOAD PUSH1 0x40 DUP1 MLOAD PUSH0 DUP1 DUP3 MSTORE PUSH1 0x20 DUP3 ADD SWAP3 DUP4 SWAP1 MSTORE PUSH4 0x3AC06C9 PUSH1 0xE5 SHL SWAP1 SWAP3 MSTORE PUSH1 0x1 PUSH1 0x1 PUSH1 0xA0 SHL SUB SWAP1 SWAP3 AND SWAP2 PUSH4 0x7580D920 SWAP2 PUSH2 0x113A SWAP2 DUP8 SWAP2 DUP10 SWAP2 PUSH1 0x24 DUP2 ADD PUSH2 0x18DB JUMP JUMPDEST PUSH0 PUSH1 0x40 MLOAD DUP1 DUP4 SUB DUP2 PUSH0 DUP8 DUP1 EXTCODESIZE ISZERO DUP1 ISZERO PUSH2 0x1151 JUMPI PUSH0 DUP1 REVERT JUMPDEST POP GAS CALL ISZERO DUP1 ISZERO PUSH2 0x1163 JUMPI RETURNDATASIZE PUSH0 DUP1 RETURNDATACOPY RETURNDATASIZE PUSH0 REVERT JUMPDEST POP POP POP POP DUP2 DUP4 PUSH1 0x1 PUSH1 0x1 PUSH1 0xA0 SHL SUB AND DUP6 PUSH32 0x7AEBC2282A0784072E43F12D40AFC658F82FDA3D0E830865D50DD7B0196DF7F1 PUSH1 0x40 MLOAD PUSH1 0x40 MLOAD DUP1 SWAP2 SUB SWAP1 LOG4 POP POP POP POP JUMP JUMPDEST PUSH0 DUP3 DUP2 MSTORE PUSH1 0x20 DUP2 SWAP1 MSTORE PUSH1 0x40 SWAP1 KECCAK256 PUSH1 0x1 ADD SLOAD PUSH2 0x11BF DUP2 PUSH2 0x11C9 JUMP JUMPDEST PUSH2 0x2CF DUP4 DUP4 PUSH2 0x1265 JUMP JUMPDEST PUSH2 0x11D3 DUP2 CALLER PUSH2 0x12CE JUMP JUMPDEST POP JUMP JUMPDEST PUSH0 PUSH2 0x11E1 DUP4 DUP4 PUSH2 0xEAD JUMP JUMPDEST PUSH2 0x125E JUMPI PUSH0 DUP4 DUP2 MSTORE PUSH1 0x20 DUP2 DUP2 MSTORE PUSH1 0x40 DUP1 DUP4 KECCAK256 PUSH1 0x1 PUSH1 0x1 PUSH1 0xA0 SHL SUB DUP7 AND DUP5 MSTORE SWAP1 SWAP2 MSTORE SWAP1 KECCAK256 DUP1 SLOAD PUSH1 0xFF NOT AND PUSH1 0x1 OR SWAP1 SSTORE PUSH2 0x1216 CALLER SWAP1 JUMP JUMPDEST PUSH1 0x1 PUSH1 0x1 PUSH1 0xA0 SHL SUB AND DUP3 PUSH1 0x1 PUSH1 0x1 PUSH1 0xA0 SHL SUB AND DUP5 PUSH32 0x2F8788117E7EFF1D82E926EC794901D17C78024A50270940304540A733656F0D PUSH1 0x40 MLOAD PUSH1 0x40 MLOAD DUP1 SWAP2 SUB SWAP1 LOG4 POP PUSH1 0x1 PUSH2 0x3E3 JUMP JUMPDEST POP PUSH0 PUSH2 0x3E3 JUMP JUMPDEST PUSH0 PUSH2 0x1270 DUP4 DUP4 PUSH2 0xEAD JUMP JUMPDEST ISZERO PUSH2 0x125E JUMPI PUSH0 DUP4 DUP2 MSTORE PUSH1 0x20 DUP2 DUP2 MSTORE PUSH1 0x40 DUP1 DUP4 KECCAK256 PUSH1 0x1 PUSH1 0x1 PUSH1 0xA0 SHL SUB DUP7 AND DUP1 DUP6 MSTORE SWAP3 MSTORE DUP1 DUP4 KECCAK256 DUP1 SLOAD PUSH1 0xFF NOT AND SWAP1 SSTORE MLOAD CALLER SWAP3 DUP7 SWAP2 PUSH32 0xF6391F5C32D9C69D2A47EA670B442974B53935D1EDC7FD64EB21E047A839171B SWAP2 SWAP1 LOG4 POP PUSH1 0x1 PUSH2 0x3E3 JUMP JUMPDEST PUSH2 0x12D8 DUP3 DUP3 PUSH2 0xEAD JUMP JUMPDEST PUSH2 0x1307 JUMPI PUSH1 0x40 MLOAD PUSH4 0xE2517D3F PUSH1 0xE0 SHL DUP2 MSTORE PUSH1 0x1 PUSH1 0x1 PUSH1 0xA0 SHL SUB DUP3 AND PUSH1 0x4 DUP3 ADD MSTORE PUSH1 0x24 DUP2 ADD DUP4 SWAP1 MSTORE PUSH1 0x44 ADD PUSH2 0x47A JUMP JUMPDEST POP POP JUMP JUMPDEST PUSH0 PUSH1 0x20 DUP3 DUP5 SUB SLT ISZERO PUSH2 0x131B JUMPI PUSH0 DUP1 REVERT JUMPDEST DUP2 CALLDATALOAD PUSH1 0x1 PUSH1 0x1 PUSH1 0xE0 SHL SUB NOT DUP2 AND DUP2 EQ PUSH2 0x1332 JUMPI PUSH0 DUP1 REVERT JUMPDEST SWAP4 SWAP3 POP POP POP JUMP JUMPDEST PUSH0 PUSH1 0x20 DUP3 DUP5 SUB SLT ISZERO PUSH2 0x1349 JUMPI PUSH0 DUP1 REVERT JUMPDEST POP CALLDATALOAD SWAP2 SWAP1 POP JUMP JUMPDEST PUSH1 0x1 PUSH1 0x1 PUSH1 0xA0 SHL SUB DUP2 AND DUP2 EQ PUSH2 0x11D3 JUMPI PUSH0 DUP1 REVERT JUMPDEST DUP1 CALLDATALOAD PUSH2 0x136F DUP2 PUSH2 0x1350 JUMP JUMPDEST SWAP2 SWAP1 POP JUMP JUMPDEST PUSH0 DUP1 PUSH1 0x40 DUP4 DUP6 SUB SLT ISZERO PUSH2 0x1385 JUMPI PUSH0 DUP1 REVERT JUMPDEST DUP3 CALLDATALOAD SWAP2 POP PUSH1 0x20 DUP4 ADD CALLDATALOAD PUSH2 0x1397 DUP2 PUSH2 0x1350 JUMP JUMPDEST DUP1 SWAP2 POP POP SWAP3 POP SWAP3 SWAP1 POP JUMP JUMPDEST PUSH0 PUSH1 0x20 DUP3 DUP5 SUB SLT ISZERO PUSH2 0x13B2 JUMPI PUSH0 DUP1 REVERT JUMPDEST DUP2 CALLDATALOAD PUSH2 0x1332 DUP2 PUSH2 0x1350 JUMP JUMPDEST PUSH4 0x4E487B71 PUSH1 0xE0 SHL PUSH0 MSTORE PUSH1 0x41 PUSH1 0x4 MSTORE PUSH1 0x24 PUSH0 REVERT JUMPDEST PUSH1 0x40 MLOAD PUSH1 0xE0 DUP2 ADD PUSH8 0xFFFFFFFFFFFFFFFF DUP2 GT DUP3 DUP3 LT OR ISZERO PUSH2 0x13F4 JUMPI PUSH2 0x13F4 PUSH2 0x13BD JUMP JUMPDEST PUSH1 0x40 MSTORE SWAP1 JUMP JUMPDEST DUP1 CALLDATALOAD PUSH1 0x2 DUP2 LT PUSH2 0x136F JUMPI PUSH0 DUP1 REVERT JUMPDEST DUP1 CALLDATALOAD PUSH1 0xFF DUP2 AND DUP2 EQ PUSH2 0x136F JUMPI PUSH0 DUP1 REVERT JUMPDEST PUSH0 DUP3 PUSH1 0x1F DUP4 ADD SLT PUSH2 0x1427 JUMPI PUSH0 DUP1 REVERT JUMPDEST DUP2 CALLDATALOAD PUSH8 0xFFFFFFFFFFFFFFFF DUP1 DUP3 GT ISZERO PUSH2 0x1442 JUMPI PUSH2 0x1442 PUSH2 0x13BD JUMP JUMPDEST PUSH1 0x40 MLOAD PUSH1 0x1F DUP4 ADD PUSH1 0x1F NOT SWAP1 DUP2 AND PUSH1 0x3F ADD AND DUP2 ADD SWAP1 DUP3 DUP3 GT DUP2 DUP4 LT OR ISZERO PUSH2 0x146A JUMPI PUSH2 0x146A PUSH2 0x13BD JUMP JUMPDEST DUP2 PUSH1 0x40 MSTORE DUP4 DUP2 MSTORE DUP7 PUSH1 0x20 DUP6 DUP9 ADD ADD GT ISZERO PUSH2 0x1482 JUMPI PUSH0 DUP1 REVERT JUMPDEST DUP4 PUSH1 0x20 DUP8 ADD PUSH1 0x20 DUP4 ADD CALLDATACOPY PUSH0 PUSH1 0x20 DUP6 DUP4 ADD ADD MSTORE DUP1 SWAP5 POP POP POP POP POP SWAP3 SWAP2 POP POP JUMP JUMPDEST PUSH0 PUSH1 0x20 DUP3 DUP5 SUB SLT ISZERO PUSH2 0x14B1 JUMPI PUSH0 DUP1 REVERT JUMPDEST DUP2 CALLDATALOAD PUSH8 0xFFFFFFFFFFFFFFFF DUP1 DUP3 GT ISZERO PUSH2 0x14C8 JUMPI PUSH0 DUP1 REVERT JUMPDEST SWAP1 DUP4 ADD SWAP1 PUSH1 0xE0 DUP3 DUP7 SUB SLT ISZERO PUSH2 0x14DB JUMPI PUSH0 DUP1 REVERT JUMPDEST PUSH2 0x14E3 PUSH2 0x13D1 JUMP JUMPDEST PUSH2 0x14EC DUP4 PUSH2 0x1364 JUMP JUMPDEST DUP2 MSTORE PUSH1 0x20 DUP4 ADD CALLDATALOAD PUSH1 0x20 DUP3 ADD MSTORE PUSH2 0x1504 PUSH1 0x40 DUP5 ADD PUSH2 0x13FA JUMP JUMPDEST PUSH1 0x40 DUP3 ADD MSTORE PUSH2 0x1515 PUSH1 0x60 DUP5 ADD PUSH2 0x1408 JUMP JUMPDEST PUSH1 0x60 DUP3 ADD MSTORE PUSH1 0x80 DUP4 ADD CALLDATALOAD DUP3 DUP2 GT ISZERO PUSH2 0x152B JUMPI PUSH0 DUP1 REVERT JUMPDEST PUSH2 0x1537 DUP8 DUP3 DUP7 ADD PUSH2 0x1418 JUMP JUMPDEST PUSH1 0x80 DUP4 ADD MSTORE POP PUSH1 0xA0 DUP4 ADD CALLDATALOAD DUP3 DUP2 GT ISZERO PUSH2 0x154E JUMPI PUSH0 DUP1 REVERT JUMPDEST PUSH2 0x155A DUP8 DUP3 DUP7 ADD PUSH2 0x1418 JUMP JUMPDEST PUSH1 0xA0 DUP4 ADD MSTORE POP PUSH2 0x156C PUSH1 0xC0 DUP5 ADD PUSH2 0x1364 JUMP JUMPDEST PUSH1 0xC0 DUP3 ADD MSTORE SWAP6 SWAP5 POP POP POP POP POP JUMP JUMPDEST PUSH0 DUP1 PUSH0 DUP1 PUSH1 0x80 DUP6 DUP8 SUB SLT ISZERO PUSH2 0x158D JUMPI PUSH0 DUP1 REVERT JUMPDEST DUP5 CALLDATALOAD PUSH2 0x1598 DUP2 PUSH2 0x1350 JUMP JUMPDEST SWAP4 POP PUSH1 0x20 DUP6 ADD CALLDATALOAD SWAP3 POP PUSH1 0x40 DUP6 ADD CALLDATALOAD SWAP2 POP PUSH1 0x60 DUP6 ADD CALLDATALOAD PUSH2 0x15B6 DUP2 PUSH2 0x1350 JUMP JUMPDEST SWAP4 SWAP7 SWAP3 SWAP6 POP SWAP1 SWAP4 POP POP JUMP JUMPDEST PUSH0 DUP1 PUSH0 PUSH1 0x60 DUP5 DUP7 SUB SLT ISZERO PUSH2 0x15D3 JUMPI PUSH0 DUP1 REVERT JUMPDEST DUP4 CALLDATALOAD SWAP3 POP PUSH1 0x20 DUP5 ADD CALLDATALOAD PUSH2 0x15E5 DUP2 PUSH2 0x1350 JUMP JUMPDEST SWAP2 POP PUSH1 0x40 DUP5 ADD CALLDATALOAD PUSH2 0x15F5 DUP2 PUSH2 0x1350 JUMP JUMPDEST DUP1 SWAP2 POP POP SWAP3 POP SWAP3 POP SWAP3 JUMP JUMPDEST PUSH0 DUP1 PUSH0 PUSH1 0x60 DUP5 DUP7 SUB SLT ISZERO PUSH2 0x1612 JUMPI PUSH0 DUP1 REVERT JUMPDEST DUP4 CALLDATALOAD SWAP3 POP PUSH1 0x20 DUP5 ADD CALLDATALOAD PUSH2 0x1624 DUP2 PUSH2 0x1350 JUMP JUMPDEST SWAP3 SWAP6 SWAP3 SWAP5 POP POP POP PUSH1 0x40 SWAP2 SWAP1 SWAP2 ADD CALLDATALOAD SWAP1 JUMP JUMPDEST PUSH4 0x4E487B71 PUSH1 0xE0 SHL PUSH0 MSTORE PUSH1 0x21 PUSH1 0x4 MSTORE PUSH1 0x24 PUSH0 REVERT JUMPDEST PUSH0 DUP2 MLOAD DUP1 DUP5 MSTORE PUSH0 JUMPDEST DUP2 DUP2 LT ISZERO PUSH2 0x166D JUMPI PUSH1 0x20 DUP2 DUP6 ADD DUP2 ADD MLOAD DUP7 DUP4 ADD DUP3 ADD MSTORE ADD PUSH2 0x1651 JUMP JUMPDEST POP PUSH0 PUSH1 0x20 DUP3 DUP7 ADD ADD MSTORE PUSH1 0x20 PUSH1 0x1F NOT PUSH1 0x1F DUP4 ADD AND DUP6 ADD ADD SWAP2 POP POP SWAP3 SWAP2 POP POP JUMP JUMPDEST PUSH1 0x1 PUSH1 0x1 PUSH1 0xA0 SHL SUB DUP9 DUP2 AND DUP3 MSTORE PUSH1 0x20 DUP3 ADD DUP9 SWAP1 MSTORE PUSH0 SWAP1 PUSH1 0x2 DUP9 LT PUSH2 0x16BE JUMPI PUSH4 0x4E487B71 PUSH1 0xE0 SHL PUSH0 MSTORE PUSH1 0x21 PUSH1 0x4 MSTORE PUSH1 0x24 PUSH0 REVERT JUMPDEST DUP8 PUSH1 0x40 DUP5 ADD MSTORE PUSH1 0xFF DUP8 AND PUSH1 0x60 DUP5 ADD MSTORE PUSH1 0xE0 PUSH1 0x80 DUP5 ADD MSTORE PUSH2 0x16E1 PUSH1 0xE0 DUP5 ADD DUP8 PUSH2 0x1649 JUMP JUMPDEST DUP4 DUP2 SUB PUSH1 0xA0 DUP6 ADD MSTORE PUSH2 0x16F3 DUP2 DUP8 PUSH2 0x1649 JUMP JUMPDEST SWAP3 POP POP DUP1 DUP5 AND PUSH1 0xC0 DUP5 ADD MSTORE POP SWAP9 SWAP8 POP POP POP POP POP POP POP POP JUMP JUMPDEST PUSH1 0x40 DUP2 MSTORE PUSH0 PUSH2 0x171D PUSH1 0x40 DUP4 ADD DUP6 PUSH2 0x1649 JUMP JUMPDEST DUP3 DUP2 SUB PUSH1 0x20 DUP5 ADD MSTORE PUSH2 0x172F DUP2 DUP6 PUSH2 0x1649 JUMP JUMPDEST SWAP6 SWAP5 POP POP POP POP POP JUMP JUMPDEST PUSH0 PUSH1 0x20 DUP3 DUP5 SUB SLT ISZERO PUSH2 0x1748 JUMPI PUSH0 DUP1 REVERT JUMPDEST DUP2 MLOAD PUSH2 0x1332 DUP2 PUSH2 0x1350 JUMP JUMPDEST PUSH1 0x1 DUP2 DUP2 SHR SWAP1 DUP3 AND DUP1 PUSH2 0x1767 JUMPI PUSH1 0x7F DUP3 AND SWAP2 POP JUMPDEST PUSH1 0x20 DUP3 LT DUP2 SUB PUSH2 0x1785 JUMPI PUSH4 0x4E487B71 PUSH1 0xE0 SHL PUSH0 MSTORE PUSH1 0x22 PUSH1 0x4 MSTORE PUSH1 0x24 PUSH0 REVERT JUMPDEST POP SWAP2 SWAP1 POP JUMP JUMPDEST PUSH1 0x1F DUP3 GT ISZERO PUSH2 0x9B2 JUMPI DUP1 PUSH0 MSTORE PUSH1 0x20 PUSH0 KECCAK256 PUSH1 0x1F DUP5 ADD PUSH1 0x5 SHR DUP2 ADD PUSH1 0x20 DUP6 LT ISZERO PUSH2 0x17B0 JUMPI POP DUP1 JUMPDEST PUSH1 0x1F DUP5 ADD PUSH1 0x5 SHR DUP3 ADD SWAP2 POP JUMPDEST DUP2 DUP2 LT ISZERO PUSH2 0x17CF JUMPI PUSH0 DUP2 SSTORE PUSH1 0x1 ADD PUSH2 0x17BC JUMP JUMPDEST POP POP POP POP POP JUMP JUMPDEST DUP2 MLOAD PUSH8 0xFFFFFFFFFFFFFFFF DUP2 GT ISZERO PUSH2 0x17F0 JUMPI PUSH2 0x17F0 PUSH2 0x13BD JUMP JUMPDEST PUSH2 0x1804 DUP2 PUSH2 0x17FE DUP5 SLOAD PUSH2 0x1753 JUMP JUMPDEST DUP5 PUSH2 0x178B JUMP JUMPDEST PUSH1 0x20 DUP1 PUSH1 0x1F DUP4 GT PUSH1 0x1 DUP2 EQ PUSH2 0x1837 JUMPI PUSH0 DUP5 ISZERO PUSH2 0x1820 JUMPI POP DUP6 DUP4 ADD MLOAD JUMPDEST PUSH0 NOT PUSH1 0x3 DUP7 SWAP1 SHL SHR NOT AND PUSH1 0x1 DUP6 SWAP1 SHL OR DUP6 SSTORE PUSH2 0x188E JUMP JUMPDEST PUSH0 DUP6 DUP2 MSTORE PUSH1 0x20 DUP2 KECCAK256 PUSH1 0x1F NOT DUP7 AND SWAP2 JUMPDEST DUP3 DUP2 LT ISZERO PUSH2 0x1865 JUMPI DUP9 DUP7 ADD MLOAD DUP3 SSTORE SWAP5 DUP5 ADD SWAP5 PUSH1 0x1 SWAP1 SWAP2 ADD SWAP1 DUP5 ADD PUSH2 0x1846 JUMP JUMPDEST POP DUP6 DUP3 LT ISZERO PUSH2 0x1882 JUMPI DUP8 DUP6 ADD MLOAD PUSH0 NOT PUSH1 0x3 DUP9 SWAP1 SHL PUSH1 0xF8 AND SHR NOT AND DUP2 SSTORE JUMPDEST POP POP PUSH1 0x1 DUP5 PUSH1 0x1 SHL ADD DUP6 SSTORE JUMPDEST POP POP POP POP POP POP JUMP JUMPDEST PUSH0 PUSH1 0x20 DUP3 DUP5 SUB SLT ISZERO PUSH2 0x18A6 JUMPI PUSH0 DUP1 REVERT JUMPDEST DUP2 MLOAD DUP1 ISZERO ISZERO DUP2 EQ PUSH2 0x1332 JUMPI PUSH0 DUP1 REVERT JUMPDEST PUSH1 0x1 DUP1 PUSH1 0xA0 SHL SUB DUP5 AND DUP2 MSTORE DUP3 PUSH1 0x20 DUP3 ADD MSTORE PUSH1 0x60 PUSH1 0x40 DUP3 ADD MSTORE PUSH0 PUSH2 0x172F PUSH1 0x60 DUP4 ADD DUP5 PUSH2 0x1649 JUMP JUMPDEST PUSH1 0x1 DUP1 PUSH1 0xA0 SHL SUB DUP6 AND DUP2 MSTORE DUP4 PUSH1 0x20 DUP3 ADD MSTORE DUP3 ISZERO ISZERO PUSH1 0x40 DUP3 ADD MSTORE PUSH1 0x80 PUSH1 0x60 DUP3 ADD MSTORE PUSH0 PUSH2 0x1909 PUSH1 0x80 DUP4 ADD DUP5 PUSH2 0x1649 JUMP JUMPDEST SWAP7 SWAP6 POP POP POP POP POP POP JUMP INVALID LOG2 PUSH5 0x6970667358 0x22 SLT KECCAK256 0x5D POP LOG3 0xCB PUSH12 0xE2BFD34FA0D0A6D24A244216 0xEF PUSH2 0x4DE 0x27 0xE1 PUSH7 0xABCDC003A835A1 BALANCE PUSH5 0x736F6C6343 STOP ADDMOD AND STOP CALLER "
				},
				"gasEstimates": {
					"creation": {
						"codeDepositCost": "1294600",
						"executionCost": "39168",
						"totalCost": "1333768"
					},
					"external": {
						"DEFAULT_ADMIN_ROLE()": "237",
						"RELAYER_ROLE()": "305",
						"attestToken((address,uint256,uint8,uint8,string,string,address))": "infinite",
						"attestedTokens(bytes32)": "infinite",
						"bridgeNonFungibleTokens(address,uint256,uint256,address)": "infinite",
						"bridgeNonFungibleTokensBack()": "251",
						"bridgeTokens(address,uint256,uint256,address)": "infinite",
						"bridgeTokensBack(uint256,address,bytes32)": "infinite",
						"getRoleAdmin(bytes32)": "2512",
						"grantRole(bytes32,address)": "infinite",
						"hasRole(bytes32,address)": "2736",
						"releaseNonFungibleTokens()": "230",
						"releaseTokens(uint256,address,address)": "infinite",
						"releaseWrappedNonFungibleTokens()": "229",
						"releaseWrappedTokens(uint256,address,bytes32)": "infinite",
						"renounceRole(bytes32,address)": "29084",
						"revokeRole(bytes32,address)": "infinite",
						"setTokenFactory(address)": "infinite",
						"supportsInterface(bytes4)": "447",
						"tokenFactory()": "2424",
						"tokenTransfers(bytes32)": "15534"
					}
				},
				"methodIdentifiers": {
					"DEFAULT_ADMIN_ROLE()": "a217fddf",
					"RELAYER_ROLE()": "926d7d7f",
					"attestToken((address,uint256,uint8,uint8,string,string,address))": "31ba1648",
					"attestedTokens(bytes32)": "7f7b0109",
					"bridgeNonFungibleTokens(address,uint256,uint256,address)": "39578521",
					"bridgeNonFungibleTokensBack()": "f86da945",
					"bridgeTokens(address,uint256,uint256,address)": "33b15aad",
					"bridgeTokensBack(uint256,address,bytes32)": "63a4e95f",
					"getRoleAdmin(bytes32)": "248a9ca3",
					"grantRole(bytes32,address)": "2f2ff15d",
					"hasRole(bytes32,address)": "91d14854",
					"releaseNonFungibleTokens()": "4c597f8a",
					"releaseTokens(uint256,address,address)": "62a00971",
					"releaseWrappedNonFungibleTokens()": "eac213ce",
					"releaseWrappedTokens(uint256,address,bytes32)": "9a67e7f9",
					"renounceRole(bytes32,address)": "36568abe",
					"revokeRole(bytes32,address)": "d547741f",
					"setTokenFactory(address)": "2f73a9f8",
					"supportsInterface(bytes4)": "01ffc9a7",
					"tokenFactory()": "e77772fe",
					"tokenTransfers(bytes32)": "1385c670"
				}
			},
			"storageLayout": {
				"storage": [
					{
						"astId": 26,
						"contract": "src/Loopso.sol:Loopso",
						"label": "_roles",
						"offset": 0,
						"slot": "0",
						"type": "t_mapping(t_bytes32,t_struct(RoleData)21_storage)"
					},
					{
						"astId": 653,
						"contract": "src/Loopso.sol:Loopso",
						"label": "attestedTokens",
						"offset": 0,
						"slot": "1",
						"type": "t_mapping(t_bytes32,t_struct(TokenAttestation)1058_storage)"
					},
					{
						"astId": 658,
						"contract": "src/Loopso.sol:Loopso",
						"label": "tokenTransfers",
						"offset": 0,
						"slot": "2",
						"type": "t_mapping(t_bytes32,t_struct(TokenTransfer)1077_storage)"
					},
					{
						"astId": 661,
						"contract": "src/Loopso.sol:Loopso",
						"label": "tokenFactory",
						"offset": 0,
						"slot": "3",
						"type": "t_contract(ITokenFactory)1207"
					}
				],
				"types": {
					"t_address": {
						"encoding": "inplace",
						"label": "address",
						"numberOfBytes": "20"
					},
					"t_bool": {
						"encoding": "inplace",
						"label": "bool",
						"numberOfBytes": "1"
					},
					"t_bytes32": {
						"encoding": "inplace",
						"label": "bytes32",
						"numberOfBytes": "32"
					},
					"t_contract(ITokenFactory)1207": {
						"encoding": "inplace",
						"label": "contract ITokenFactory",
						"numberOfBytes": "20"
					},
					"t_enum(TokenType)1042": {
						"encoding": "inplace",
						"label": "enum ILoopso.TokenType",
						"numberOfBytes": "1"
					},
					"t_mapping(t_address,t_bool)": {
						"encoding": "mapping",
						"key": "t_address",
						"label": "mapping(address => bool)",
						"numberOfBytes": "32",
						"value": "t_bool"
					},
					"t_mapping(t_bytes32,t_struct(RoleData)21_storage)": {
						"encoding": "mapping",
						"key": "t_bytes32",
						"label": "mapping(bytes32 => struct AccessControl.RoleData)",
						"numberOfBytes": "32",
						"value": "t_struct(RoleData)21_storage"
					},
					"t_mapping(t_bytes32,t_struct(TokenAttestation)1058_storage)": {
						"encoding": "mapping",
						"key": "t_bytes32",
						"label": "mapping(bytes32 => struct ILoopso.TokenAttestation)",
						"numberOfBytes": "32",
						"value": "t_struct(TokenAttestation)1058_storage"
					},
					"t_mapping(t_bytes32,t_struct(TokenTransfer)1077_storage)": {
						"encoding": "mapping",
						"key": "t_bytes32",
						"label": "mapping(bytes32 => struct ILoopso.TokenTransfer)",
						"numberOfBytes": "32",
						"value": "t_struct(TokenTransfer)1077_storage"
					},
					"t_string_storage": {
						"encoding": "bytes",
						"label": "string",
						"numberOfBytes": "32"
					},
					"t_struct(RoleData)21_storage": {
						"encoding": "inplace",
						"label": "struct AccessControl.RoleData",
						"members": [
							{
								"astId": 18,
								"contract": "src/Loopso.sol:Loopso",
								"label": "hasRole",
								"offset": 0,
								"slot": "0",
								"type": "t_mapping(t_address,t_bool)"
							},
							{
								"astId": 20,
								"contract": "src/Loopso.sol:Loopso",
								"label": "adminRole",
								"offset": 0,
								"slot": "1",
								"type": "t_bytes32"
							}
						],
						"numberOfBytes": "64"
					},
					"t_struct(TokenAttestation)1058_storage": {
						"encoding": "inplace",
						"label": "struct ILoopso.TokenAttestation",
						"members": [
							{
								"astId": 1044,
								"contract": "src/Loopso.sol:Loopso",
								"label": "tokenAddress",
								"offset": 0,
								"slot": "0",
								"type": "t_address"
							},
							{
								"astId": 1046,
								"contract": "src/Loopso.sol:Loopso",
								"label": "tokenChain",
								"offset": 0,
								"slot": "1",
								"type": "t_uint256"
							},
							{
								"astId": 1049,
								"contract": "src/Loopso.sol:Loopso",
								"label": "tokenType",
								"offset": 0,
								"slot": "2",
								"type": "t_enum(TokenType)1042"
							},
							{
								"astId": 1051,
								"contract": "src/Loopso.sol:Loopso",
								"label": "decimals",
								"offset": 1,
								"slot": "2",
								"type": "t_uint8"
							},
							{
								"astId": 1053,
								"contract": "src/Loopso.sol:Loopso",
								"label": "symbol",
								"offset": 0,
								"slot": "3",
								"type": "t_string_storage"
							},
							{
								"astId": 1055,
								"contract": "src/Loopso.sol:Loopso",
								"label": "name",
								"offset": 0,
								"slot": "4",
								"type": "t_string_storage"
							},
							{
								"astId": 1057,
								"contract": "src/Loopso.sol:Loopso",
								"label": "wrappedTokenAddress",
								"offset": 0,
								"slot": "5",
								"type": "t_address"
							}
						],
						"numberOfBytes": "192"
					},
					"t_struct(TokenTransfer)1077_storage": {
						"encoding": "inplace",
						"label": "struct ILoopso.TokenTransfer",
						"members": [
							{
								"astId": 1074,
								"contract": "src/Loopso.sol:Loopso",
								"label": "tokenTransfer",
								"offset": 0,
								"slot": "0",
								"type": "t_struct(TokenTransferBase)1071_storage"
							},
							{
								"astId": 1076,
								"contract": "src/Loopso.sol:Loopso",
								"label": "amount",
								"offset": 0,
								"slot": "6",
								"type": "t_uint256"
							}
						],
						"numberOfBytes": "224"
					},
					"t_struct(TokenTransferBase)1071_storage": {
						"encoding": "inplace",
						"label": "struct ILoopso.TokenTransferBase",
						"members": [
							{
								"astId": 1060,
								"contract": "src/Loopso.sol:Loopso",
								"label": "timestamp",
								"offset": 0,
								"slot": "0",
								"type": "t_uint256"
							},
							{
								"astId": 1062,
								"contract": "src/Loopso.sol:Loopso",
								"label": "srcChain",
								"offset": 0,
								"slot": "1",
								"type": "t_uint256"
							},
							{
								"astId": 1064,
								"contract": "src/Loopso.sol:Loopso",
								"label": "srcAddress",
								"offset": 0,
								"slot": "2",
								"type": "t_address"
							},
							{
								"astId": 1066,
								"contract": "src/Loopso.sol:Loopso",
								"label": "dstChain",
								"offset": 0,
								"slot": "3",
								"type": "t_uint256"
							},
							{
								"astId": 1068,
								"contract": "src/Loopso.sol:Loopso",
								"label": "dstAddress",
								"offset": 0,
								"slot": "4",
								"type": "t_address"
							},
							{
								"astId": 1070,
								"contract": "src/Loopso.sol:Loopso",
								"label": "tokenAddress",
								"offset": 0,
								"slot": "5",
								"type": "t_address"
							}
						],
						"numberOfBytes": "192"
					},
					"t_uint256": {
						"encoding": "inplace",
						"label": "uint256",
						"numberOfBytes": "32"
					},
					"t_uint8": {
						"encoding": "inplace",
						"label": "uint8",
						"numberOfBytes": "1"
					}
				}
			},
			"userdoc": {
				"kind": "user",
				"methods": {},
				"version": 1
			}
		}
	}
}