{
	"data": {
		"bytecode": {
			"linkReferences": {},
			"object": "608060405234801561000f575f80fd5b506040516109e03803806109e083398101604081905261002e91610109565b338061005357604051631e4fbdf760e01b81525f600482015260240160405180910390fd5b61005c8161009f565b50600280546001600160a01b039485166001600160a01b031991821617909155600380549385169382169390931790925560018054919093169116179055610149565b5f80546001600160a01b038381166001600160a01b0319831681178455604051919092169283917f8be0079c531659141344cd1fd0a4f28419497f9722a3daafe3b4186f6b6457e09190a35050565b80516001600160a01b0381168114610104575f80fd5b919050565b5f805f6060848603121561011b575f80fd5b610124846100ee565b9250610132602085016100ee565b9150610140604085016100ee565b90509250925092565b61088a806101565f395ff3fe608060405234801561000f575f80fd5b50600436106100a6575f3560e01c8063b5bfddea1161006e578063b5bfddea14610116578063c2c2b31f1461014b578063c81323e91461015e578063d432a42814610171578063e78cea9214610184578063f2fde38b14610197575f80fd5b806325b849ef146100aa578063715018a6146100bf5780638da5cb5b146100c75780638fe59807146100f0578063a396775414610103575b5f80fd5b6100bd6100b8366004610669565b6101aa565b005b6100bd610264565b5f546001600160a01b03165b6040516001600160a01b0390911681526020015b60405180910390f35b6100d36100fe366004610733565b610277565b6002546100d3906001600160a01b031681565b61013d7fbbacae59bae683cf88b58c385143402b9f8edd226bd8f76d1d2cd791fd2dbbdf81565b6040519081526020016100e7565b6100d3610159366004610733565b610381565b6100bd61016c366004610669565b61048d565b6003546100d3906001600160a01b031681565b6001546100d3906001600160a01b031681565b6100bd6101a5366004610669565b610542565b6101b261057f565b6001600160a01b03811661021b5760405162461bcd60e51b815260206004820152602560248201527f43616e277420736574206d6173746572204c53503820746f207a65726f206164604482015264647265737360d81b60648201526084015b60405180910390fd5b600380546001600160a01b0319166001600160a01b0383169081179091556040517ff66f787049205d43342024527dac5613b077dca9157438720fcd26fe6a301286905f90a250565b61026c61057f565b6102755f6105ab565b565b6001545f906001600160a01b031633146102ca5760405162461bcd60e51b815260206004820152601460248201527313db9b1e48189c9a5919d94818d85b8818d85b1b60621b6044820152606401610212565b6002545f906102e1906001600160a01b03166105fa565b6001546040516303bf912560e11b81529192506001600160a01b038084169263077f224a9261031a9289928992909116906004016107d6565b5f604051808303815f87803b158015610331575f80fd5b505af1158015610343573d5f803e3d5ffd5b50506040516001600160a01b03841692507fb4c7ebb6db2dde95305f2d49e25ccff863340c1687fd8ffc286e54f407450b0e91505f90a29392505050565b6001545f906001600160a01b031633146103d45760405162461bcd60e51b815260206004820152601460248201527313db9b1e48189c9a5919d94818d85b8818d85b1b60621b6044820152606401610212565b6003545f906103eb906001600160a01b03166105fa565b60015460405163f542033f60e01b81529192506001600160a01b038084169263f542033f926104269289928992909116905f90600401610813565b5f604051808303815f87803b15801561043d575f80fd5b505af115801561044f573d5f803e3d5ffd5b50506040516001600160a01b03841692507f5f63d1bcb76d84bd0e95353742bd4750042dd92f6b3564329fc3835b534d81c591505f90a29392505050565b61049561057f565b6001600160a01b0381166104f95760405162461bcd60e51b815260206004820152602560248201527f43616e277420736574206d6173746572204c53503720746f207a65726f206164604482015264647265737360d81b6064820152608401610212565b600280546001600160a01b0319166001600160a01b0383169081179091556040517ff698fc8844e369b3e9cfbaeeffa4b49f8dd37e5f7860d6c77ec547138b17a53a905f90a250565b61054a61057f565b6001600160a01b03811661057357604051631e4fbdf760e01b81525f6004820152602401610212565b61057c816105ab565b50565b5f546001600160a01b031633146102755760405163118cdaa760e01b8152336004820152602401610212565b5f80546001600160a01b038381166001600160a01b0319831681178455604051919092169283917f8be0079c531659141344cd1fd0a4f28419497f9722a3daafe3b4186f6b6457e09190a35050565b5f763d602d80600a3d3981f3363d3d373d3d3d363d730000008260601b60e81c175f526e5af43d82803e903d91602b57fd5bf38260781b17602052603760095ff090506001600160a01b038116610664576040516330be1a3d60e21b815260040160405180910390fd5b919050565b5f60208284031215610679575f80fd5b81356001600160a01b038116811461068f575f80fd5b9392505050565b634e487b7160e01b5f52604160045260245ffd5b5f82601f8301126106b9575f80fd5b813567ffffffffffffffff808211156106d4576106d4610696565b604051601f8301601f19908116603f011681019082821181831017156106fc576106fc610696565b81604052838152866020858801011115610714575f80fd5b836020870160208301375f602085830101528094505050505092915050565b5f8060408385031215610744575f80fd5b823567ffffffffffffffff8082111561075b575f80fd5b610767868387016106aa565b9350602085013591508082111561077c575f80fd5b50610789858286016106aa565b9150509250929050565b5f81518084525f5b818110156107b75760208185018101518683018201520161079b565b505f602082860101526020601f19601f83011685010191505092915050565b606081525f6107e86060830186610793565b82810360208401526107fa8186610793565b91505060018060a01b0383166040830152949350505050565b608081525f6108256080830187610793565b82810360208401526108378187610793565b6001600160a01b039590951660408401525050606001529291505056fea2646970667358221220e6188c0dff09bfa379d32dec32d8fe277e6a3c703a1f96703e683d2fb69bbc6164736f6c63430008160033",
			"opcodes": "PUSH1 0x80 PUSH1 0x40 MSTORE CALLVALUE DUP1 ISZERO PUSH2 0xF JUMPI PUSH0 DUP1 REVERT JUMPDEST POP PUSH1 0x40 MLOAD PUSH2 0x9E0 CODESIZE SUB DUP1 PUSH2 0x9E0 DUP4 CODECOPY DUP2 ADD PUSH1 0x40 DUP2 SWAP1 MSTORE PUSH2 0x2E SWAP2 PUSH2 0x109 JUMP JUMPDEST CALLER DUP1 PUSH2 0x53 JUMPI PUSH1 0x40 MLOAD PUSH4 0x1E4FBDF7 PUSH1 0xE0 SHL DUP2 MSTORE PUSH0 PUSH1 0x4 DUP3 ADD MSTORE PUSH1 0x24 ADD PUSH1 0x40 MLOAD DUP1 SWAP2 SUB SWAP1 REVERT JUMPDEST PUSH2 0x5C DUP2 PUSH2 0x9F JUMP JUMPDEST POP PUSH1 0x2 DUP1 SLOAD PUSH1 0x1 PUSH1 0x1 PUSH1 0xA0 SHL SUB SWAP5 DUP6 AND PUSH1 0x1 PUSH1 0x1 PUSH1 0xA0 SHL SUB NOT SWAP2 DUP3 AND OR SWAP1 SWAP2 SSTORE PUSH1 0x3 DUP1 SLOAD SWAP4 DUP6 AND SWAP4 DUP3 AND SWAP4 SWAP1 SWAP4 OR SWAP1 SWAP3 SSTORE PUSH1 0x1 DUP1 SLOAD SWAP2 SWAP1 SWAP4 AND SWAP2 AND OR SWAP1 SSTORE PUSH2 0x149 JUMP JUMPDEST PUSH0 DUP1 SLOAD PUSH1 0x1 PUSH1 0x1 PUSH1 0xA0 SHL SUB DUP4 DUP2 AND PUSH1 0x1 PUSH1 0x1 PUSH1 0xA0 SHL SUB NOT DUP4 AND DUP2 OR DUP5 SSTORE PUSH1 0x40 MLOAD SWAP2 SWAP1 SWAP3 AND SWAP3 DUP4 SWAP2 PUSH32 0x8BE0079C531659141344CD1FD0A4F28419497F9722A3DAAFE3B4186F6B6457E0 SWAP2 SWAP1 LOG3 POP POP JUMP JUMPDEST DUP1 MLOAD PUSH1 0x1 PUSH1 0x1 PUSH1 0xA0 SHL SUB DUP2 AND DUP2 EQ PUSH2 0x104 JUMPI PUSH0 DUP1 REVERT JUMPDEST SWAP2 SWAP1 POP JUMP JUMPDEST PUSH0 DUP1 PUSH0 PUSH1 0x60 DUP5 DUP7 SUB SLT ISZERO PUSH2 0x11B JUMPI PUSH0 DUP1 REVERT JUMPDEST PUSH2 0x124 DUP5 PUSH2 0xEE JUMP JUMPDEST SWAP3 POP PUSH2 0x132 PUSH1 0x20 DUP6 ADD PUSH2 0xEE JUMP JUMPDEST SWAP2 POP PUSH2 0x140 PUSH1 0x40 DUP6 ADD PUSH2 0xEE JUMP JUMPDEST SWAP1 POP SWAP3 POP SWAP3 POP SWAP3 JUMP JUMPDEST PUSH2 0x88A DUP1 PUSH2 0x156 PUSH0 CODECOPY PUSH0 RETURN INVALID PUSH1 0x80 PUSH1 0x40 MSTORE CALLVALUE DUP1 ISZERO PUSH2 0xF JUMPI PUSH0 DUP1 REVERT JUMPDEST POP PUSH1 0x4 CALLDATASIZE LT PUSH2 0xA6 JUMPI PUSH0 CALLDATALOAD PUSH1 0xE0 SHR DUP1 PUSH4 0xB5BFDDEA GT PUSH2 0x6E JUMPI DUP1 PUSH4 0xB5BFDDEA EQ PUSH2 0x116 JUMPI DUP1 PUSH4 0xC2C2B31F EQ PUSH2 0x14B JUMPI DUP1 PUSH4 0xC81323E9 EQ PUSH2 0x15E JUMPI DUP1 PUSH4 0xD432A428 EQ PUSH2 0x171 JUMPI DUP1 PUSH4 0xE78CEA92 EQ PUSH2 0x184 JUMPI DUP1 PUSH4 0xF2FDE38B EQ PUSH2 0x197 JUMPI PUSH0 DUP1 REVERT JUMPDEST DUP1 PUSH4 0x25B849EF EQ PUSH2 0xAA JUMPI DUP1 PUSH4 0x715018A6 EQ PUSH2 0xBF JUMPI DUP1 PUSH4 0x8DA5CB5B EQ PUSH2 0xC7 JUMPI DUP1 PUSH4 0x8FE59807 EQ PUSH2 0xF0 JUMPI DUP1 PUSH4 0xA3967754 EQ PUSH2 0x103 JUMPI JUMPDEST PUSH0 DUP1 REVERT JUMPDEST PUSH2 0xBD PUSH2 0xB8 CALLDATASIZE PUSH1 0x4 PUSH2 0x669 JUMP JUMPDEST PUSH2 0x1AA JUMP JUMPDEST STOP JUMPDEST PUSH2 0xBD PUSH2 0x264 JUMP JUMPDEST PUSH0 SLOAD PUSH1 0x1 PUSH1 0x1 PUSH1 0xA0 SHL SUB AND JUMPDEST PUSH1 0x40 MLOAD PUSH1 0x1 PUSH1 0x1 PUSH1 0xA0 SHL SUB SWAP1 SWAP2 AND DUP2 MSTORE PUSH1 0x20 ADD JUMPDEST PUSH1 0x40 MLOAD DUP1 SWAP2 SUB SWAP1 RETURN JUMPDEST PUSH2 0xD3 PUSH2 0xFE CALLDATASIZE PUSH1 0x4 PUSH2 0x733 JUMP JUMPDEST PUSH2 0x277 JUMP JUMPDEST PUSH1 0x2 SLOAD PUSH2 0xD3 SWAP1 PUSH1 0x1 PUSH1 0x1 PUSH1 0xA0 SHL SUB AND DUP2 JUMP JUMPDEST PUSH2 0x13D PUSH32 0xBBACAE59BAE683CF88B58C385143402B9F8EDD226BD8F76D1D2CD791FD2DBBDF DUP2 JUMP JUMPDEST PUSH1 0x40 MLOAD SWAP1 DUP2 MSTORE PUSH1 0x20 ADD PUSH2 0xE7 JUMP JUMPDEST PUSH2 0xD3 PUSH2 0x159 CALLDATASIZE PUSH1 0x4 PUSH2 0x733 JUMP JUMPDEST PUSH2 0x381 JUMP JUMPDEST PUSH2 0xBD PUSH2 0x16C CALLDATASIZE PUSH1 0x4 PUSH2 0x669 JUMP JUMPDEST PUSH2 0x48D JUMP JUMPDEST PUSH1 0x3 SLOAD PUSH2 0xD3 SWAP1 PUSH1 0x1 PUSH1 0x1 PUSH1 0xA0 SHL SUB AND DUP2 JUMP JUMPDEST PUSH1 0x1 SLOAD PUSH2 0xD3 SWAP1 PUSH1 0x1 PUSH1 0x1 PUSH1 0xA0 SHL SUB AND DUP2 JUMP JUMPDEST PUSH2 0xBD PUSH2 0x1A5 CALLDATASIZE PUSH1 0x4 PUSH2 0x669 JUMP JUMPDEST PUSH2 0x542 JUMP JUMPDEST PUSH2 0x1B2 PUSH2 0x57F JUMP JUMPDEST PUSH1 0x1 PUSH1 0x1 PUSH1 0xA0 SHL SUB DUP2 AND PUSH2 0x21B JUMPI PUSH1 0x40 MLOAD PUSH3 0x461BCD PUSH1 0xE5 SHL DUP2 MSTORE PUSH1 0x20 PUSH1 0x4 DUP3 ADD MSTORE PUSH1 0x25 PUSH1 0x24 DUP3 ADD MSTORE PUSH32 0x43616E277420736574206D6173746572204C53503820746F207A65726F206164 PUSH1 0x44 DUP3 ADD MSTORE PUSH5 0x6472657373 PUSH1 0xD8 SHL PUSH1 0x64 DUP3 ADD MSTORE PUSH1 0x84 ADD JUMPDEST PUSH1 0x40 MLOAD DUP1 SWAP2 SUB SWAP1 REVERT JUMPDEST PUSH1 0x3 DUP1 SLOAD PUSH1 0x1 PUSH1 0x1 PUSH1 0xA0 SHL SUB NOT AND PUSH1 0x1 PUSH1 0x1 PUSH1 0xA0 SHL SUB DUP4 AND SWAP1 DUP2 OR SWAP1 SWAP2 SSTORE PUSH1 0x40 MLOAD PUSH32 0xF66F787049205D43342024527DAC5613B077DCA9157438720FCD26FE6A301286 SWAP1 PUSH0 SWAP1 LOG2 POP JUMP JUMPDEST PUSH2 0x26C PUSH2 0x57F JUMP JUMPDEST PUSH2 0x275 PUSH0 PUSH2 0x5AB JUMP JUMPDEST JUMP JUMPDEST PUSH1 0x1 SLOAD PUSH0 SWAP1 PUSH1 0x1 PUSH1 0x1 PUSH1 0xA0 SHL SUB AND CALLER EQ PUSH2 0x2CA JUMPI PUSH1 0x40 MLOAD PUSH3 0x461BCD PUSH1 0xE5 SHL DUP2 MSTORE PUSH1 0x20 PUSH1 0x4 DUP3 ADD MSTORE PUSH1 0x14 PUSH1 0x24 DUP3 ADD MSTORE PUSH20 0x13DB9B1E48189C9A5919D94818D85B8818D85B1B PUSH1 0x62 SHL PUSH1 0x44 DUP3 ADD MSTORE PUSH1 0x64 ADD PUSH2 0x212 JUMP JUMPDEST PUSH1 0x2 SLOAD PUSH0 SWAP1 PUSH2 0x2E1 SWAP1 PUSH1 0x1 PUSH1 0x1 PUSH1 0xA0 SHL SUB AND PUSH2 0x5FA JUMP JUMPDEST PUSH1 0x1 SLOAD PUSH1 0x40 MLOAD PUSH4 0x3BF9125 PUSH1 0xE1 SHL DUP2 MSTORE SWAP2 SWAP3 POP PUSH1 0x1 PUSH1 0x1 PUSH1 0xA0 SHL SUB DUP1 DUP5 AND SWAP3 PUSH4 0x77F224A SWAP3 PUSH2 0x31A SWAP3 DUP10 SWAP3 DUP10 SWAP3 SWAP1 SWAP2 AND SWAP1 PUSH1 0x4 ADD PUSH2 0x7D6 JUMP JUMPDEST PUSH0 PUSH1 0x40 MLOAD DUP1 DUP4 SUB DUP2 PUSH0 DUP8 DUP1 EXTCODESIZE ISZERO DUP1 ISZERO PUSH2 0x331 JUMPI PUSH0 DUP1 REVERT JUMPDEST POP GAS CALL ISZERO DUP1 ISZERO PUSH2 0x343 JUMPI RETURNDATASIZE PUSH0 DUP1 RETURNDATACOPY RETURNDATASIZE PUSH0 REVERT JUMPDEST POP POP PUSH1 0x40 MLOAD PUSH1 0x1 PUSH1 0x1 PUSH1 0xA0 SHL SUB DUP5 AND SWAP3 POP PUSH32 0xB4C7EBB6DB2DDE95305F2D49E25CCFF863340C1687FD8FFC286E54F407450B0E SWAP2 POP PUSH0 SWAP1 LOG2 SWAP4 SWAP3 POP POP POP JUMP JUMPDEST PUSH1 0x1 SLOAD PUSH0 SWAP1 PUSH1 0x1 PUSH1 0x1 PUSH1 0xA0 SHL SUB AND CALLER EQ PUSH2 0x3D4 JUMPI PUSH1 0x40 MLOAD PUSH3 0x461BCD PUSH1 0xE5 SHL DUP2 MSTORE PUSH1 0x20 PUSH1 0x4 DUP3 ADD MSTORE PUSH1 0x14 PUSH1 0x24 DUP3 ADD MSTORE PUSH20 0x13DB9B1E48189C9A5919D94818D85B8818D85B1B PUSH1 0x62 SHL PUSH1 0x44 DUP3 ADD MSTORE PUSH1 0x64 ADD PUSH2 0x212 JUMP JUMPDEST PUSH1 0x3 SLOAD PUSH0 SWAP1 PUSH2 0x3EB SWAP1 PUSH1 0x1 PUSH1 0x1 PUSH1 0xA0 SHL SUB AND PUSH2 0x5FA JUMP JUMPDEST PUSH1 0x1 SLOAD PUSH1 0x40 MLOAD PUSH4 0xF542033F PUSH1 0xE0 SHL DUP2 MSTORE SWAP2 SWAP3 POP PUSH1 0x1 PUSH1 0x1 PUSH1 0xA0 SHL SUB DUP1 DUP5 AND SWAP3 PUSH4 0xF542033F SWAP3 PUSH2 0x426 SWAP3 DUP10 SWAP3 DUP10 SWAP3 SWAP1 SWAP2 AND SWAP1 PUSH0 SWAP1 PUSH1 0x4 ADD PUSH2 0x813 JUMP JUMPDEST PUSH0 PUSH1 0x40 MLOAD DUP1 DUP4 SUB DUP2 PUSH0 DUP8 DUP1 EXTCODESIZE ISZERO DUP1 ISZERO PUSH2 0x43D JUMPI PUSH0 DUP1 REVERT JUMPDEST POP GAS CALL ISZERO DUP1 ISZERO PUSH2 0x44F JUMPI RETURNDATASIZE PUSH0 DUP1 RETURNDATACOPY RETURNDATASIZE PUSH0 REVERT JUMPDEST POP POP PUSH1 0x40 MLOAD PUSH1 0x1 PUSH1 0x1 PUSH1 0xA0 SHL SUB DUP5 AND SWAP3 POP PUSH32 0x5F63D1BCB76D84BD0E95353742BD4750042DD92F6B3564329FC3835B534D81C5 SWAP2 POP PUSH0 SWAP1 LOG2 SWAP4 SWAP3 POP POP POP JUMP JUMPDEST PUSH2 0x495 PUSH2 0x57F JUMP JUMPDEST PUSH1 0x1 PUSH1 0x1 PUSH1 0xA0 SHL SUB DUP2 AND PUSH2 0x4F9 JUMPI PUSH1 0x40 MLOAD PUSH3 0x461BCD PUSH1 0xE5 SHL DUP2 MSTORE PUSH1 0x20 PUSH1 0x4 DUP3 ADD MSTORE PUSH1 0x25 PUSH1 0x24 DUP3 ADD MSTORE PUSH32 0x43616E277420736574206D6173746572204C53503720746F207A65726F206164 PUSH1 0x44 DUP3 ADD MSTORE PUSH5 0x6472657373 PUSH1 0xD8 SHL PUSH1 0x64 DUP3 ADD MSTORE PUSH1 0x84 ADD PUSH2 0x212 JUMP JUMPDEST PUSH1 0x2 DUP1 SLOAD PUSH1 0x1 PUSH1 0x1 PUSH1 0xA0 SHL SUB NOT AND PUSH1 0x1 PUSH1 0x1 PUSH1 0xA0 SHL SUB DUP4 AND SWAP1 DUP2 OR SWAP1 SWAP2 SSTORE PUSH1 0x40 MLOAD PUSH32 0xF698FC8844E369B3E9CFBAEEFFA4B49F8DD37E5F7860D6C77EC547138B17A53A SWAP1 PUSH0 SWAP1 LOG2 POP JUMP JUMPDEST PUSH2 0x54A PUSH2 0x57F JUMP JUMPDEST PUSH1 0x1 PUSH1 0x1 PUSH1 0xA0 SHL SUB DUP2 AND PUSH2 0x573 JUMPI PUSH1 0x40 MLOAD PUSH4 0x1E4FBDF7 PUSH1 0xE0 SHL DUP2 MSTORE PUSH0 PUSH1 0x4 DUP3 ADD MSTORE PUSH1 0x24 ADD PUSH2 0x212 JUMP JUMPDEST PUSH2 0x57C DUP2 PUSH2 0x5AB JUMP JUMPDEST POP JUMP JUMPDEST PUSH0 SLOAD PUSH1 0x1 PUSH1 0x1 PUSH1 0xA0 SHL SUB AND CALLER EQ PUSH2 0x275 JUMPI PUSH1 0x40 MLOAD PUSH4 0x118CDAA7 PUSH1 0xE0 SHL DUP2 MSTORE CALLER PUSH1 0x4 DUP3 ADD MSTORE PUSH1 0x24 ADD PUSH2 0x212 JUMP JUMPDEST PUSH0 DUP1 SLOAD PUSH1 0x1 PUSH1 0x1 PUSH1 0xA0 SHL SUB DUP4 DUP2 AND PUSH1 0x1 PUSH1 0x1 PUSH1 0xA0 SHL SUB NOT DUP4 AND DUP2 OR DUP5 SSTORE PUSH1 0x40 MLOAD SWAP2 SWAP1 SWAP3 AND SWAP3 DUP4 SWAP2 PUSH32 0x8BE0079C531659141344CD1FD0A4F28419497F9722A3DAAFE3B4186F6B6457E0 SWAP2 SWAP1 LOG3 POP POP JUMP JUMPDEST PUSH0 PUSH23 0x3D602D80600A3D3981F3363D3D373D3D3D363D73000000 DUP3 PUSH1 0x60 SHL PUSH1 0xE8 SHR OR PUSH0 MSTORE PUSH15 0x5AF43D82803E903D91602B57FD5BF3 DUP3 PUSH1 0x78 SHL OR PUSH1 0x20 MSTORE PUSH1 0x37 PUSH1 0x9 PUSH0 CREATE SWAP1 POP PUSH1 0x1 PUSH1 0x1 PUSH1 0xA0 SHL SUB DUP2 AND PUSH2 0x664 JUMPI PUSH1 0x40 MLOAD PUSH4 0x30BE1A3D PUSH1 0xE2 SHL DUP2 MSTORE PUSH1 0x4 ADD PUSH1 0x40 MLOAD DUP1 SWAP2 SUB SWAP1 REVERT JUMPDEST SWAP2 SWAP1 POP JUMP JUMPDEST PUSH0 PUSH1 0x20 DUP3 DUP5 SUB SLT ISZERO PUSH2 0x679 JUMPI PUSH0 DUP1 REVERT JUMPDEST DUP2 CALLDATALOAD PUSH1 0x1 PUSH1 0x1 PUSH1 0xA0 SHL SUB DUP2 AND DUP2 EQ PUSH2 0x68F JUMPI PUSH0 DUP1 REVERT JUMPDEST SWAP4 SWAP3 POP POP POP JUMP JUMPDEST PUSH4 0x4E487B71 PUSH1 0xE0 SHL PUSH0 MSTORE PUSH1 0x41 PUSH1 0x4 MSTORE PUSH1 0x24 PUSH0 REVERT JUMPDEST PUSH0 DUP3 PUSH1 0x1F DUP4 ADD SLT PUSH2 0x6B9 JUMPI PUSH0 DUP1 REVERT JUMPDEST DUP2 CALLDATALOAD PUSH8 0xFFFFFFFFFFFFFFFF DUP1 DUP3 GT ISZERO PUSH2 0x6D4 JUMPI PUSH2 0x6D4 PUSH2 0x696 JUMP JUMPDEST PUSH1 0x40 MLOAD PUSH1 0x1F DUP4 ADD PUSH1 0x1F NOT SWAP1 DUP2 AND PUSH1 0x3F ADD AND DUP2 ADD SWAP1 DUP3 DUP3 GT DUP2 DUP4 LT OR ISZERO PUSH2 0x6FC JUMPI PUSH2 0x6FC PUSH2 0x696 JUMP JUMPDEST DUP2 PUSH1 0x40 MSTORE DUP4 DUP2 MSTORE DUP7 PUSH1 0x20 DUP6 DUP9 ADD ADD GT ISZERO PUSH2 0x714 JUMPI PUSH0 DUP1 REVERT JUMPDEST DUP4 PUSH1 0x20 DUP8 ADD PUSH1 0x20 DUP4 ADD CALLDATACOPY PUSH0 PUSH1 0x20 DUP6 DUP4 ADD ADD MSTORE DUP1 SWAP5 POP POP POP POP POP SWAP3 SWAP2 POP POP JUMP JUMPDEST PUSH0 DUP1 PUSH1 0x40 DUP4 DUP6 SUB SLT ISZERO PUSH2 0x744 JUMPI PUSH0 DUP1 REVERT JUMPDEST DUP3 CALLDATALOAD PUSH8 0xFFFFFFFFFFFFFFFF DUP1 DUP3 GT ISZERO PUSH2 0x75B JUMPI PUSH0 DUP1 REVERT JUMPDEST PUSH2 0x767 DUP7 DUP4 DUP8 ADD PUSH2 0x6AA JUMP JUMPDEST SWAP4 POP PUSH1 0x20 DUP6 ADD CALLDATALOAD SWAP2 POP DUP1 DUP3 GT ISZERO PUSH2 0x77C JUMPI PUSH0 DUP1 REVERT JUMPDEST POP PUSH2 0x789 DUP6 DUP3 DUP7 ADD PUSH2 0x6AA JUMP JUMPDEST SWAP2 POP POP SWAP3 POP SWAP3 SWAP1 POP JUMP JUMPDEST PUSH0 DUP2 MLOAD DUP1 DUP5 MSTORE PUSH0 JUMPDEST DUP2 DUP2 LT ISZERO PUSH2 0x7B7 JUMPI PUSH1 0x20 DUP2 DUP6 ADD DUP2 ADD MLOAD DUP7 DUP4 ADD DUP3 ADD MSTORE ADD PUSH2 0x79B JUMP JUMPDEST POP PUSH0 PUSH1 0x20 DUP3 DUP7 ADD ADD MSTORE PUSH1 0x20 PUSH1 0x1F NOT PUSH1 0x1F DUP4 ADD AND DUP6 ADD ADD SWAP2 POP POP SWAP3 SWAP2 POP POP JUMP JUMPDEST PUSH1 0x60 DUP2 MSTORE PUSH0 PUSH2 0x7E8 PUSH1 0x60 DUP4 ADD DUP7 PUSH2 0x793 JUMP JUMPDEST DUP3 DUP2 SUB PUSH1 0x20 DUP5 ADD MSTORE PUSH2 0x7FA DUP2 DUP7 PUSH2 0x793 JUMP JUMPDEST SWAP2 POP POP PUSH1 0x1 DUP1 PUSH1 0xA0 SHL SUB DUP4 AND PUSH1 0x40 DUP4 ADD MSTORE SWAP5 SWAP4 POP POP POP POP JUMP JUMPDEST PUSH1 0x80 DUP2 MSTORE PUSH0 PUSH2 0x825 PUSH1 0x80 DUP4 ADD DUP8 PUSH2 0x793 JUMP JUMPDEST DUP3 DUP2 SUB PUSH1 0x20 DUP5 ADD MSTORE PUSH2 0x837 DUP2 DUP8 PUSH2 0x793 JUMP JUMPDEST PUSH1 0x1 PUSH1 0x1 PUSH1 0xA0 SHL SUB SWAP6 SWAP1 SWAP6 AND PUSH1 0x40 DUP5 ADD MSTORE POP POP PUSH1 0x60 ADD MSTORE SWAP3 SWAP2 POP POP JUMP INVALID LOG2 PUSH5 0x6970667358 0x22 SLT KECCAK256 0xE6 XOR DUP13 0xD SELFDESTRUCT MULMOD 0xBF LOG3 PUSH26 0xD32DEC32D8FE277E6A3C703A1F96703E683D2FB69BBC6164736F PUSH13 0x63430008160033000000000000 "
		},
		"gasEstimates": {
			"creation": {
				"codeDepositCost": "437200",
				"executionCost": "infinite",
				"totalCost": "infinite"
			},
			"external": {
				"BRIDGE_ROLE()": "194",
				"bridge()": "2413",
				"createNewLSP7(string,string)": "infinite",
				"createNewLSP8(string,string)": "infinite",
				"masterLSP7()": "2414",
				"masterLSP8()": "2391",
				"owner()": "2352",
				"renounceOwnership()": "infinite",
				"setMasterLSP7(address)": "27914",
				"setMasterLSP8(address)": "27871",
				"transferOwnership(address)": "28404"
			}
		},
		"methodIdentifiers": {
			"BRIDGE_ROLE()": "b5bfddea",
			"bridge()": "e78cea92",
			"createNewLSP7(string,string)": "8fe59807",
			"createNewLSP8(string,string)": "c2c2b31f",
			"masterLSP7()": "a3967754",
			"masterLSP8()": "d432a428",
			"owner()": "8da5cb5b",
			"renounceOwnership()": "715018a6",
			"setMasterLSP7(address)": "c81323e9",
			"setMasterLSP8(address)": "25b849ef",
			"transferOwnership(address)": "f2fde38b"
		}
	},
	"abi": [
		{
			"inputs": [
				{
					"internalType": "address",
					"name": "_masterLSP7",
					"type": "address"
				},
				{
					"internalType": "address",
					"name": "_masterLSP8",
					"type": "address"
				},
				{
					"internalType": "address",
					"name": "_bridge",
					"type": "address"
				}
			],
			"stateMutability": "nonpayable",
			"type": "constructor"
		},
		{
			"inputs": [],
			"name": "ERC1167FailedCreateClone",
			"type": "error"
		},
		{
			"inputs": [
				{
					"internalType": "address",
					"name": "owner",
					"type": "address"
				}
			],
			"name": "OwnableInvalidOwner",
			"type": "error"
		},
		{
			"inputs": [
				{
					"internalType": "address",
					"name": "account",
					"type": "address"
				}
			],
			"name": "OwnableUnauthorizedAccount",
			"type": "error"
		},
		{
			"anonymous": false,
			"inputs": [
				{
					"indexed": true,
					"internalType": "address",
					"name": "masterLSP7",
					"type": "address"
				}
			],
			"name": "MasterLSP7Set",
			"type": "event"
		},
		{
			"anonymous": false,
			"inputs": [
				{
					"indexed": true,
					"internalType": "address",
					"name": "masterLSP8",
					"type": "address"
				}
			],
			"name": "MasterLSP8Set",
			"type": "event"
		},
		{
			"anonymous": false,
			"inputs": [
				{
					"indexed": true,
					"internalType": "address",
					"name": "tokenAddress",
					"type": "address"
				}
			],
			"name": "NewLSP7",
			"type": "event"
		},
		{
			"anonymous": false,
			"inputs": [
				{
					"indexed": true,
					"internalType": "address",
					"name": "tokenAddress",
					"type": "address"
				}
			],
			"name": "NewLSP8",
			"type": "event"
		},
		{
			"anonymous": false,
			"inputs": [
				{
					"indexed": true,
					"internalType": "address",
					"name": "previousOwner",
					"type": "address"
				},
				{
					"indexed": true,
					"internalType": "address",
					"name": "newOwner",
					"type": "address"
				}
			],
			"name": "OwnershipTransferred",
			"type": "event"
		},
		{
			"inputs": [],
			"name": "BRIDGE_ROLE",
			"outputs": [
				{
					"internalType": "bytes32",
					"name": "",
					"type": "bytes32"
				}
			],
			"stateMutability": "view",
			"type": "function"
		},
		{
			"inputs": [],
			"name": "bridge",
			"outputs": [
				{
					"internalType": "address",
					"name": "",
					"type": "address"
				}
			],
			"stateMutability": "view",
			"type": "function"
		},
		{
			"inputs": [
				{
					"internalType": "string",
					"name": "_name",
					"type": "string"
				},
				{
					"internalType": "string",
					"name": "_symbol",
					"type": "string"
				}
			],
			"name": "createNewLSP7",
			"outputs": [
				{
					"internalType": "address",
					"name": "",
					"type": "address"
				}
			],
			"stateMutability": "nonpayable",
			"type": "function"
		},
		{
			"inputs": [
				{
					"internalType": "string",
					"name": "_name",
					"type": "string"
				},
				{
					"internalType": "string",
					"name": "_symbol",
					"type": "string"
				}
			],
			"name": "createNewLSP8",
			"outputs": [
				{
					"internalType": "address",
					"name": "",
					"type": "address"
				}
			],
			"stateMutability": "nonpayable",
			"type": "function"
		},
		{
			"inputs": [],
			"name": "masterLSP7",
			"outputs": [
				{
					"internalType": "address",
					"name": "",
					"type": "address"
				}
			],
			"stateMutability": "view",
			"type": "function"
		},
		{
			"inputs": [],
			"name": "masterLSP8",
			"outputs": [
				{
					"internalType": "address",
					"name": "",
					"type": "address"
				}
			],
			"stateMutability": "view",
			"type": "function"
		},
		{
			"inputs": [],
			"name": "owner",
			"outputs": [
				{
					"internalType": "address",
					"name": "",
					"type": "address"
				}
			],
			"stateMutability": "view",
			"type": "function"
		},
		{
			"inputs": [],
			"name": "renounceOwnership",
			"outputs": [],
			"stateMutability": "nonpayable",
			"type": "function"
		},
		{
			"inputs": [
				{
					"internalType": "address",
					"name": "_masterLSP7",
					"type": "address"
				}
			],
			"name": "setMasterLSP7",
			"outputs": [],
			"stateMutability": "nonpayable",
			"type": "function"
		},
		{
			"inputs": [
				{
					"internalType": "address",
					"name": "_masterLSP8",
					"type": "address"
				}
			],
			"name": "setMasterLSP8",
			"outputs": [],
			"stateMutability": "nonpayable",
			"type": "function"
		},
		{
			"inputs": [
				{
					"internalType": "address",
					"name": "newOwner",
					"type": "address"
				}
			],
			"name": "transferOwnership",
			"outputs": [],
			"stateMutability": "nonpayable",
			"type": "function"
		}
	]
}